{
	"data": {
		"bytecode": {
			"linkReferences": {},
			"object": "608060405234801561001057600080fd5b5060005b601f8110156101025760026021826020811061002c57fe5b01546021836020811061003b57fe5b015460405160200180838152602001828152602001925050506040516020818303038152906040526040518082805190602001908083835b602083106100925780518252601f199092019160209182019101610073565b51815160209384036101000a60001901801990921691161790526040519190930194509192505080830381855afa1580156100d1573d6000803e3d6000fd5b5050506040513d60208110156100e657600080fd5b5051602160018301602081106100f857fe5b0155600101610014565b506113c2806101126000396000f3fe60806040526004361061003f5760003560e01c806301ffc9a71461004457806322895118146100a4578063621fd130146101ba578063c5f2892f14610244575b600080fd5b34801561005057600080fd5b506100906004803603602081101561006757600080fd5b50357fffffffff000000000000000000000000000000000000000000000000000000001661026b565b604080519115158252519081900360200190f35b6101b8600480360360808110156100ba57600080fd5b8101906020810181356401000000008111156100d557600080fd5b8201836020820111156100e757600080fd5b8035906020019184600183028401116401000000008311171561010957600080fd5b91939092909160208101903564010000000081111561012757600080fd5b82018360208201111561013957600080fd5b8035906020019184600183028401116401000000008311171561015b57600080fd5b91939092909160208101903564010000000081111561017957600080fd5b82018360208201111561018b57600080fd5b803590602001918460018302840111640100000000831117156101ad57600080fd5b919350915035610304565b005b3480156101c657600080fd5b506101cf610d6f565b6040805160208082528351818301528351919283929083019185019080838360005b838110156102095781810151838201526020016101f1565b50505050905090810190601f1680156102365780820380516001836020036101000a031916815260200191505b509250505060405180910390f35b34801561025057600080fd5b50610259610d81565b60408051918252519081900360200190f35b60007fffffffff0000000000000000000000000000000000000000000000000000000082167f01ffc9a70000000000000000000000000000000000000000000000000000000014806102fe57507fffffffff0000000000000000000000000000000000000000000000000000000082167f8564090700000000000000000000000000000000000000000000000000000000145b92915050565b603086146103435760405162461bcd60e51b81526004018080602001828103825260268152602001806112f16026913960400191505060405180910390fd5b602084146103825760405162461bcd60e51b81526004018080602001828103825260368152602001806112886036913960400191505060405180910390fd5b606082146103c15760405162461bcd60e51b81526004018080602001828103825260298152602001806113646029913960400191505060405180910390fd5b670de0b6b3a76400003410156104085760405162461bcd60e51b815260040180806020018281038252602681526020018061133e6026913960400191505060405180910390fd5b633b9aca0034061561044b5760405162461bcd60e51b81526004018080602001828103825260338152602001806112be6033913960400191505060405180910390fd5b633b9aca00340467ffffffffffffffff8111156104995760405162461bcd60e51b81526004018080602001828103825260278152602001806113176027913960400191505060405180910390fd5b60606104a482611066565b90507f649bbc62d0e31342afea4e5cd82d4049e7e1ee912fc0889aa790803be39038c589898989858a8a6104d9602054611066565b6040805160a0808252810189905290819060208201908201606083016080840160c085018e8e80828437600083820152601f01601f191690910187810386528c815260200190508c8c808284376000838201819052601f909101601f191690920188810386528c5181528c51602091820193918e019250908190849084905b83811015610570578181015183820152602001610558565b50505050905090810190601f16801561059d5780820380516001836020036101000a031916815260200191505b5086810383528881526020018989808284376000838201819052601f909101601f19169092018881038452895181528951602091820193918b019250908190849084905b838110156105f95781810151838201526020016105e1565b50505050905090810190601f1680156106265780820380516001836020036101000a031916815260200191505b509d505050505050505050505050505060405180910390a1600060028a8a600060801b604051602001808484808284377fffffffffffffffffffffffffffffffff000000000000000000000000000000009094169190930190815260408051600f19818403018152601090920190819052815191955093508392506020850191508083835b602083106106ca5780518252601f1990920191602091820191016106ab565b51815160209384036101000a60001901801990921691161790526040519190930194509192505080830381855afa158015610709573d6000803e3d6000fd5b5050506040513d602081101561071e57600080fd5b5051905060006002806107346040848a8c6111ea565b6040516020018083838082843780830192505050925050506040516020818303038152906040526040518082805190602001908083835b6020831061078a5780518252601f19909201916020918201910161076b565b51815160209384036101000a60001901801990921691161790526040519190930194509192505080830381855afa1580156107c9573d6000803e3d6000fd5b5050506040513d60208110156107de57600080fd5b505160026107ef896040818d6111ea565b60405160009060200180848480828437919091019283525050604080518083038152602092830191829052805190945090925082918401908083835b6020831061084a5780518252601f19909201916020918201910161082b565b51815160209384036101000a60001901801990921691161790526040519190930194509192505080830381855afa158015610889573d6000803e3d6000fd5b5050506040513d602081101561089e57600080fd5b5051604080516020818101949094528082019290925280518083038201815260609092019081905281519192909182918401908083835b602083106108f45780518252601f1990920191602091820191016108d5565b51815160209384036101000a60001901801990921691161790526040519190930194509192505080830381855afa158015610933573d6000803e3d6000fd5b5050506040513d602081101561094857600080fd5b50516040805160208101858152929350600092600292839287928f928f92018383808284378083019250505093505050506040516020818303038152906040526040518082805190602001908083835b602083106109b75780518252601f199092019160209182019101610998565b51815160209384036101000a60001901801990921691161790526040519190930194509192505080830381855afa1580156109f6573d6000803e3d6000fd5b5050506040513d6020811015610a0b57600080fd5b50516040518651600291889160009188916020918201918291908601908083835b60208310610a4b5780518252601f199092019160209182019101610a2c565b6001836020036101000a0380198251168184511680821785525050505050509050018367ffffffffffffffff191667ffffffffffffffff1916815260180182815260200193505050506040516020818303038152906040526040518082805190602001908083835b60208310610ad25780518252601f199092019160209182019101610ab3565b51815160209384036101000a60001901801990921691161790526040519190930194509192505080830381855afa158015610b11573d6000803e3d6000fd5b5050506040513d6020811015610b2657600080fd5b5051604080516020818101949094528082019290925280518083038201815260609092019081905281519192909182918401908083835b60208310610b7c5780518252601f199092019160209182019101610b5d565b51815160209384036101000a60001901801990921691161790526040519190930194509192505080830381855afa158015610bbb573d6000803e3d6000fd5b5050506040513d6020811015610bd057600080fd5b50519050858114610c125760405162461bcd60e51b81526004018080602001828103825260548152602001806112346054913960600191505060405180910390fd5b60205463ffffffff11610c565760405162461bcd60e51b81526004018080602001828103825260218152602001806112136021913960400191505060405180910390fd5b602080546001019081905560005b6020811015610d63578160011660011415610c96578260008260208110610c8757fe5b015550610d6695505050505050565b600260008260208110610ca557fe5b01548460405160200180838152602001828152602001925050506040516020818303038152906040526040518082805190602001908083835b60208310610cfd5780518252601f199092019160209182019101610cde565b51815160209384036101000a60001901801990921691161790526040519190930194509192505080830381855afa158015610d3c573d6000803e3d6000fd5b5050506040513d6020811015610d5157600080fd5b50519250600282049150600101610c64565b50fe5b50505050505050565b6060610d7c602054611066565b905090565b6020546000908190815b6020811015610f32578160011660011415610e6457600260008260208110610daf57fe5b01548460405160200180838152602001828152602001925050506040516020818303038152906040526040518082805190602001908083835b60208310610e075780518252601f199092019160209182019101610de8565b51815160209384036101000a60001901801990921691161790526040519190930194509192505080830381855afa158015610e46573d6000803e3d6000fd5b5050506040513d6020811015610e5b57600080fd5b50519250610f24565b60028360218360208110610e7457fe5b015460405160200180838152602001828152602001925050506040516020818303038152906040526040518082805190602001908083835b60208310610ecb5780518252601f199092019160209182019101610eac565b51815160209384036101000a60001901801990921691161790526040519190930194509192505080830381855afa158015610f0a573d6000803e3d6000fd5b5050506040513d6020811015610f1f57600080fd5b505192505b600282049150600101610d8b565b50600282610f41602054611066565b600060401b6040516020018084815260200183805190602001908083835b60208310610f7e5780518252601f199092019160209182019101610f5f565b51815160209384036101000a60001901801990921691161790527fffffffffffffffffffffffffffffffffffffffffffffffff00000000000000009590951692019182525060408051808303600719018152601890920190819052815191955093508392850191508083835b602083106110095780518252601f199092019160209182019101610fea565b51815160209384036101000a60001901801990921691161790526040519190930194509192505080830381855afa158015611048573d6000803e3d6000fd5b5050506040513d602081101561105d57600080fd5b50519250505090565b60408051600880825281830190925260609160208201818036833701905050905060c082901b8060071a60f81b826000815181106110a057fe5b60200101906001600160f81b031916908160001a9053508060061a60f81b826001815181106110cb57fe5b60200101906001600160f81b031916908160001a9053508060051a60f81b826002815181106110f657fe5b60200101906001600160f81b031916908160001a9053508060041a60f81b8260038151811061112157fe5b60200101906001600160f81b031916908160001a9053508060031a60f81b8260048151811061114c57fe5b60200101906001600160f81b031916908160001a9053508060021a60f81b8260058151811061117757fe5b60200101906001600160f81b031916908160001a9053508060011a60f81b826006815181106111a257fe5b60200101906001600160f81b031916908160001a9053508060001a60f81b826007815181106111cd57fe5b60200101906001600160f81b031916908160001a90535050919050565b600080858511156111f9578182fd5b83861115611205578182fd5b505082019391909203915056fe4465706f736974436f6e74726163743a206d65726b6c6520747265652066756c6c4465706f736974436f6e74726163743a207265636f6e7374727563746564204465706f7369744461746120646f6573206e6f74206d6174636820737570706c696564206465706f7369745f646174615f726f6f744465706f736974436f6e74726163743a20696e76616c6964207769746864726177616c5f63726564656e7469616c73206c656e6774684465706f736974436f6e74726163743a206465706f7369742076616c7565206e6f74206d756c7469706c65206f6620677765694465706f736974436f6e74726163743a20696e76616c6964207075626b6579206c656e6774684465706f736974436f6e74726163743a206465706f7369742076616c756520746f6f20686967684465706f736974436f6e74726163743a206465706f7369742076616c756520746f6f206c6f774465706f736974436f6e74726163743a20696e76616c6964207369676e6174757265206c656e677468a26469706673582212209ebb5f17ee83f95631f53ef074d6185448789f1570d9aefbb7126f594b9954b264736f6c634300060b0033",
			"opcodes": "PUSH1 0x80 PUSH1 0x40 MSTORE CALLVALUE DUP1 ISZERO PUSH2 0x10 JUMPI PUSH1 0x0 DUP1 REVERT JUMPDEST POP PUSH1 0x0 JUMPDEST PUSH1 0x1F DUP2 LT ISZERO PUSH2 0x102 JUMPI PUSH1 0x2 PUSH1 0x21 DUP3 PUSH1 0x20 DUP2 LT PUSH2 0x2C JUMPI INVALID JUMPDEST ADD SLOAD PUSH1 0x21 DUP4 PUSH1 0x20 DUP2 LT PUSH2 0x3B JUMPI INVALID JUMPDEST ADD SLOAD PUSH1 0x40 MLOAD PUSH1 0x20 ADD DUP1 DUP4 DUP2 MSTORE PUSH1 0x20 ADD DUP3 DUP2 MSTORE PUSH1 0x20 ADD SWAP3 POP POP POP PUSH1 0x40 MLOAD PUSH1 0x20 DUP2 DUP4 SUB SUB DUP2 MSTORE SWAP1 PUSH1 0x40 MSTORE PUSH1 0x40 MLOAD DUP1 DUP3 DUP1 MLOAD SWAP1 PUSH1 0x20 ADD SWAP1 DUP1 DUP4 DUP4 JUMPDEST PUSH1 0x20 DUP4 LT PUSH2 0x92 JUMPI DUP1 MLOAD DUP3 MSTORE PUSH1 0x1F NOT SWAP1 SWAP3 ADD SWAP2 PUSH1 0x20 SWAP2 DUP3 ADD SWAP2 ADD PUSH2 0x73 JUMP JUMPDEST MLOAD DUP2 MLOAD PUSH1 0x20 SWAP4 DUP5 SUB PUSH2 0x100 EXP PUSH1 0x0 NOT ADD DUP1 NOT SWAP1 SWAP3 AND SWAP2 AND OR SWAP1 MSTORE PUSH1 0x40 MLOAD SWAP2 SWAP1 SWAP4 ADD SWAP5 POP SWAP2 SWAP3 POP POP DUP1 DUP4 SUB DUP2 DUP6 GAS STATICCALL ISZERO DUP1 ISZERO PUSH2 0xD1 JUMPI RETURNDATASIZE PUSH1 0x0 DUP1 RETURNDATACOPY RETURNDATASIZE PUSH1 0x0 REVERT JUMPDEST POP POP POP PUSH1 0x40 MLOAD RETURNDATASIZE PUSH1 0x20 DUP2 LT ISZERO PUSH2 0xE6 JUMPI PUSH1 0x0 DUP1 REVERT JUMPDEST POP MLOAD PUSH1 0x21 PUSH1 0x1 DUP4 ADD PUSH1 0x20 DUP2 LT PUSH2 0xF8 JUMPI INVALID JUMPDEST ADD SSTORE PUSH1 0x1 ADD PUSH2 0x14 JUMP JUMPDEST POP PUSH2 0x13C2 DUP1 PUSH2 0x112 PUSH1 0x0 CODECOPY PUSH1 0x0 RETURN INVALID PUSH1 0x80 PUSH1 0x40 MSTORE PUSH1 0x4 CALLDATASIZE LT PUSH2 0x3F JUMPI PUSH1 0x0 CALLDATALOAD PUSH1 0xE0 SHR DUP1 PUSH4 0x1FFC9A7 EQ PUSH2 0x44 JUMPI DUP1 PUSH4 0x22895118 EQ PUSH2 0xA4 JUMPI DUP1 PUSH4 0x621FD130 EQ PUSH2 0x1BA JUMPI DUP1 PUSH4 0xC5F2892F EQ PUSH2 0x244 JUMPI JUMPDEST PUSH1 0x0 DUP1 REVERT JUMPDEST CALLVALUE DUP1 ISZERO PUSH2 0x50 JUMPI PUSH1 0x0 DUP1 REVERT JUMPDEST POP PUSH2 0x90 PUSH1 0x4 DUP1 CALLDATASIZE SUB PUSH1 0x20 DUP2 LT ISZERO PUSH2 0x67 JUMPI PUSH1 0x0 DUP1 REVERT JUMPDEST POP CALLDATALOAD PUSH32 0xFFFFFFFF00000000000000000000000000000000000000000000000000000000 AND PUSH2 0x26B JUMP JUMPDEST PUSH1 0x40 DUP1 MLOAD SWAP2 ISZERO ISZERO DUP3 MSTORE MLOAD SWAP1 DUP2 SWAP1 SUB PUSH1 0x20 ADD SWAP1 RETURN JUMPDEST PUSH2 0x1B8 PUSH1 0x4 DUP1 CALLDATASIZE SUB PUSH1 0x80 DUP2 LT ISZERO PUSH2 0xBA JUMPI PUSH1 0x0 DUP1 REVERT JUMPDEST DUP2 ADD SWAP1 PUSH1 0x20 DUP2 ADD DUP2 CALLDATALOAD PUSH5 0x100000000 DUP2 GT ISZERO PUSH2 0xD5 JUMPI PUSH1 0x0 DUP1 REVERT JUMPDEST DUP3 ADD DUP4 PUSH1 0x20 DUP3 ADD GT ISZERO PUSH2 0xE7 JUMPI PUSH1 0x0 DUP1 REVERT JUMPDEST DUP1 CALLDATALOAD SWAP1 PUSH1 0x20 ADD SWAP2 DUP5 PUSH1 0x1 DUP4 MUL DUP5 ADD GT PUSH5 0x100000000 DUP4 GT OR ISZERO PUSH2 0x109 JUMPI PUSH1 0x0 DUP1 REVERT JUMPDEST SWAP2 SWAP4 SWAP1 SWAP3 SWAP1 SWAP2 PUSH1 0x20 DUP2 ADD SWAP1 CALLDATALOAD PUSH5 0x100000000 DUP2 GT ISZERO PUSH2 0x127 JUMPI PUSH1 0x0 DUP1 REVERT JUMPDEST DUP3 ADD DUP4 PUSH1 0x20 DUP3 ADD GT ISZERO PUSH2 0x139 JUMPI PUSH1 0x0 DUP1 REVERT JUMPDEST DUP1 CALLDATALOAD SWAP1 PUSH1 0x20 ADD SWAP2 DUP5 PUSH1 0x1 DUP4 MUL DUP5 ADD GT PUSH5 0x100000000 DUP4 GT OR ISZERO PUSH2 0x15B JUMPI PUSH1 0x0 DUP1 REVERT JUMPDEST SWAP2 SWAP4 SWAP1 SWAP3 SWAP1 SWAP2 PUSH1 0x20 DUP2 ADD SWAP1 CALLDATALOAD PUSH5 0x100000000 DUP2 GT ISZERO PUSH2 0x179 JUMPI PUSH1 0x0 DUP1 REVERT JUMPDEST DUP3 ADD DUP4 PUSH1 0x20 DUP3 ADD GT ISZERO PUSH2 0x18B JUMPI PUSH1 0x0 DUP1 REVERT JUMPDEST DUP1 CALLDATALOAD SWAP1 PUSH1 0x20 ADD SWAP2 DUP5 PUSH1 0x1 DUP4 MUL DUP5 ADD GT PUSH5 0x100000000 DUP4 GT OR ISZERO PUSH2 0x1AD JUMPI PUSH1 0x0 DUP1 REVERT JUMPDEST SWAP2 SWAP4 POP SWAP2 POP CALLDATALOAD PUSH2 0x304 JUMP JUMPDEST STOP JUMPDEST CALLVALUE DUP1 ISZERO PUSH2 0x1C6 JUMPI PUSH1 0x0 DUP1 REVERT JUMPDEST POP PUSH2 0x1CF PUSH2 0xD6F JUMP JUMPDEST PUSH1 0x40 DUP1 MLOAD PUSH1 0x20 DUP1 DUP3 MSTORE DUP4 MLOAD DUP2 DUP4 ADD MSTORE DUP4 MLOAD SWAP2 SWAP3 DUP4 SWAP3 SWAP1 DUP4 ADD SWAP2 DUP6 ADD SWAP1 DUP1 DUP4 DUP4 PUSH1 0x0 JUMPDEST DUP4 DUP2 LT ISZERO PUSH2 0x209 JUMPI DUP2 DUP2 ADD MLOAD DUP4 DUP3 ADD MSTORE PUSH1 0x20 ADD PUSH2 0x1F1 JUMP JUMPDEST POP POP POP POP SWAP1 POP SWAP1 DUP2 ADD SWAP1 PUSH1 0x1F AND DUP1 ISZERO PUSH2 0x236 JUMPI DUP1 DUP3 SUB DUP1 MLOAD PUSH1 0x1 DUP4 PUSH1 0x20 SUB PUSH2 0x100 EXP SUB NOT AND DUP2 MSTORE PUSH1 0x20 ADD SWAP2 POP JUMPDEST POP SWAP3 POP POP POP PUSH1 0x40 MLOAD DUP1 SWAP2 SUB SWAP1 RETURN JUMPDEST CALLVALUE DUP1 ISZERO PUSH2 0x250 JUMPI PUSH1 0x0 DUP1 REVERT JUMPDEST POP PUSH2 0x259 PUSH2 0xD81 JUMP JUMPDEST PUSH1 0x40 DUP1 MLOAD SWAP2 DUP3 MSTORE MLOAD SWAP1 DUP2 SWAP1 SUB PUSH1 0x20 ADD SWAP1 RETURN JUMPDEST PUSH1 0x0 PUSH32 0xFFFFFFFF00000000000000000000000000000000000000000000000000000000 DUP3 AND PUSH32 0x1FFC9A700000000000000000000000000000000000000000000000000000000 EQ DUP1 PUSH2 0x2FE JUMPI POP PUSH32 0xFFFFFFFF00000000000000000000000000000000000000000000000000000000 DUP3 AND PUSH32 0x8564090700000000000000000000000000000000000000000000000000000000 EQ JUMPDEST SWAP3 SWAP2 POP POP JUMP JUMPDEST PUSH1 0x30 DUP7 EQ PUSH2 0x343 JUMPI PUSH1 0x40 MLOAD PUSH3 0x461BCD PUSH1 0xE5 SHL DUP2 MSTORE PUSH1 0x4 ADD DUP1 DUP1 PUSH1 0x20 ADD DUP3 DUP2 SUB DUP3 MSTORE PUSH1 0x26 DUP2 MSTORE PUSH1 0x20 ADD DUP1 PUSH2 0x12F1 PUSH1 0x26 SWAP2 CODECOPY PUSH1 0x40 ADD SWAP2 POP POP PUSH1 0x40 MLOAD DUP1 SWAP2 SUB SWAP1 REVERT JUMPDEST PUSH1 0x20 DUP5 EQ PUSH2 0x382 JUMPI PUSH1 0x40 MLOAD PUSH3 0x461BCD PUSH1 0xE5 SHL DUP2 MSTORE PUSH1 0x4 ADD DUP1 DUP1 PUSH1 0x20 ADD DUP3 DUP2 SUB DUP3 MSTORE PUSH1 0x36 DUP2 MSTORE PUSH1 0x20 ADD DUP1 PUSH2 0x1288 PUSH1 0x36 SWAP2 CODECOPY PUSH1 0x40 ADD SWAP2 POP POP PUSH1 0x40 MLOAD DUP1 SWAP2 SUB SWAP1 REVERT JUMPDEST PUSH1 0x60 DUP3 EQ PUSH2 0x3C1 JUMPI PUSH1 0x40 MLOAD PUSH3 0x461BCD PUSH1 0xE5 SHL DUP2 MSTORE PUSH1 0x4 ADD DUP1 DUP1 PUSH1 0x20 ADD DUP3 DUP2 SUB DUP3 MSTORE PUSH1 0x29 DUP2 MSTORE PUSH1 0x20 ADD DUP1 PUSH2 0x1364 PUSH1 0x29 SWAP2 CODECOPY PUSH1 0x40 ADD SWAP2 POP POP PUSH1 0x40 MLOAD DUP1 SWAP2 SUB SWAP1 REVERT JUMPDEST PUSH8 0xDE0B6B3A7640000 CALLVALUE LT ISZERO PUSH2 0x408 JUMPI PUSH1 0x40 MLOAD PUSH3 0x461BCD PUSH1 0xE5 SHL DUP2 MSTORE PUSH1 0x4 ADD DUP1 DUP1 PUSH1 0x20 ADD DUP3 DUP2 SUB DUP3 MSTORE PUSH1 0x26 DUP2 MSTORE PUSH1 0x20 ADD DUP1 PUSH2 0x133E PUSH1 0x26 SWAP2 CODECOPY PUSH1 0x40 ADD SWAP2 POP POP PUSH1 0x40 MLOAD DUP1 SWAP2 SUB SWAP1 REVERT JUMPDEST PUSH4 0x3B9ACA00 CALLVALUE MOD ISZERO PUSH2 0x44B JUMPI PUSH1 0x40 MLOAD PUSH3 0x461BCD PUSH1 0xE5 SHL DUP2 MSTORE PUSH1 0x4 ADD DUP1 DUP1 PUSH1 0x20 ADD DUP3 DUP2 SUB DUP3 MSTORE PUSH1 0x33 DUP2 MSTORE PUSH1 0x20 ADD DUP1 PUSH2 0x12BE PUSH1 0x33 SWAP2 CODECOPY PUSH1 0x40 ADD SWAP2 POP POP PUSH1 0x40 MLOAD DUP1 SWAP2 SUB SWAP1 REVERT JUMPDEST PUSH4 0x3B9ACA00 CALLVALUE DIV PUSH8 0xFFFFFFFFFFFFFFFF DUP2 GT ISZERO PUSH2 0x499 JUMPI PUSH1 0x40 MLOAD PUSH3 0x461BCD PUSH1 0xE5 SHL DUP2 MSTORE PUSH1 0x4 ADD DUP1 DUP1 PUSH1 0x20 ADD DUP3 DUP2 SUB DUP3 MSTORE PUSH1 0x27 DUP2 MSTORE PUSH1 0x20 ADD DUP1 PUSH2 0x1317 PUSH1 0x27 SWAP2 CODECOPY PUSH1 0x40 ADD SWAP2 POP POP PUSH1 0x40 MLOAD DUP1 SWAP2 SUB SWAP1 REVERT JUMPDEST PUSH1 0x60 PUSH2 0x4A4 DUP3 PUSH2 0x1066 JUMP JUMPDEST SWAP1 POP PUSH32 0x649BBC62D0E31342AFEA4E5CD82D4049E7E1EE912FC0889AA790803BE39038C5 DUP10 DUP10 DUP10 DUP10 DUP6 DUP11 DUP11 PUSH2 0x4D9 PUSH1 0x20 SLOAD PUSH2 0x1066 JUMP JUMPDEST PUSH1 0x40 DUP1 MLOAD PUSH1 0xA0 DUP1 DUP3 MSTORE DUP2 ADD DUP10 SWAP1 MSTORE SWAP1 DUP2 SWAP1 PUSH1 0x20 DUP3 ADD SWAP1 DUP3 ADD PUSH1 0x60 DUP4 ADD PUSH1 0x80 DUP5 ADD PUSH1 0xC0 DUP6 ADD DUP15 DUP15 DUP1 DUP3 DUP5 CALLDATACOPY PUSH1 0x0 DUP4 DUP3 ADD MSTORE PUSH1 0x1F ADD PUSH1 0x1F NOT AND SWAP1 SWAP2 ADD DUP8 DUP2 SUB DUP7 MSTORE DUP13 DUP2 MSTORE PUSH1 0x20 ADD SWAP1 POP DUP13 DUP13 DUP1 DUP3 DUP5 CALLDATACOPY PUSH1 0x0 DUP4 DUP3 ADD DUP2 SWAP1 MSTORE PUSH1 0x1F SWAP1 SWAP2 ADD PUSH1 0x1F NOT AND SWAP1 SWAP3 ADD DUP9 DUP2 SUB DUP7 MSTORE DUP13 MLOAD DUP2 MSTORE DUP13 MLOAD PUSH1 0x20 SWAP2 DUP3 ADD SWAP4 SWAP2 DUP15 ADD SWAP3 POP SWAP1 DUP2 SWAP1 DUP5 SWAP1 DUP5 SWAP1 JUMPDEST DUP4 DUP2 LT ISZERO PUSH2 0x570 JUMPI DUP2 DUP2 ADD MLOAD DUP4 DUP3 ADD MSTORE PUSH1 0x20 ADD PUSH2 0x558 JUMP JUMPDEST POP POP POP POP SWAP1 POP SWAP1 DUP2 ADD SWAP1 PUSH1 0x1F AND DUP1 ISZERO PUSH2 0x59D JUMPI DUP1 DUP3 SUB DUP1 MLOAD PUSH1 0x1 DUP4 PUSH1 0x20 SUB PUSH2 0x100 EXP SUB NOT AND DUP2 MSTORE PUSH1 0x20 ADD SWAP2 POP JUMPDEST POP DUP7 DUP2 SUB DUP4 MSTORE DUP9 DUP2 MSTORE PUSH1 0x20 ADD DUP10 DUP10 DUP1 DUP3 DUP5 CALLDATACOPY PUSH1 0x0 DUP4 DUP3 ADD DUP2 SWAP1 MSTORE PUSH1 0x1F SWAP1 SWAP2 ADD PUSH1 0x1F NOT AND SWAP1 SWAP3 ADD DUP9 DUP2 SUB DUP5 MSTORE DUP10 MLOAD DUP2 MSTORE DUP10 MLOAD PUSH1 0x20 SWAP2 DUP3 ADD SWAP4 SWAP2 DUP12 ADD SWAP3 POP SWAP1 DUP2 SWAP1 DUP5 SWAP1 DUP5 SWAP1 JUMPDEST DUP4 DUP2 LT ISZERO PUSH2 0x5F9 JUMPI DUP2 DUP2 ADD MLOAD DUP4 DUP3 ADD MSTORE PUSH1 0x20 ADD PUSH2 0x5E1 JUMP JUMPDEST POP POP POP POP SWAP1 POP SWAP1 DUP2 ADD SWAP1 PUSH1 0x1F AND DUP1 ISZERO PUSH2 0x626 JUMPI DUP1 DUP3 SUB DUP1 MLOAD PUSH1 0x1 DUP4 PUSH1 0x20 SUB PUSH2 0x100 EXP SUB NOT AND DUP2 MSTORE PUSH1 0x20 ADD SWAP2 POP JUMPDEST POP SWAP14 POP POP POP POP POP POP POP POP POP POP POP POP POP POP PUSH1 0x40 MLOAD DUP1 SWAP2 SUB SWAP1 LOG1 PUSH1 0x0 PUSH1 0x2 DUP11 DUP11 PUSH1 0x0 PUSH1 0x80 SHL PUSH1 0x40 MLOAD PUSH1 0x20 ADD DUP1 DUP5 DUP5 DUP1 DUP3 DUP5 CALLDATACOPY PUSH32 0xFFFFFFFFFFFFFFFFFFFFFFFFFFFFFFFF00000000000000000000000000000000 SWAP1 SWAP5 AND SWAP2 SWAP1 SWAP4 ADD SWAP1 DUP2 MSTORE PUSH1 0x40 DUP1 MLOAD PUSH1 0xF NOT DUP2 DUP5 SUB ADD DUP2 MSTORE PUSH1 0x10 SWAP1 SWAP3 ADD SWAP1 DUP2 SWAP1 MSTORE DUP2 MLOAD SWAP2 SWAP6 POP SWAP4 POP DUP4 SWAP3 POP PUSH1 0x20 DUP6 ADD SWAP2 POP DUP1 DUP4 DUP4 JUMPDEST PUSH1 0x20 DUP4 LT PUSH2 0x6CA JUMPI DUP1 MLOAD DUP3 MSTORE PUSH1 0x1F NOT SWAP1 SWAP3 ADD SWAP2 PUSH1 0x20 SWAP2 DUP3 ADD SWAP2 ADD PUSH2 0x6AB JUMP JUMPDEST MLOAD DUP2 MLOAD PUSH1 0x20 SWAP4 DUP5 SUB PUSH2 0x100 EXP PUSH1 0x0 NOT ADD DUP1 NOT SWAP1 SWAP3 AND SWAP2 AND OR SWAP1 MSTORE PUSH1 0x40 MLOAD SWAP2 SWAP1 SWAP4 ADD SWAP5 POP SWAP2 SWAP3 POP POP DUP1 DUP4 SUB DUP2 DUP6 GAS STATICCALL ISZERO DUP1 ISZERO PUSH2 0x709 JUMPI RETURNDATASIZE PUSH1 0x0 DUP1 RETURNDATACOPY RETURNDATASIZE PUSH1 0x0 REVERT JUMPDEST POP POP POP PUSH1 0x40 MLOAD RETURNDATASIZE PUSH1 0x20 DUP2 LT ISZERO PUSH2 0x71E JUMPI PUSH1 0x0 DUP1 REVERT JUMPDEST POP MLOAD SWAP1 POP PUSH1 0x0 PUSH1 0x2 DUP1 PUSH2 0x734 PUSH1 0x40 DUP5 DUP11 DUP13 PUSH2 0x11EA JUMP JUMPDEST PUSH1 0x40 MLOAD PUSH1 0x20 ADD DUP1 DUP4 DUP4 DUP1 DUP3 DUP5 CALLDATACOPY DUP1 DUP4 ADD SWAP3 POP POP POP SWAP3 POP POP POP PUSH1 0x40 MLOAD PUSH1 0x20 DUP2 DUP4 SUB SUB DUP2 MSTORE SWAP1 PUSH1 0x40 MSTORE PUSH1 0x40 MLOAD DUP1 DUP3 DUP1 MLOAD SWAP1 PUSH1 0x20 ADD SWAP1 DUP1 DUP4 DUP4 JUMPDEST PUSH1 0x20 DUP4 LT PUSH2 0x78A JUMPI DUP1 MLOAD DUP3 MSTORE PUSH1 0x1F NOT SWAP1 SWAP3 ADD SWAP2 PUSH1 0x20 SWAP2 DUP3 ADD SWAP2 ADD PUSH2 0x76B JUMP JUMPDEST MLOAD DUP2 MLOAD PUSH1 0x20 SWAP4 DUP5 SUB PUSH2 0x100 EXP PUSH1 0x0 NOT ADD DUP1 NOT SWAP1 SWAP3 AND SWAP2 AND OR SWAP1 MSTORE PUSH1 0x40 MLOAD SWAP2 SWAP1 SWAP4 ADD SWAP5 POP SWAP2 SWAP3 POP POP DUP1 DUP4 SUB DUP2 DUP6 GAS STATICCALL ISZERO DUP1 ISZERO PUSH2 0x7C9 JUMPI RETURNDATASIZE PUSH1 0x0 DUP1 RETURNDATACOPY RETURNDATASIZE PUSH1 0x0 REVERT JUMPDEST POP POP POP PUSH1 0x40 MLOAD RETURNDATASIZE PUSH1 0x20 DUP2 LT ISZERO PUSH2 0x7DE JUMPI PUSH1 0x0 DUP1 REVERT JUMPDEST POP MLOAD PUSH1 0x2 PUSH2 0x7EF DUP10 PUSH1 0x40 DUP2 DUP14 PUSH2 0x11EA JUMP JUMPDEST PUSH1 0x40 MLOAD PUSH1 0x0 SWAP1 PUSH1 0x20 ADD DUP1 DUP5 DUP5 DUP1 DUP3 DUP5 CALLDATACOPY SWAP2 SWAP1 SWAP2 ADD SWAP3 DUP4 MSTORE POP POP PUSH1 0x40 DUP1 MLOAD DUP1 DUP4 SUB DUP2 MSTORE PUSH1 0x20 SWAP3 DUP4 ADD SWAP2 DUP3 SWAP1 MSTORE DUP1 MLOAD SWAP1 SWAP5 POP SWAP1 SWAP3 POP DUP3 SWAP2 DUP5 ADD SWAP1 DUP1 DUP4 DUP4 JUMPDEST PUSH1 0x20 DUP4 LT PUSH2 0x84A JUMPI DUP1 MLOAD DUP3 MSTORE PUSH1 0x1F NOT SWAP1 SWAP3 ADD SWAP2 PUSH1 0x20 SWAP2 DUP3 ADD SWAP2 ADD PUSH2 0x82B JUMP JUMPDEST MLOAD DUP2 MLOAD PUSH1 0x20 SWAP4 DUP5 SUB PUSH2 0x100 EXP PUSH1 0x0 NOT ADD DUP1 NOT SWAP1 SWAP3 AND SWAP2 AND OR SWAP1 MSTORE PUSH1 0x40 MLOAD SWAP2 SWAP1 SWAP4 ADD SWAP5 POP SWAP2 SWAP3 POP POP DUP1 DUP4 SUB DUP2 DUP6 GAS STATICCALL ISZERO DUP1 ISZERO PUSH2 0x889 JUMPI RETURNDATASIZE PUSH1 0x0 DUP1 RETURNDATACOPY RETURNDATASIZE PUSH1 0x0 REVERT JUMPDEST POP POP POP PUSH1 0x40 MLOAD RETURNDATASIZE PUSH1 0x20 DUP2 LT ISZERO PUSH2 0x89E JUMPI PUSH1 0x0 DUP1 REVERT JUMPDEST POP MLOAD PUSH1 0x40 DUP1 MLOAD PUSH1 0x20 DUP2 DUP2 ADD SWAP5 SWAP1 SWAP5 MSTORE DUP1 DUP3 ADD SWAP3 SWAP1 SWAP3 MSTORE DUP1 MLOAD DUP1 DUP4 SUB DUP3 ADD DUP2 MSTORE PUSH1 0x60 SWAP1 SWAP3 ADD SWAP1 DUP2 SWAP1 MSTORE DUP2 MLOAD SWAP2 SWAP3 SWAP1 SWAP2 DUP3 SWAP2 DUP5 ADD SWAP1 DUP1 DUP4 DUP4 JUMPDEST PUSH1 0x20 DUP4 LT PUSH2 0x8F4 JUMPI DUP1 MLOAD DUP3 MSTORE PUSH1 0x1F NOT SWAP1 SWAP3 ADD SWAP2 PUSH1 0x20 SWAP2 DUP3 ADD SWAP2 ADD PUSH2 0x8D5 JUMP JUMPDEST MLOAD DUP2 MLOAD PUSH1 0x20 SWAP4 DUP5 SUB PUSH2 0x100 EXP PUSH1 0x0 NOT ADD DUP1 NOT SWAP1 SWAP3 AND SWAP2 AND OR SWAP1 MSTORE PUSH1 0x40 MLOAD SWAP2 SWAP1 SWAP4 ADD SWAP5 POP SWAP2 SWAP3 POP POP DUP1 DUP4 SUB DUP2 DUP6 GAS STATICCALL ISZERO DUP1 ISZERO PUSH2 0x933 JUMPI RETURNDATASIZE PUSH1 0x0 DUP1 RETURNDATACOPY RETURNDATASIZE PUSH1 0x0 REVERT JUMPDEST POP POP POP PUSH1 0x40 MLOAD RETURNDATASIZE PUSH1 0x20 DUP2 LT ISZERO PUSH2 0x948 JUMPI PUSH1 0x0 DUP1 REVERT JUMPDEST POP MLOAD PUSH1 0x40 DUP1 MLOAD PUSH1 0x20 DUP2 ADD DUP6 DUP2 MSTORE SWAP3 SWAP4 POP PUSH1 0x0 SWAP3 PUSH1 0x2 SWAP3 DUP4 SWAP3 DUP8 SWAP3 DUP16 SWAP3 DUP16 SWAP3 ADD DUP4 DUP4 DUP1 DUP3 DUP5 CALLDATACOPY DUP1 DUP4 ADD SWAP3 POP POP POP SWAP4 POP POP POP POP PUSH1 0x40 MLOAD PUSH1 0x20 DUP2 DUP4 SUB SUB DUP2 MSTORE SWAP1 PUSH1 0x40 MSTORE PUSH1 0x40 MLOAD DUP1 DUP3 DUP1 MLOAD SWAP1 PUSH1 0x20 ADD SWAP1 DUP1 DUP4 DUP4 JUMPDEST PUSH1 0x20 DUP4 LT PUSH2 0x9B7 JUMPI DUP1 MLOAD DUP3 MSTORE PUSH1 0x1F NOT SWAP1 SWAP3 ADD SWAP2 PUSH1 0x20 SWAP2 DUP3 ADD SWAP2 ADD PUSH2 0x998 JUMP JUMPDEST MLOAD DUP2 MLOAD PUSH1 0x20 SWAP4 DUP5 SUB PUSH2 0x100 EXP PUSH1 0x0 NOT ADD DUP1 NOT SWAP1 SWAP3 AND SWAP2 AND OR SWAP1 MSTORE PUSH1 0x40 MLOAD SWAP2 SWAP1 SWAP4 ADD SWAP5 POP SWAP2 SWAP3 POP POP DUP1 DUP4 SUB DUP2 DUP6 GAS STATICCALL ISZERO DUP1 ISZERO PUSH2 0x9F6 JUMPI RETURNDATASIZE PUSH1 0x0 DUP1 RETURNDATACOPY RETURNDATASIZE PUSH1 0x0 REVERT JUMPDEST POP POP POP PUSH1 0x40 MLOAD RETURNDATASIZE PUSH1 0x20 DUP2 LT ISZERO PUSH2 0xA0B JUMPI PUSH1 0x0 DUP1 REVERT JUMPDEST POP MLOAD PUSH1 0x40 MLOAD DUP7 MLOAD PUSH1 0x2 SWAP2 DUP9 SWAP2 PUSH1 0x0 SWAP2 DUP9 SWAP2 PUSH1 0x20 SWAP2 DUP3 ADD SWAP2 DUP3 SWAP2 SWAP1 DUP7 ADD SWAP1 DUP1 DUP4 DUP4 JUMPDEST PUSH1 0x20 DUP4 LT PUSH2 0xA4B JUMPI DUP1 MLOAD DUP3 MSTORE PUSH1 0x1F NOT SWAP1 SWAP3 ADD SWAP2 PUSH1 0x20 SWAP2 DUP3 ADD SWAP2 ADD PUSH2 0xA2C JUMP JUMPDEST PUSH1 0x1 DUP4 PUSH1 0x20 SUB PUSH2 0x100 EXP SUB DUP1 NOT DUP3 MLOAD AND DUP2 DUP5 MLOAD AND DUP1 DUP3 OR DUP6 MSTORE POP POP POP POP POP POP SWAP1 POP ADD DUP4 PUSH8 0xFFFFFFFFFFFFFFFF NOT AND PUSH8 0xFFFFFFFFFFFFFFFF NOT AND DUP2 MSTORE PUSH1 0x18 ADD DUP3 DUP2 MSTORE PUSH1 0x20 ADD SWAP4 POP POP POP POP PUSH1 0x40 MLOAD PUSH1 0x20 DUP2 DUP4 SUB SUB DUP2 MSTORE SWAP1 PUSH1 0x40 MSTORE PUSH1 0x40 MLOAD DUP1 DUP3 DUP1 MLOAD SWAP1 PUSH1 0x20 ADD SWAP1 DUP1 DUP4 DUP4 JUMPDEST PUSH1 0x20 DUP4 LT PUSH2 0xAD2 JUMPI DUP1 MLOAD DUP3 MSTORE PUSH1 0x1F NOT SWAP1 SWAP3 ADD SWAP2 PUSH1 0x20 SWAP2 DUP3 ADD SWAP2 ADD PUSH2 0xAB3 JUMP JUMPDEST MLOAD DUP2 MLOAD PUSH1 0x20 SWAP4 DUP5 SUB PUSH2 0x100 EXP PUSH1 0x0 NOT ADD DUP1 NOT SWAP1 SWAP3 AND SWAP2 AND OR SWAP1 MSTORE PUSH1 0x40 MLOAD SWAP2 SWAP1 SWAP4 ADD SWAP5 POP SWAP2 SWAP3 POP POP DUP1 DUP4 SUB DUP2 DUP6 GAS STATICCALL ISZERO DUP1 ISZERO PUSH2 0xB11 JUMPI RETURNDATASIZE PUSH1 0x0 DUP1 RETURNDATACOPY RETURNDATASIZE PUSH1 0x0 REVERT JUMPDEST POP POP POP PUSH1 0x40 MLOAD RETURNDATASIZE PUSH1 0x20 DUP2 LT ISZERO PUSH2 0xB26 JUMPI PUSH1 0x0 DUP1 REVERT JUMPDEST POP MLOAD PUSH1 0x40 DUP1 MLOAD PUSH1 0x20 DUP2 DUP2 ADD SWAP5 SWAP1 SWAP5 MSTORE DUP1 DUP3 ADD SWAP3 SWAP1 SWAP3 MSTORE DUP1 MLOAD DUP1 DUP4 SUB DUP3 ADD DUP2 MSTORE PUSH1 0x60 SWAP1 SWAP3 ADD SWAP1 DUP2 SWAP1 MSTORE DUP2 MLOAD SWAP2 SWAP3 SWAP1 SWAP2 DUP3 SWAP2 DUP5 ADD SWAP1 DUP1 DUP4 DUP4 JUMPDEST PUSH1 0x20 DUP4 LT PUSH2 0xB7C JUMPI DUP1 MLOAD DUP3 MSTORE PUSH1 0x1F NOT SWAP1 SWAP3 ADD SWAP2 PUSH1 0x20 SWAP2 DUP3 ADD SWAP2 ADD PUSH2 0xB5D JUMP JUMPDEST MLOAD DUP2 MLOAD PUSH1 0x20 SWAP4 DUP5 SUB PUSH2 0x100 EXP PUSH1 0x0 NOT ADD DUP1 NOT SWAP1 SWAP3 AND SWAP2 AND OR SWAP1 MSTORE PUSH1 0x40 MLOAD SWAP2 SWAP1 SWAP4 ADD SWAP5 POP SWAP2 SWAP3 POP POP DUP1 DUP4 SUB DUP2 DUP6 GAS STATICCALL ISZERO DUP1 ISZERO PUSH2 0xBBB JUMPI RETURNDATASIZE PUSH1 0x0 DUP1 RETURNDATACOPY RETURNDATASIZE PUSH1 0x0 REVERT JUMPDEST POP POP POP PUSH1 0x40 MLOAD RETURNDATASIZE PUSH1 0x20 DUP2 LT ISZERO PUSH2 0xBD0 JUMPI PUSH1 0x0 DUP1 REVERT JUMPDEST POP MLOAD SWAP1 POP DUP6 DUP2 EQ PUSH2 0xC12 JUMPI PUSH1 0x40 MLOAD PUSH3 0x461BCD PUSH1 0xE5 SHL DUP2 MSTORE PUSH1 0x4 ADD DUP1 DUP1 PUSH1 0x20 ADD DUP3 DUP2 SUB DUP3 MSTORE PUSH1 0x54 DUP2 MSTORE PUSH1 0x20 ADD DUP1 PUSH2 0x1234 PUSH1 0x54 SWAP2 CODECOPY PUSH1 0x60 ADD SWAP2 POP POP PUSH1 0x40 MLOAD DUP1 SWAP2 SUB SWAP1 REVERT JUMPDEST PUSH1 0x20 SLOAD PUSH4 0xFFFFFFFF GT PUSH2 0xC56 JUMPI PUSH1 0x40 MLOAD PUSH3 0x461BCD PUSH1 0xE5 SHL DUP2 MSTORE PUSH1 0x4 ADD DUP1 DUP1 PUSH1 0x20 ADD DUP3 DUP2 SUB DUP3 MSTORE PUSH1 0x21 DUP2 MSTORE PUSH1 0x20 ADD DUP1 PUSH2 0x1213 PUSH1 0x21 SWAP2 CODECOPY PUSH1 0x40 ADD SWAP2 POP POP PUSH1 0x40 MLOAD DUP1 SWAP2 SUB SWAP1 REVERT JUMPDEST PUSH1 0x20 DUP1 SLOAD PUSH1 0x1 ADD SWAP1 DUP2 SWAP1 SSTORE PUSH1 0x0 JUMPDEST PUSH1 0x20 DUP2 LT ISZERO PUSH2 0xD63 JUMPI DUP2 PUSH1 0x1 AND PUSH1 0x1 EQ ISZERO PUSH2 0xC96 JUMPI DUP3 PUSH1 0x0 DUP3 PUSH1 0x20 DUP2 LT PUSH2 0xC87 JUMPI INVALID JUMPDEST ADD SSTORE POP PUSH2 0xD66 SWAP6 POP POP POP POP POP POP JUMP JUMPDEST PUSH1 0x2 PUSH1 0x0 DUP3 PUSH1 0x20 DUP2 LT PUSH2 0xCA5 JUMPI INVALID JUMPDEST ADD SLOAD DUP5 PUSH1 0x40 MLOAD PUSH1 0x20 ADD DUP1 DUP4 DUP2 MSTORE PUSH1 0x20 ADD DUP3 DUP2 MSTORE PUSH1 0x20 ADD SWAP3 POP POP POP PUSH1 0x40 MLOAD PUSH1 0x20 DUP2 DUP4 SUB SUB DUP2 MSTORE SWAP1 PUSH1 0x40 MSTORE PUSH1 0x40 MLOAD DUP1 DUP3 DUP1 MLOAD SWAP1 PUSH1 0x20 ADD SWAP1 DUP1 DUP4 DUP4 JUMPDEST PUSH1 0x20 DUP4 LT PUSH2 0xCFD JUMPI DUP1 MLOAD DUP3 MSTORE PUSH1 0x1F NOT SWAP1 SWAP3 ADD SWAP2 PUSH1 0x20 SWAP2 DUP3 ADD SWAP2 ADD PUSH2 0xCDE JUMP JUMPDEST MLOAD DUP2 MLOAD PUSH1 0x20 SWAP4 DUP5 SUB PUSH2 0x100 EXP PUSH1 0x0 NOT ADD DUP1 NOT SWAP1 SWAP3 AND SWAP2 AND OR SWAP1 MSTORE PUSH1 0x40 MLOAD SWAP2 SWAP1 SWAP4 ADD SWAP5 POP SWAP2 SWAP3 POP POP DUP1 DUP4 SUB DUP2 DUP6 GAS STATICCALL ISZERO DUP1 ISZERO PUSH2 0xD3C JUMPI RETURNDATASIZE PUSH1 0x0 DUP1 RETURNDATACOPY RETURNDATASIZE PUSH1 0x0 REVERT JUMPDEST POP POP POP PUSH1 0x40 MLOAD RETURNDATASIZE PUSH1 0x20 DUP2 LT ISZERO PUSH2 0xD51 JUMPI PUSH1 0x0 DUP1 REVERT JUMPDEST POP MLOAD SWAP3 POP PUSH1 0x2 DUP3 DIV SWAP2 POP PUSH1 0x1 ADD PUSH2 0xC64 JUMP JUMPDEST POP INVALID JUMPDEST POP POP POP POP POP POP POP JUMP JUMPDEST PUSH1 0x60 PUSH2 0xD7C PUSH1 0x20 SLOAD PUSH2 0x1066 JUMP JUMPDEST SWAP1 POP SWAP1 JUMP JUMPDEST PUSH1 0x20 SLOAD PUSH1 0x0 SWAP1 DUP2 SWAP1 DUP2 JUMPDEST PUSH1 0x20 DUP2 LT ISZERO PUSH2 0xF32 JUMPI DUP2 PUSH1 0x1 AND PUSH1 0x1 EQ ISZERO PUSH2 0xE64 JUMPI PUSH1 0x2 PUSH1 0x0 DUP3 PUSH1 0x20 DUP2 LT PUSH2 0xDAF JUMPI INVALID JUMPDEST ADD SLOAD DUP5 PUSH1 0x40 MLOAD PUSH1 0x20 ADD DUP1 DUP4 DUP2 MSTORE PUSH1 0x20 ADD DUP3 DUP2 MSTORE PUSH1 0x20 ADD SWAP3 POP POP POP PUSH1 0x40 MLOAD PUSH1 0x20 DUP2 DUP4 SUB SUB DUP2 MSTORE SWAP1 PUSH1 0x40 MSTORE PUSH1 0x40 MLOAD DUP1 DUP3 DUP1 MLOAD SWAP1 PUSH1 0x20 ADD SWAP1 DUP1 DUP4 DUP4 JUMPDEST PUSH1 0x20 DUP4 LT PUSH2 0xE07 JUMPI DUP1 MLOAD DUP3 MSTORE PUSH1 0x1F NOT SWAP1 SWAP3 ADD SWAP2 PUSH1 0x20 SWAP2 DUP3 ADD SWAP2 ADD PUSH2 0xDE8 JUMP JUMPDEST MLOAD DUP2 MLOAD PUSH1 0x20 SWAP4 DUP5 SUB PUSH2 0x100 EXP PUSH1 0x0 NOT ADD DUP1 NOT SWAP1 SWAP3 AND SWAP2 AND OR SWAP1 MSTORE PUSH1 0x40 MLOAD SWAP2 SWAP1 SWAP4 ADD SWAP5 POP SWAP2 SWAP3 POP POP DUP1 DUP4 SUB DUP2 DUP6 GAS STATICCALL ISZERO DUP1 ISZERO PUSH2 0xE46 JUMPI RETURNDATASIZE PUSH1 0x0 DUP1 RETURNDATACOPY RETURNDATASIZE PUSH1 0x0 REVERT JUMPDEST POP POP POP PUSH1 0x40 MLOAD RETURNDATASIZE PUSH1 0x20 DUP2 LT ISZERO PUSH2 0xE5B JUMPI PUSH1 0x0 DUP1 REVERT JUMPDEST POP MLOAD SWAP3 POP PUSH2 0xF24 JUMP JUMPDEST PUSH1 0x2 DUP4 PUSH1 0x21 DUP4 PUSH1 0x20 DUP2 LT PUSH2 0xE74 JUMPI INVALID JUMPDEST ADD SLOAD PUSH1 0x40 MLOAD PUSH1 0x20 ADD DUP1 DUP4 DUP2 MSTORE PUSH1 0x20 ADD DUP3 DUP2 MSTORE PUSH1 0x20 ADD SWAP3 POP POP POP PUSH1 0x40 MLOAD PUSH1 0x20 DUP2 DUP4 SUB SUB DUP2 MSTORE SWAP1 PUSH1 0x40 MSTORE PUSH1 0x40 MLOAD DUP1 DUP3 DUP1 MLOAD SWAP1 PUSH1 0x20 ADD SWAP1 DUP1 DUP4 DUP4 JUMPDEST PUSH1 0x20 DUP4 LT PUSH2 0xECB JUMPI DUP1 MLOAD DUP3 MSTORE PUSH1 0x1F NOT SWAP1 SWAP3 ADD SWAP2 PUSH1 0x20 SWAP2 DUP3 ADD SWAP2 ADD PUSH2 0xEAC JUMP JUMPDEST MLOAD DUP2 MLOAD PUSH1 0x20 SWAP4 DUP5 SUB PUSH2 0x100 EXP PUSH1 0x0 NOT ADD DUP1 NOT SWAP1 SWAP3 AND SWAP2 AND OR SWAP1 MSTORE PUSH1 0x40 MLOAD SWAP2 SWAP1 SWAP4 ADD SWAP5 POP SWAP2 SWAP3 POP POP DUP1 DUP4 SUB DUP2 DUP6 GAS STATICCALL ISZERO DUP1 ISZERO PUSH2 0xF0A JUMPI RETURNDATASIZE PUSH1 0x0 DUP1 RETURNDATACOPY RETURNDATASIZE PUSH1 0x0 REVERT JUMPDEST POP POP POP PUSH1 0x40 MLOAD RETURNDATASIZE PUSH1 0x20 DUP2 LT ISZERO PUSH2 0xF1F JUMPI PUSH1 0x0 DUP1 REVERT JUMPDEST POP MLOAD SWAP3 POP JUMPDEST PUSH1 0x2 DUP3 DIV SWAP2 POP PUSH1 0x1 ADD PUSH2 0xD8B JUMP JUMPDEST POP PUSH1 0x2 DUP3 PUSH2 0xF41 PUSH1 0x20 SLOAD PUSH2 0x1066 JUMP JUMPDEST PUSH1 0x0 PUSH1 0x40 SHL PUSH1 0x40 MLOAD PUSH1 0x20 ADD DUP1 DUP5 DUP2 MSTORE PUSH1 0x20 ADD DUP4 DUP1 MLOAD SWAP1 PUSH1 0x20 ADD SWAP1 DUP1 DUP4 DUP4 JUMPDEST PUSH1 0x20 DUP4 LT PUSH2 0xF7E JUMPI DUP1 MLOAD DUP3 MSTORE PUSH1 0x1F NOT SWAP1 SWAP3 ADD SWAP2 PUSH1 0x20 SWAP2 DUP3 ADD SWAP2 ADD PUSH2 0xF5F JUMP JUMPDEST MLOAD DUP2 MLOAD PUSH1 0x20 SWAP4 DUP5 SUB PUSH2 0x100 EXP PUSH1 0x0 NOT ADD DUP1 NOT SWAP1 SWAP3 AND SWAP2 AND OR SWAP1 MSTORE PUSH32 0xFFFFFFFFFFFFFFFFFFFFFFFFFFFFFFFFFFFFFFFFFFFFFFFF0000000000000000 SWAP6 SWAP1 SWAP6 AND SWAP3 ADD SWAP2 DUP3 MSTORE POP PUSH1 0x40 DUP1 MLOAD DUP1 DUP4 SUB PUSH1 0x7 NOT ADD DUP2 MSTORE PUSH1 0x18 SWAP1 SWAP3 ADD SWAP1 DUP2 SWAP1 MSTORE DUP2 MLOAD SWAP2 SWAP6 POP SWAP4 POP DUP4 SWAP3 DUP6 ADD SWAP2 POP DUP1 DUP4 DUP4 JUMPDEST PUSH1 0x20 DUP4 LT PUSH2 0x1009 JUMPI DUP1 MLOAD DUP3 MSTORE PUSH1 0x1F NOT SWAP1 SWAP3 ADD SWAP2 PUSH1 0x20 SWAP2 DUP3 ADD SWAP2 ADD PUSH2 0xFEA JUMP JUMPDEST MLOAD DUP2 MLOAD PUSH1 0x20 SWAP4 DUP5 SUB PUSH2 0x100 EXP PUSH1 0x0 NOT ADD DUP1 NOT SWAP1 SWAP3 AND SWAP2 AND OR SWAP1 MSTORE PUSH1 0x40 MLOAD SWAP2 SWAP1 SWAP4 ADD SWAP5 POP SWAP2 SWAP3 POP POP DUP1 DUP4 SUB DUP2 DUP6 GAS STATICCALL ISZERO DUP1 ISZERO PUSH2 0x1048 JUMPI RETURNDATASIZE PUSH1 0x0 DUP1 RETURNDATACOPY RETURNDATASIZE PUSH1 0x0 REVERT JUMPDEST POP POP POP PUSH1 0x40 MLOAD RETURNDATASIZE PUSH1 0x20 DUP2 LT ISZERO PUSH2 0x105D JUMPI PUSH1 0x0 DUP1 REVERT JUMPDEST POP MLOAD SWAP3 POP POP POP SWAP1 JUMP JUMPDEST PUSH1 0x40 DUP1 MLOAD PUSH1 0x8 DUP1 DUP3 MSTORE DUP2 DUP4 ADD SWAP1 SWAP3 MSTORE PUSH1 0x60 SWAP2 PUSH1 0x20 DUP3 ADD DUP2 DUP1 CALLDATASIZE DUP4 CALLDATACOPY ADD SWAP1 POP POP SWAP1 POP PUSH1 0xC0 DUP3 SWAP1 SHL DUP1 PUSH1 0x7 BYTE PUSH1 0xF8 SHL DUP3 PUSH1 0x0 DUP2 MLOAD DUP2 LT PUSH2 0x10A0 JUMPI INVALID JUMPDEST PUSH1 0x20 ADD ADD SWAP1 PUSH1 0x1 PUSH1 0x1 PUSH1 0xF8 SHL SUB NOT AND SWAP1 DUP2 PUSH1 0x0 BYTE SWAP1 MSTORE8 POP DUP1 PUSH1 0x6 BYTE PUSH1 0xF8 SHL DUP3 PUSH1 0x1 DUP2 MLOAD DUP2 LT PUSH2 0x10CB JUMPI INVALID JUMPDEST PUSH1 0x20 ADD ADD SWAP1 PUSH1 0x1 PUSH1 0x1 PUSH1 0xF8 SHL SUB NOT AND SWAP1 DUP2 PUSH1 0x0 BYTE SWAP1 MSTORE8 POP DUP1 PUSH1 0x5 BYTE PUSH1 0xF8 SHL DUP3 PUSH1 0x2 DUP2 MLOAD DUP2 LT PUSH2 0x10F6 JUMPI INVALID JUMPDEST PUSH1 0x20 ADD ADD SWAP1 PUSH1 0x1 PUSH1 0x1 PUSH1 0xF8 SHL SUB NOT AND SWAP1 DUP2 PUSH1 0x0 BYTE SWAP1 MSTORE8 POP DUP1 PUSH1 0x4 BYTE PUSH1 0xF8 SHL DUP3 PUSH1 0x3 DUP2 MLOAD DUP2 LT PUSH2 0x1121 JUMPI INVALID JUMPDEST PUSH1 0x20 ADD ADD SWAP1 PUSH1 0x1 PUSH1 0x1 PUSH1 0xF8 SHL SUB NOT AND SWAP1 DUP2 PUSH1 0x0 BYTE SWAP1 MSTORE8 POP DUP1 PUSH1 0x3 BYTE PUSH1 0xF8 SHL DUP3 PUSH1 0x4 DUP2 MLOAD DUP2 LT PUSH2 0x114C JUMPI INVALID JUMPDEST PUSH1 0x20 ADD ADD SWAP1 PUSH1 0x1 PUSH1 0x1 PUSH1 0xF8 SHL SUB NOT AND SWAP1 DUP2 PUSH1 0x0 BYTE SWAP1 MSTORE8 POP DUP1 PUSH1 0x2 BYTE PUSH1 0xF8 SHL DUP3 PUSH1 0x5 DUP2 MLOAD DUP2 LT PUSH2 0x1177 JUMPI INVALID JUMPDEST PUSH1 0x20 ADD ADD SWAP1 PUSH1 0x1 PUSH1 0x1 PUSH1 0xF8 SHL SUB NOT AND SWAP1 DUP2 PUSH1 0x0 BYTE SWAP1 MSTORE8 POP DUP1 PUSH1 0x1 BYTE PUSH1 0xF8 SHL DUP3 PUSH1 0x6 DUP2 MLOAD DUP2 LT PUSH2 0x11A2 JUMPI INVALID JUMPDEST PUSH1 0x20 ADD ADD SWAP1 PUSH1 0x1 PUSH1 0x1 PUSH1 0xF8 SHL SUB NOT AND SWAP1 DUP2 PUSH1 0x0 BYTE SWAP1 MSTORE8 POP DUP1 PUSH1 0x0 BYTE PUSH1 0xF8 SHL DUP3 PUSH1 0x7 DUP2 MLOAD DUP2 LT PUSH2 0x11CD JUMPI INVALID JUMPDEST PUSH1 0x20 ADD ADD SWAP1 PUSH1 0x1 PUSH1 0x1 PUSH1 0xF8 SHL SUB NOT AND SWAP1 DUP2 PUSH1 0x0 BYTE SWAP1 MSTORE8 POP POP SWAP2 SWAP1 POP JUMP JUMPDEST PUSH1 0x0 DUP1 DUP6 DUP6 GT ISZERO PUSH2 0x11F9 JUMPI DUP2 DUP3 REVERT JUMPDEST DUP4 DUP7 GT ISZERO PUSH2 0x1205 JUMPI DUP2 DUP3 REVERT JUMPDEST POP POP DUP3 ADD SWAP4 SWAP2 SWAP1 SWAP3 SUB SWAP2 POP JUMP INVALID DIFFICULTY PUSH6 0x706F73697443 PUSH16 0x6E74726163743A206D65726B6C652074 PUSH19 0x65652066756C6C4465706F736974436F6E7472 PUSH2 0x6374 GASPRICE KECCAK256 PUSH19 0x65636F6E7374727563746564204465706F7369 PUSH21 0x4461746120646F6573206E6F74206D617463682073 PUSH22 0x70706C696564206465706F7369745F646174615F726F PUSH16 0x744465706F736974436F6E7472616374 GASPRICE KECCAK256 PUSH10 0x6E76616C696420776974 PUSH9 0x64726177616C5F6372 PUSH6 0x64656E746961 PUSH13 0x73206C656E6774684465706F73 PUSH10 0x74436F6E74726163743A KECCAK256 PUSH5 0x65706F7369 PUSH21 0x2076616C7565206E6F74206D756C7469706C65206F PUSH7 0x20677765694465 PUSH17 0x6F736974436F6E74726163743A20696E76 PUSH2 0x6C69 PUSH5 0x207075626B PUSH6 0x79206C656E67 PUSH21 0x684465706F736974436F6E74726163743A20646570 PUSH16 0x7369742076616C756520746F6F206869 PUSH8 0x684465706F736974 NUMBER PUSH16 0x6E74726163743A206465706F73697420 PUSH23 0x616C756520746F6F206C6F774465706F736974436F6E74 PUSH19 0x6163743A20696E76616C6964207369676E6174 PUSH22 0x7265206C656E677468A26469706673582212209EBB5F OR 0xEE DUP4 0xF9 JUMP BALANCE CREATE2 RETURNDATACOPY CREATE PUSH21 0xD6185448789F1570D9AEFBB7126F594B9954B26473 PUSH16 0x6C634300060B00330000000000000000 "
		},
		"gasEstimates": {
			"creation": {
				"codeDepositCost": "1011600",
				"executionCost": "infinite",
				"totalCost": "infinite"
			},
			"external": {
				"deposit(bytes,bytes,bytes,bytes32)": "infinite",
				"get_deposit_count()": "infinite",
				"get_deposit_root()": "infinite",
				"supportsInterface(bytes4)": "286"
			},
			"internal": {
				"to_little_endian_64(uint64)": "infinite"
			}
		},
		"methodIdentifiers": {
			"deposit(bytes,bytes,bytes,bytes32)": "22895118",
			"get_deposit_count()": "621fd130",
			"get_deposit_root()": "c5f2892f",
			"supportsInterface(bytes4)": "01ffc9a7"
		}
	},
	"abi": [
		{
			"inputs": [],
			"stateMutability": "nonpayable",
			"type": "constructor"
		},
		{
			"anonymous": false,
			"inputs": [
				{
					"indexed": false,
					"internalType": "bytes",
					"name": "pubkey",
					"type": "bytes"
				},
				{
					"indexed": false,
					"internalType": "bytes",
					"name": "withdrawal_credentials",
					"type": "bytes"
				},
				{
					"indexed": false,
					"internalType": "bytes",
					"name": "amount",
					"type": "bytes"
				},
				{
					"indexed": false,
					"internalType": "bytes",
					"name": "signature",
					"type": "bytes"
				},
				{
					"indexed": false,
					"internalType": "bytes",
					"name": "index",
					"type": "bytes"
				}
			],
			"name": "DepositEvent",
			"type": "event"
		},
		{
			"inputs": [
				{
					"internalType": "bytes",
					"name": "pubkey",
					"type": "bytes"
				},
				{
					"internalType": "bytes",
					"name": "withdrawal_credentials",
					"type": "bytes"
				},
				{
					"internalType": "bytes",
					"name": "signature",
					"type": "bytes"
				},
				{
					"internalType": "bytes32",
					"name": "deposit_data_root",
					"type": "bytes32"
				}
			],
			"name": "deposit",
			"outputs": [],
			"stateMutability": "payable",
			"type": "function"
		},
		{
			"inputs": [],
			"name": "get_deposit_count",
			"outputs": [
				{
					"internalType": "bytes",
					"name": "",
					"type": "bytes"
				}
			],
			"stateMutability": "view",
			"type": "function"
		},
		{
			"inputs": [],
			"name": "get_deposit_root",
			"outputs": [
				{
					"internalType": "bytes32",
					"name": "",
					"type": "bytes32"
				}
			],
			"stateMutability": "view",
			"type": "function"
		},
		{
			"inputs": [
				{
					"internalType": "bytes4",
					"name": "interfaceId",
					"type": "bytes4"
				}
			],
			"name": "supportsInterface",
			"outputs": [
				{
					"internalType": "bool",
					"name": "",
					"type": "bool"
				}
			],
			"stateMutability": "pure",
			"type": "function"
		}
	]
}