{
	"tenderly/project/Documents/DepositContract.sol": {
		"DepositContract": {
			"abi": [
				{
					"inputs": [],
					"stateMutability": "nonpayable",
					"type": "constructor"
				},
				{
					"anonymous": false,
					"inputs": [
						{
							"indexed": false,
							"internalType": "bytes",
							"name": "pubkey",
							"type": "bytes"
						},
						{
							"indexed": false,
							"internalType": "bytes",
							"name": "withdrawal_credentials",
							"type": "bytes"
						},
						{
							"indexed": false,
							"internalType": "bytes",
							"name": "amount",
							"type": "bytes"
						},
						{
							"indexed": false,
							"internalType": "bytes",
							"name": "signature",
							"type": "bytes"
						},
						{
							"indexed": false,
							"internalType": "bytes",
							"name": "index",
							"type": "bytes"
						}
					],
					"name": "DepositEvent",
					"type": "event"
				},
				{
					"inputs": [
						{
							"internalType": "bytes",
							"name": "pubkey",
							"type": "bytes"
						},
						{
							"internalType": "bytes",
							"name": "withdrawal_credentials",
							"type": "bytes"
						},
						{
							"internalType": "bytes",
							"name": "signature",
							"type": "bytes"
						},
						{
							"internalType": "bytes32",
							"name": "deposit_data_root",
							"type": "bytes32"
						}
					],
					"name": "deposit",
					"outputs": [],
					"stateMutability": "payable",
					"type": "function"
				},
				{
					"inputs": [],
					"name": "get_deposit_count",
					"outputs": [
						{
							"internalType": "bytes",
							"name": "",
							"type": "bytes"
						}
					],
					"stateMutability": "view",
					"type": "function"
				},
				{
					"inputs": [],
					"name": "get_deposit_root",
					"outputs": [
						{
							"internalType": "bytes32",
							"name": "",
							"type": "bytes32"
						}
					],
					"stateMutability": "view",
					"type": "function"
				},
				{
					"inputs": [
						{
							"internalType": "bytes4",
							"name": "interfaceId",
							"type": "bytes4"
						}
					],
					"name": "supportsInterface",
					"outputs": [
						{
							"internalType": "bool",
							"name": "",
							"type": "bool"
						}
					],
					"stateMutability": "pure",
					"type": "function"
				}
			],
			"devdoc": {
				"kind": "dev",
				"methods": {
					"deposit(bytes,bytes,bytes,bytes32)": {
						"params": {
							"deposit_data_root": "The SHA-256 hash of the SSZ-encoded DepositData object. Used as a protection against malformed input.",
							"pubkey": "A BLS12-381 public key.",
							"signature": "A BLS12-381 signature.",
							"withdrawal_credentials": "Commitment to a public key for withdrawals."
						}
					},
					"get_deposit_count()": {
						"returns": {
							"_0": "The deposit count encoded as a little endian 64-bit number."
						}
					},
					"get_deposit_root()": {
						"returns": {
							"_0": "The deposit root hash."
						}
					},
					"supportsInterface(bytes4)": {
						"details": "Interface identification is specified in ERC-165. This function  uses less than 30,000 gas.",
						"params": {
							"interfaceId": "The interface identifier, as specified in ERC-165"
						},
						"returns": {
							"_0": "`true` if the contract implements `interfaceId` and  `interfaceId` is not 0xffffffff, `false` otherwise"
						}
					}
				},
				"version": 1
			},
			"evm": {
				"assembly": "    /* \"tenderly/project/Documents/DepositContract.sol\":4651:9491  contract DepositContract is IDepositContract, ERC165 {... */\n  mstore(0x40, 0x80)\n    /* \"tenderly/project/Documents/DepositContract.sol\":5038:5308  constructor() public {... */\n  callvalue\n  dup1\n  iszero\n  tag_1\n  jumpi\n  0x00\n  dup1\n  revert\ntag_1:\n  pop\n    /* \"tenderly/project/Documents/DepositContract.sol\":5128:5139  uint height */\n  0x00\n    /* \"tenderly/project/Documents/DepositContract.sol\":5123:5301  for (uint height = 0; height < DEPOSIT_CONTRACT_TREE_DEPTH - 1; height++)... */\ntag_4:\n    /* \"tenderly/project/Documents/DepositContract.sol\":5154:5185  DEPOSIT_CONTRACT_TREE_DEPTH - 1 */\n  0x1f\n    /* \"tenderly/project/Documents/DepositContract.sol\":5145:5185  height < DEPOSIT_CONTRACT_TREE_DEPTH - 1 */\n  dup2\n  lt\n    /* \"tenderly/project/Documents/DepositContract.sol\":5123:5301  for (uint height = 0; height < DEPOSIT_CONTRACT_TREE_DEPTH - 1; height++)... */\n  iszero\n  tag_5\n  jumpi\n    /* \"tenderly/project/Documents/DepositContract.sol\":5235:5301  sha256(abi.encodePacked(zero_hashes[height], zero_hashes[height])) */\n  0x02\n    /* \"tenderly/project/Documents/DepositContract.sol\":5259:5270  zero_hashes */\n  0x21\n    /* \"tenderly/project/Documents/DepositContract.sol\":5271:5277  height */\n  dup3\n    /* \"tenderly/project/Documents/DepositContract.sol\":5259:5278  zero_hashes[height] */\n  0x20\n  dup2\n  lt\n  tag_7\n  jumpi\n  invalid\ntag_7:\n  add\n  sload\n    /* \"tenderly/project/Documents/DepositContract.sol\":5280:5291  zero_hashes */\n  0x21\n    /* \"tenderly/project/Documents/DepositContract.sol\":5292:5298  height */\n  dup4\n    /* \"tenderly/project/Documents/DepositContract.sol\":5280:5299  zero_hashes[height] */\n  0x20\n  dup2\n  lt\n  tag_9\n  jumpi\n  invalid\ntag_9:\n  add\n  sload\n    /* \"tenderly/project/Documents/DepositContract.sol\":5242:5300  abi.encodePacked(zero_hashes[height], zero_hashes[height]) */\n  add(0x20, mload(0x40))\n  dup1\n  dup4\n  dup2\n  mstore\n  0x20\n  add\n  dup3\n  dup2\n  mstore\n  0x20\n  add\n  swap3\n  pop\n  pop\n  pop\n  mload(0x40)\n  0x20\n  dup2\n  dup4\n  sub\n  sub\n  dup2\n  mstore\n  swap1\n  0x40\n  mstore\n    /* \"tenderly/project/Documents/DepositContract.sol\":5235:5301  sha256(abi.encodePacked(zero_hashes[height], zero_hashes[height])) */\n  mload(0x40)\n  dup1\n  dup3\n  dup1\n  mload\n  swap1\n  0x20\n  add\n  swap1\n  dup1\n  dup4\n  dup4\ntag_11:\n  0x20\n  dup4\n  lt\n  tag_13\n  jumpi\n  dup1\n  mload\n  dup3\n  mstore\n  not(0x1f)\n  swap1\n  swap3\n  add\n  swap2\n  0x20\n  swap2\n  dup3\n  add\n  swap2\n  add\n  jump(tag_11)\ntag_13:\n  mload\n  dup2\n  mload\n  0x20\n  swap4\n  dup5\n  sub\n  0x0100\n  exp\n  not(0x00)\n  add\n  dup1\n  not\n  swap1\n  swap3\n  and\n  swap2\n  and\n  or\n  swap1\n  mstore\n  mload(0x40)\n  swap2\n  swap1\n  swap4\n  add\n  swap5\n  pop\n  swap2\n  swap3\n  pop\n  pop\n  dup1\n  dup4\n  sub\n  dup2\n  dup6\n  gas\n  staticcall\n  iszero\n  dup1\n  iszero\n  tag_15\n  jumpi\n  returndatasize\n  0x00\n  dup1\n  returndatacopy\n  revert(0x00, returndatasize)\ntag_15:\n  pop\n  pop\n  pop\n  mload(0x40)\n  returndatasize\n  0x20\n  dup2\n  lt\n  iszero\n  tag_16\n  jumpi\n  0x00\n  dup1\n  revert\ntag_16:\n  pop\n  mload\n    /* \"tenderly/project/Documents/DepositContract.sol\":5209:5220  zero_hashes */\n  0x21\n    /* \"tenderly/project/Documents/DepositContract.sol\":5230:5231  1 */\n  0x01\n    /* \"tenderly/project/Documents/DepositContract.sol\":5221:5231  height + 1 */\n  dup4\n  add\n    /* \"tenderly/project/Documents/DepositContract.sol\":5235:5301  sha256(abi.encodePacked(zero_hashes[height], zero_hashes[height])) */\n  0x20\n    /* \"tenderly/project/Documents/DepositContract.sol\":5209:5232  zero_hashes[height + 1] */\n  dup2\n  lt\n  tag_17\n  jumpi\n  invalid\ntag_17:\n  add\n    /* \"tenderly/project/Documents/DepositContract.sol\":5209:5301  zero_hashes[height + 1] = sha256(abi.encodePacked(zero_hashes[height], zero_hashes[height])) */\n  sstore\n    /* \"tenderly/project/Documents/DepositContract.sol\":5187:5195  height++ */\n  0x01\n  add\n    /* \"tenderly/project/Documents/DepositContract.sol\":5123:5301  for (uint height = 0; height < DEPOSIT_CONTRACT_TREE_DEPTH - 1; height++)... */\n  jump(tag_4)\ntag_5:\n  pop\n    /* \"tenderly/project/Documents/DepositContract.sol\":4651:9491  contract DepositContract is IDepositContract, ERC165 {... */\n  dataSize(sub_0)\n  dup1\n  dataOffset(sub_0)\n  0x00\n  codecopy\n  0x00\n  return\nstop\n\nsub_0: assembly {\n        /* \"tenderly/project/Documents/DepositContract.sol\":4651:9491  contract DepositContract is IDepositContract, ERC165 {... */\n      mstore(0x40, 0x80)\n      jumpi(tag_1, lt(calldatasize, 0x04))\n      shr(0xe0, calldataload(0x00))\n      dup1\n      0x01ffc9a7\n      eq\n      tag_2\n      jumpi\n      dup1\n      0x22895118\n      eq\n      tag_3\n      jumpi\n      dup1\n      0x621fd130\n      eq\n      tag_4\n      jumpi\n      dup1\n      0xc5f2892f\n      eq\n      tag_5\n      jumpi\n    tag_1:\n      0x00\n      dup1\n      revert\n        /* \"tenderly/project/Documents/DepositContract.sol\":8815:9016  function supportsInterface(bytes4 interfaceId) override external pure returns (bool) {... */\n    tag_2:\n      callvalue\n      dup1\n      iszero\n      tag_6\n      jumpi\n      0x00\n      dup1\n      revert\n    tag_6:\n      pop\n      tag_7\n      0x04\n      dup1\n      calldatasize\n      sub\n      0x20\n      dup2\n      lt\n      iszero\n      tag_8\n      jumpi\n      0x00\n      dup1\n      revert\n    tag_8:\n      pop\n      calldataload\n      0xffffffff00000000000000000000000000000000000000000000000000000000\n      and\n      tag_9\n      jump\t// in\n    tag_7:\n      0x40\n      dup1\n      mload\n      swap2\n      iszero\n      iszero\n      dup3\n      mstore\n      mload\n      swap1\n      dup2\n      swap1\n      sub\n      0x20\n      add\n      swap1\n      return\n        /* \"tenderly/project/Documents/DepositContract.sol\":6059:8809  function deposit(... */\n    tag_3:\n      tag_10\n      0x04\n      dup1\n      calldatasize\n      sub\n      0x80\n      dup2\n      lt\n      iszero\n      tag_11\n      jumpi\n      0x00\n      dup1\n      revert\n    tag_11:\n      dup2\n      add\n      swap1\n      0x20\n      dup2\n      add\n      dup2\n      calldataload\n      0x0100000000\n      dup2\n      gt\n      iszero\n      tag_12\n      jumpi\n      0x00\n      dup1\n      revert\n    tag_12:\n      dup3\n      add\n      dup4\n      0x20\n      dup3\n      add\n      gt\n      iszero\n      tag_13\n      jumpi\n      0x00\n      dup1\n      revert\n    tag_13:\n      dup1\n      calldataload\n      swap1\n      0x20\n      add\n      swap2\n      dup5\n      0x01\n      dup4\n      mul\n      dup5\n      add\n      gt\n      0x0100000000\n      dup4\n      gt\n      or\n      iszero\n      tag_14\n      jumpi\n      0x00\n      dup1\n      revert\n    tag_14:\n      swap2\n      swap4\n      swap1\n      swap3\n      swap1\n      swap2\n      0x20\n      dup2\n      add\n      swap1\n      calldataload\n      0x0100000000\n      dup2\n      gt\n      iszero\n      tag_15\n      jumpi\n      0x00\n      dup1\n      revert\n    tag_15:\n      dup3\n      add\n      dup4\n      0x20\n      dup3\n      add\n      gt\n      iszero\n      tag_16\n      jumpi\n      0x00\n      dup1\n      revert\n    tag_16:\n      dup1\n      calldataload\n      swap1\n      0x20\n      add\n      swap2\n      dup5\n      0x01\n      dup4\n      mul\n      dup5\n      add\n      gt\n      0x0100000000\n      dup4\n      gt\n      or\n      iszero\n      tag_17\n      jumpi\n      0x00\n      dup1\n      revert\n    tag_17:\n      swap2\n      swap4\n      swap1\n      swap3\n      swap1\n      swap2\n      0x20\n      dup2\n      add\n      swap1\n      calldataload\n      0x0100000000\n      dup2\n      gt\n      iszero\n      tag_18\n      jumpi\n      0x00\n      dup1\n      revert\n    tag_18:\n      dup3\n      add\n      dup4\n      0x20\n      dup3\n      add\n      gt\n      iszero\n      tag_19\n      jumpi\n      0x00\n      dup1\n      revert\n    tag_19:\n      dup1\n      calldataload\n      swap1\n      0x20\n      add\n      swap2\n      dup5\n      0x01\n      dup4\n      mul\n      dup5\n      add\n      gt\n      0x0100000000\n      dup4\n      gt\n      or\n      iszero\n      tag_20\n      jumpi\n      0x00\n      dup1\n      revert\n    tag_20:\n      swap2\n      swap4\n      pop\n      swap2\n      pop\n      calldataload\n      tag_21\n      jump\t// in\n    tag_10:\n      stop\n        /* \"tenderly/project/Documents/DepositContract.sol\":5912:6053  function get_deposit_count() override external view returns (bytes memory) {... */\n    tag_4:\n      callvalue\n      dup1\n      iszero\n      tag_22\n      jumpi\n      0x00\n      dup1\n      revert\n    tag_22:\n      pop\n      tag_23\n      tag_24\n      jump\t// in\n    tag_23:\n      0x40\n      dup1\n      mload\n      0x20\n      dup1\n      dup3\n      mstore\n      dup4\n      mload\n      dup2\n      dup4\n      add\n      mstore\n      dup4\n      mload\n      swap2\n      swap3\n      dup4\n      swap3\n      swap1\n      dup4\n      add\n      swap2\n      dup6\n      add\n      swap1\n      dup1\n      dup4\n      dup4\n      0x00\n    tag_25:\n      dup4\n      dup2\n      lt\n      iszero\n      tag_27\n      jumpi\n      dup2\n      dup2\n      add\n      mload\n      dup4\n      dup3\n      add\n      mstore\n      0x20\n      add\n      jump(tag_25)\n    tag_27:\n      pop\n      pop\n      pop\n      pop\n      swap1\n      pop\n      swap1\n      dup2\n      add\n      swap1\n      0x1f\n      and\n      dup1\n      iszero\n      tag_28\n      jumpi\n      dup1\n      dup3\n      sub\n      dup1\n      mload\n      0x01\n      dup4\n      0x20\n      sub\n      0x0100\n      exp\n      sub\n      not\n      and\n      dup2\n      mstore\n      0x20\n      add\n      swap2\n      pop\n    tag_28:\n      pop\n      swap3\n      pop\n      pop\n      pop\n      mload(0x40)\n      dup1\n      swap2\n      sub\n      swap1\n      return\n        /* \"tenderly/project/Documents/DepositContract.sol\":5314:5906  function get_deposit_root() override external view returns (bytes32) {... */\n    tag_5:\n      callvalue\n      dup1\n      iszero\n      tag_29\n      jumpi\n      0x00\n      dup1\n      revert\n    tag_29:\n      pop\n      tag_30\n      tag_31\n      jump\t// in\n    tag_30:\n      0x40\n      dup1\n      mload\n      swap2\n      dup3\n      mstore\n      mload\n      swap1\n      dup2\n      swap1\n      sub\n      0x20\n      add\n      swap1\n      return\n        /* \"tenderly/project/Documents/DepositContract.sol\":8815:9016  function supportsInterface(bytes4 interfaceId) override external pure returns (bool) {... */\n    tag_9:\n        /* \"tenderly/project/Documents/DepositContract.sol\":8894:8898  bool */\n      0x00\n        /* \"tenderly/project/Documents/DepositContract.sol\":8917:8956  interfaceId == type(ERC165).interfaceId */\n      0xffffffff00000000000000000000000000000000000000000000000000000000\n      dup3\n      and\n        /* \"tenderly/project/Documents/DepositContract.sol\":8932:8956  type(ERC165).interfaceId */\n      0x01ffc9a700000000000000000000000000000000000000000000000000000000\n        /* \"tenderly/project/Documents/DepositContract.sol\":8917:8956  interfaceId == type(ERC165).interfaceId */\n      eq\n      dup1\n        /* \"tenderly/project/Documents/DepositContract.sol\":8917:9009  interfaceId == type(ERC165).interfaceId || interfaceId == type(IDepositContract).interfaceId */\n      tag_33\n      jumpi\n      pop\n        /* \"tenderly/project/Documents/DepositContract.sol\":8960:9009  interfaceId == type(IDepositContract).interfaceId */\n      0xffffffff00000000000000000000000000000000000000000000000000000000\n      dup3\n      and\n        /* \"tenderly/project/Documents/DepositContract.sol\":8975:9009  type(IDepositContract).interfaceId */\n      0x8564090700000000000000000000000000000000000000000000000000000000\n        /* \"tenderly/project/Documents/DepositContract.sol\":8960:9009  interfaceId == type(IDepositContract).interfaceId */\n      eq\n        /* \"tenderly/project/Documents/DepositContract.sol\":8917:9009  interfaceId == type(ERC165).interfaceId || interfaceId == type(IDepositContract).interfaceId */\n    tag_33:\n        /* \"tenderly/project/Documents/DepositContract.sol\":8910:9009  return interfaceId == type(ERC165).interfaceId || interfaceId == type(IDepositContract).interfaceId */\n      swap3\n        /* \"tenderly/project/Documents/DepositContract.sol\":8815:9016  function supportsInterface(bytes4 interfaceId) override external pure returns (bool) {... */\n      swap2\n      pop\n      pop\n      jump\t// out\n        /* \"tenderly/project/Documents/DepositContract.sol\":6059:8809  function deposit(... */\n    tag_21:\n        /* \"tenderly/project/Documents/DepositContract.sol\":6358:6360  48 */\n      0x30\n        /* \"tenderly/project/Documents/DepositContract.sol\":6341:6360  pubkey.length == 48 */\n      dup7\n      eq\n        /* \"tenderly/project/Documents/DepositContract.sol\":6333:6403  require(pubkey.length == 48, \"DepositContract: invalid pubkey length\") */\n      tag_35\n      jumpi\n      mload(0x40)\n      shl(0xe5, 0x461bcd)\n      dup2\n      mstore\n      0x04\n      add\n      dup1\n      dup1\n      0x20\n      add\n      dup3\n      dup2\n      sub\n      dup3\n      mstore\n      0x26\n      dup2\n      mstore\n      0x20\n      add\n      dup1\n      data_c3b50b094eada99b5a9dfa8cfadfa82355edd40e0591c544071d0112172c4c5e\n      0x26\n      swap2\n      codecopy\n      0x40\n      add\n      swap2\n      pop\n      pop\n      mload(0x40)\n      dup1\n      swap2\n      sub\n      swap1\n      revert\n    tag_35:\n        /* \"tenderly/project/Documents/DepositContract.sol\":6454:6456  32 */\n      0x20\n        /* \"tenderly/project/Documents/DepositContract.sol\":6421:6456  withdrawal_credentials.length == 32 */\n      dup5\n      eq\n        /* \"tenderly/project/Documents/DepositContract.sol\":6413:6515  require(withdrawal_credentials.length == 32, \"DepositContract: invalid withdrawal_credentials length\") */\n      tag_36\n      jumpi\n      mload(0x40)\n      shl(0xe5, 0x461bcd)\n      dup2\n      mstore\n      0x04\n      add\n      dup1\n      dup1\n      0x20\n      add\n      dup3\n      dup2\n      sub\n      dup3\n      mstore\n      0x36\n      dup2\n      mstore\n      0x20\n      add\n      dup1\n      data_747182c86d19950fc1e3554e7b3e3a1972fcfdcf01419aa5598a57f4869840e0\n      0x36\n      swap2\n      codecopy\n      0x40\n      add\n      swap2\n      pop\n      pop\n      mload(0x40)\n      dup1\n      swap2\n      sub\n      swap1\n      revert\n    tag_36:\n        /* \"tenderly/project/Documents/DepositContract.sol\":6553:6555  96 */\n      0x60\n        /* \"tenderly/project/Documents/DepositContract.sol\":6533:6555  signature.length == 96 */\n      dup3\n      eq\n        /* \"tenderly/project/Documents/DepositContract.sol\":6525:6601  require(signature.length == 96, \"DepositContract: invalid signature length\") */\n      tag_37\n      jumpi\n      mload(0x40)\n      shl(0xe5, 0x461bcd)\n      dup2\n      mstore\n      0x04\n      add\n      dup1\n      dup1\n      0x20\n      add\n      dup3\n      dup2\n      sub\n      dup3\n      mstore\n      0x29\n      dup2\n      mstore\n      0x20\n      add\n      dup1\n      data_e15de1a983e2181dc403952307f19cbe1ac366f85accb46ba7ec34e71736287b\n      0x29\n      swap2\n      codecopy\n      0x40\n      add\n      swap2\n      pop\n      pop\n      mload(0x40)\n      dup1\n      swap2\n      sub\n      swap1\n      revert\n    tag_37:\n        /* \"tenderly/project/Documents/DepositContract.sol\":6665:6672  1 ether */\n      0x0de0b6b3a7640000\n        /* \"tenderly/project/Documents/DepositContract.sol\":6652:6661  msg.value */\n      callvalue\n        /* \"tenderly/project/Documents/DepositContract.sol\":6652:6672  msg.value >= 1 ether */\n      lt\n      iszero\n        /* \"tenderly/project/Documents/DepositContract.sol\":6644:6715  require(msg.value >= 1 ether, \"DepositContract: deposit value too low\") */\n      tag_38\n      jumpi\n      mload(0x40)\n      shl(0xe5, 0x461bcd)\n      dup2\n      mstore\n      0x04\n      add\n      dup1\n      dup1\n      0x20\n      add\n      dup3\n      dup2\n      sub\n      dup3\n      mstore\n      0x26\n      dup2\n      mstore\n      0x20\n      add\n      dup1\n      data_d4d9a14975cc31a7dc18afc82ee6e59efa15377b990098eeaab4cc403f9d1217\n      0x26\n      swap2\n      codecopy\n      0x40\n      add\n      swap2\n      pop\n      pop\n      mload(0x40)\n      dup1\n      swap2\n      sub\n      swap1\n      revert\n    tag_38:\n        /* \"tenderly/project/Documents/DepositContract.sol\":6745:6751  1 gwei */\n      0x3b9aca00\n        /* \"tenderly/project/Documents/DepositContract.sol\":6733:6742  msg.value */\n      callvalue\n        /* \"tenderly/project/Documents/DepositContract.sol\":6733:6751  msg.value % 1 gwei */\n      mod\n        /* \"tenderly/project/Documents/DepositContract.sol\":6733:6756  msg.value % 1 gwei == 0 */\n      iszero\n        /* \"tenderly/project/Documents/DepositContract.sol\":6725:6812  require(msg.value % 1 gwei == 0, \"DepositContract: deposit value not multiple of gwei\") */\n      tag_40\n      jumpi\n      mload(0x40)\n      shl(0xe5, 0x461bcd)\n      dup2\n      mstore\n      0x04\n      add\n      dup1\n      dup1\n      0x20\n      add\n      dup3\n      dup2\n      sub\n      dup3\n      mstore\n      0x33\n      dup2\n      mstore\n      0x20\n      add\n      dup1\n      data_7db03c60fbfd1382397614fc537e65f67f687dbb18307bed297bda7f864590e0\n      0x33\n      swap2\n      codecopy\n      0x40\n      add\n      swap2\n      pop\n      pop\n      mload(0x40)\n      dup1\n      swap2\n      sub\n      swap1\n      revert\n    tag_40:\n        /* \"tenderly/project/Documents/DepositContract.sol\":6856:6862  1 gwei */\n      0x3b9aca00\n        /* \"tenderly/project/Documents/DepositContract.sol\":6844:6853  msg.value */\n      callvalue\n        /* \"tenderly/project/Documents/DepositContract.sol\":6844:6862  msg.value / 1 gwei */\n      div\n        /* \"tenderly/project/Documents/DepositContract.sol\":6898:6914  type(uint64).max */\n      0xffffffffffffffff\n        /* \"tenderly/project/Documents/DepositContract.sol\":6880:6914  deposit_amount <= type(uint64).max */\n      dup2\n      gt\n      iszero\n        /* \"tenderly/project/Documents/DepositContract.sol\":6872:6958  require(deposit_amount <= type(uint64).max, \"DepositContract: deposit value too high\") */\n      tag_42\n      jumpi\n      mload(0x40)\n      shl(0xe5, 0x461bcd)\n      dup2\n      mstore\n      0x04\n      add\n      dup1\n      dup1\n      0x20\n      add\n      dup3\n      dup2\n      sub\n      dup3\n      mstore\n      0x27\n      dup2\n      mstore\n      0x20\n      add\n      dup1\n      data_c445cee017c8884423c583c4e1697a8e774197f1748cc887aa73775ef891882f\n      0x27\n      swap2\n      codecopy\n      0x40\n      add\n      swap2\n      pop\n      pop\n      mload(0x40)\n      dup1\n      swap2\n      sub\n      swap1\n      revert\n    tag_42:\n        /* \"tenderly/project/Documents/DepositContract.sol\":7004:7023  bytes memory amount */\n      0x60\n        /* \"tenderly/project/Documents/DepositContract.sol\":7026:7069  to_little_endian_64(uint64(deposit_amount)) */\n      tag_43\n        /* \"tenderly/project/Documents/DepositContract.sol\":7053:7067  deposit_amount */\n      dup3\n        /* \"tenderly/project/Documents/DepositContract.sol\":7026:7045  to_little_endian_64 */\n      tag_44\n        /* \"tenderly/project/Documents/DepositContract.sol\":7026:7069  to_little_endian_64(uint64(deposit_amount)) */\n      jump\t// in\n    tag_43:\n        /* \"tenderly/project/Documents/DepositContract.sol\":7004:7069  bytes memory amount = to_little_endian_64(uint64(deposit_amount)) */\n      swap1\n      pop\n        /* \"tenderly/project/Documents/DepositContract.sol\":7084:7261  DepositEvent(... */\n      0x649bbc62d0e31342afea4e5cd82d4049e7e1ee912fc0889aa790803be39038c5\n        /* \"tenderly/project/Documents/DepositContract.sol\":7110:7116  pubkey */\n      dup10\n      dup10\n        /* \"tenderly/project/Documents/DepositContract.sol\":7130:7152  withdrawal_credentials */\n      dup10\n      dup10\n        /* \"tenderly/project/Documents/DepositContract.sol\":7166:7172  amount */\n      dup6\n        /* \"tenderly/project/Documents/DepositContract.sol\":7186:7195  signature */\n      dup11\n      dup11\n        /* \"tenderly/project/Documents/DepositContract.sol\":7209:7251  to_little_endian_64(uint64(deposit_count)) */\n      tag_45\n        /* \"tenderly/project/Documents/DepositContract.sol\":7236:7249  deposit_count */\n      sload(0x20)\n        /* \"tenderly/project/Documents/DepositContract.sol\":7209:7228  to_little_endian_64 */\n      tag_44\n        /* \"tenderly/project/Documents/DepositContract.sol\":7209:7251  to_little_endian_64(uint64(deposit_count)) */\n      jump\t// in\n    tag_45:\n        /* \"tenderly/project/Documents/DepositContract.sol\":7084:7261  DepositEvent(... */\n      0x40\n      dup1\n      mload\n      0xa0\n      dup1\n      dup3\n      mstore\n      dup2\n      add\n      dup10\n      swap1\n      mstore\n      swap1\n      dup2\n      swap1\n      0x20\n      dup3\n      add\n      swap1\n      dup3\n      add\n      0x60\n      dup4\n      add\n      0x80\n      dup5\n      add\n      0xc0\n      dup6\n      add\n      dup15\n      dup15\n      dup1\n      dup3\n      dup5\n      calldatacopy\n      0x00\n      dup4\n      dup3\n      add\n      mstore\n      0x1f\n      add\n      not(0x1f)\n      and\n      swap1\n      swap2\n      add\n      dup8\n      dup2\n      sub\n      dup7\n      mstore\n      dup13\n      dup2\n      mstore\n      0x20\n      add\n      swap1\n      pop\n      dup13\n      dup13\n      dup1\n      dup3\n      dup5\n      calldatacopy\n      0x00\n      dup4\n      dup3\n      add\n      dup2\n      swap1\n      mstore\n      0x1f\n      swap1\n      swap2\n      add\n      not(0x1f)\n      and\n      swap1\n      swap3\n      add\n      dup9\n      dup2\n      sub\n      dup7\n      mstore\n      dup13\n      mload\n      dup2\n      mstore\n      dup13\n      mload\n      0x20\n      swap2\n      dup3\n      add\n      swap4\n      swap2\n      dup15\n      add\n      swap3\n      pop\n      swap1\n      dup2\n      swap1\n      dup5\n      swap1\n      dup5\n      swap1\n    tag_46:\n      dup4\n      dup2\n      lt\n      iszero\n      tag_48\n      jumpi\n      dup2\n      dup2\n      add\n      mload\n      dup4\n      dup3\n      add\n      mstore\n      0x20\n      add\n      jump(tag_46)\n    tag_48:\n      pop\n      pop\n      pop\n      pop\n      swap1\n      pop\n      swap1\n      dup2\n      add\n      swap1\n      0x1f\n      and\n      dup1\n      iszero\n      tag_49\n      jumpi\n      dup1\n      dup3\n      sub\n      dup1\n      mload\n      0x01\n      dup4\n      0x20\n      sub\n      0x0100\n      exp\n      sub\n      not\n      and\n      dup2\n      mstore\n      0x20\n      add\n      swap2\n      pop\n    tag_49:\n      pop\n      dup7\n      dup2\n      sub\n      dup4\n      mstore\n      dup9\n      dup2\n      mstore\n      0x20\n      add\n      dup10\n      dup10\n      dup1\n      dup3\n      dup5\n      calldatacopy\n      0x00\n      dup4\n      dup3\n      add\n      dup2\n      swap1\n      mstore\n      0x1f\n      swap1\n      swap2\n      add\n      not(0x1f)\n      and\n      swap1\n      swap3\n      add\n      dup9\n      dup2\n      sub\n      dup5\n      mstore\n      dup10\n      mload\n      dup2\n      mstore\n      dup10\n      mload\n      0x20\n      swap2\n      dup3\n      add\n      swap4\n      swap2\n      dup12\n      add\n      swap3\n      pop\n      swap1\n      dup2\n      swap1\n      dup5\n      swap1\n      dup5\n      swap1\n    tag_50:\n      dup4\n      dup2\n      lt\n      iszero\n      tag_52\n      jumpi\n      dup2\n      dup2\n      add\n      mload\n      dup4\n      dup3\n      add\n      mstore\n      0x20\n      add\n      jump(tag_50)\n    tag_52:\n      pop\n      pop\n      pop\n      pop\n      swap1\n      pop\n      swap1\n      dup2\n      add\n      swap1\n      0x1f\n      and\n      dup1\n      iszero\n      tag_53\n      jumpi\n      dup1\n      dup3\n      sub\n      dup1\n      mload\n      0x01\n      dup4\n      0x20\n      sub\n      0x0100\n      exp\n      sub\n      not\n      and\n      dup2\n      mstore\n      0x20\n      add\n      swap2\n      pop\n    tag_53:\n      pop\n      swap14\n      pop\n      pop\n      pop\n      pop\n      pop\n      pop\n      pop\n      pop\n      pop\n      pop\n      pop\n      pop\n      pop\n      pop\n      mload(0x40)\n      dup1\n      swap2\n      sub\n      swap1\n      log1\n        /* \"tenderly/project/Documents/DepositContract.sol\":7340:7359  bytes32 pubkey_root */\n      0x00\n        /* \"tenderly/project/Documents/DepositContract.sol\":7362:7406  sha256(abi.encodePacked(pubkey, bytes16(0))) */\n      0x02\n        /* \"tenderly/project/Documents/DepositContract.sol\":7386:7392  pubkey */\n      dup11\n      dup11\n        /* \"tenderly/project/Documents/DepositContract.sol\":7402:7403  0 */\n      0x00\n        /* \"tenderly/project/Documents/DepositContract.sol\":7394:7404  bytes16(0) */\n      0x80\n      shl\n        /* \"tenderly/project/Documents/DepositContract.sol\":7369:7405  abi.encodePacked(pubkey, bytes16(0)) */\n      add(0x20, mload(0x40))\n      dup1\n      dup5\n      dup5\n      dup1\n      dup3\n      dup5\n      calldatacopy\n      0xffffffffffffffffffffffffffffffff00000000000000000000000000000000\n      swap1\n      swap5\n      and\n      swap2\n      swap1\n      swap4\n      add\n      swap1\n      dup2\n      mstore\n      0x40\n      dup1\n      mload\n      not(0x0f)\n      dup2\n      dup5\n      sub\n      add\n      dup2\n      mstore\n      0x10\n      swap1\n      swap3\n      add\n      swap1\n      dup2\n      swap1\n      mstore\n        /* \"tenderly/project/Documents/DepositContract.sol\":7362:7406  sha256(abi.encodePacked(pubkey, bytes16(0))) */\n      dup2\n      mload\n        /* \"tenderly/project/Documents/DepositContract.sol\":7369:7405  abi.encodePacked(pubkey, bytes16(0)) */\n      swap2\n      swap6\n      pop\n      swap4\n      pop\n      dup4\n      swap3\n      pop\n      0x20\n        /* \"tenderly/project/Documents/DepositContract.sol\":7362:7406  sha256(abi.encodePacked(pubkey, bytes16(0))) */\n      dup6\n      add\n      swap2\n      pop\n      dup1\n        /* \"tenderly/project/Documents/DepositContract.sol\":7369:7405  abi.encodePacked(pubkey, bytes16(0)) */\n      dup4\n        /* \"tenderly/project/Documents/DepositContract.sol\":7362:7406  sha256(abi.encodePacked(pubkey, bytes16(0))) */\n      dup4\n    tag_54:\n      0x20\n      dup4\n      lt\n      tag_56\n      jumpi\n      dup1\n      mload\n      dup3\n      mstore\n      not(0x1f)\n      swap1\n      swap3\n      add\n      swap2\n      0x20\n      swap2\n      dup3\n      add\n      swap2\n      add\n      jump(tag_54)\n    tag_56:\n      mload\n      dup2\n      mload\n      0x20\n      swap4\n      dup5\n      sub\n      0x0100\n      exp\n      not(0x00)\n      add\n      dup1\n      not\n      swap1\n      swap3\n      and\n      swap2\n      and\n      or\n      swap1\n      mstore\n      mload(0x40)\n      swap2\n      swap1\n      swap4\n      add\n      swap5\n      pop\n      swap2\n      swap3\n      pop\n      pop\n      dup1\n      dup4\n      sub\n      dup2\n      dup6\n      gas\n      staticcall\n      iszero\n      dup1\n      iszero\n      tag_58\n      jumpi\n      returndatasize\n      0x00\n      dup1\n      returndatacopy\n      revert(0x00, returndatasize)\n    tag_58:\n      pop\n      pop\n      pop\n      mload(0x40)\n      returndatasize\n      0x20\n      dup2\n      lt\n      iszero\n      tag_59\n      jumpi\n      0x00\n      dup1\n      revert\n    tag_59:\n      pop\n      mload\n      swap1\n      pop\n        /* \"tenderly/project/Documents/DepositContract.sol\":7416:7438  bytes32 signature_root */\n      0x00\n        /* \"tenderly/project/Documents/DepositContract.sol\":7441:7595  sha256(abi.encodePacked(... */\n      0x02\n      dup1\n        /* \"tenderly/project/Documents/DepositContract.sol\":7502:7516  signature[:64] */\n      tag_60\n        /* \"tenderly/project/Documents/DepositContract.sol\":7513:7515  64 */\n      0x40\n        /* \"tenderly/project/Documents/DepositContract.sol\":7416:7438  bytes32 signature_root */\n      dup5\n        /* \"tenderly/project/Documents/DepositContract.sol\":7502:7511  signature */\n      dup11\n      dup13\n        /* \"tenderly/project/Documents/DepositContract.sol\":7502:7516  signature[:64] */\n      tag_61\n      jump\t// in\n    tag_60:\n        /* \"tenderly/project/Documents/DepositContract.sol\":7485:7517  abi.encodePacked(signature[:64]) */\n      add(0x20, mload(0x40))\n      dup1\n      dup4\n      dup4\n      dup1\n      dup3\n      dup5\n      calldatacopy\n      dup1\n      dup4\n      add\n      swap3\n      pop\n      pop\n      pop\n      swap3\n      pop\n      pop\n      pop\n      mload(0x40)\n      0x20\n      dup2\n      dup4\n      sub\n      sub\n      dup2\n      mstore\n      swap1\n      0x40\n      mstore\n        /* \"tenderly/project/Documents/DepositContract.sol\":7478:7518  sha256(abi.encodePacked(signature[:64])) */\n      mload(0x40)\n      dup1\n      dup3\n      dup1\n      mload\n      swap1\n      0x20\n      add\n      swap1\n      dup1\n      dup4\n      dup4\n    tag_62:\n      0x20\n      dup4\n      lt\n      tag_64\n      jumpi\n      dup1\n      mload\n      dup3\n      mstore\n      not(0x1f)\n      swap1\n      swap3\n      add\n      swap2\n      0x20\n      swap2\n      dup3\n      add\n      swap2\n      add\n      jump(tag_62)\n    tag_64:\n      mload\n      dup2\n      mload\n      0x20\n      swap4\n      dup5\n      sub\n      0x0100\n      exp\n      not(0x00)\n      add\n      dup1\n      not\n      swap1\n      swap3\n      and\n      swap2\n      and\n      or\n      swap1\n      mstore\n      mload(0x40)\n      swap2\n      swap1\n      swap4\n      add\n      swap5\n      pop\n      swap2\n      swap3\n      pop\n      pop\n      dup1\n      dup4\n      sub\n      dup2\n      dup6\n      gas\n      staticcall\n      iszero\n      dup1\n      iszero\n      tag_66\n      jumpi\n      returndatasize\n      0x00\n      dup1\n      returndatacopy\n      revert(0x00, returndatasize)\n    tag_66:\n      pop\n      pop\n      pop\n      mload(0x40)\n      returndatasize\n      0x20\n      dup2\n      lt\n      iszero\n      tag_67\n      jumpi\n      0x00\n      dup1\n      revert\n    tag_67:\n      pop\n      mload\n        /* \"tenderly/project/Documents/DepositContract.sol\":7532:7584  sha256(abi.encodePacked(signature[64:], bytes32(0))) */\n      0x02\n        /* \"tenderly/project/Documents/DepositContract.sol\":7556:7570  signature[64:] */\n      tag_68\n        /* \"tenderly/project/Documents/DepositContract.sol\":7556:7565  signature */\n      dup10\n        /* \"tenderly/project/Documents/DepositContract.sol\":7566:7568  64 */\n      0x40\n        /* \"tenderly/project/Documents/DepositContract.sol\":7556:7565  signature */\n      dup2\n      dup14\n        /* \"tenderly/project/Documents/DepositContract.sol\":7556:7570  signature[64:] */\n      tag_61\n      jump\t// in\n    tag_68:\n        /* \"tenderly/project/Documents/DepositContract.sol\":7539:7583  abi.encodePacked(signature[64:], bytes32(0)) */\n      mload(0x40)\n        /* \"tenderly/project/Documents/DepositContract.sol\":7580:7581  0 */\n      0x00\n      swap1\n        /* \"tenderly/project/Documents/DepositContract.sol\":7539:7583  abi.encodePacked(signature[64:], bytes32(0)) */\n      0x20\n      add\n      dup1\n      dup5\n      dup5\n      dup1\n      dup3\n      dup5\n      calldatacopy\n      swap2\n      swap1\n      swap2\n      add\n      swap3\n      dup4\n      mstore\n      pop\n      pop\n      0x40\n      dup1\n      mload\n      dup1\n      dup4\n      sub\n      dup2\n      mstore\n      0x20\n      swap3\n      dup4\n      add\n      swap2\n      dup3\n      swap1\n      mstore\n        /* \"tenderly/project/Documents/DepositContract.sol\":7532:7584  sha256(abi.encodePacked(signature[64:], bytes32(0))) */\n      dup1\n      mload\n        /* \"tenderly/project/Documents/DepositContract.sol\":7539:7583  abi.encodePacked(signature[64:], bytes32(0)) */\n      swap1\n      swap5\n      pop\n      swap1\n      swap3\n      pop\n      dup3\n      swap2\n        /* \"tenderly/project/Documents/DepositContract.sol\":7532:7584  sha256(abi.encodePacked(signature[64:], bytes32(0))) */\n      dup5\n      add\n      swap1\n      dup1\n        /* \"tenderly/project/Documents/DepositContract.sol\":7539:7583  abi.encodePacked(signature[64:], bytes32(0)) */\n      dup4\n        /* \"tenderly/project/Documents/DepositContract.sol\":7532:7584  sha256(abi.encodePacked(signature[64:], bytes32(0))) */\n      dup4\n    tag_69:\n      0x20\n      dup4\n      lt\n      tag_71\n      jumpi\n      dup1\n      mload\n      dup3\n      mstore\n      not(0x1f)\n      swap1\n      swap3\n      add\n      swap2\n      0x20\n      swap2\n      dup3\n      add\n      swap2\n      add\n      jump(tag_69)\n    tag_71:\n      mload\n      dup2\n      mload\n      0x20\n      swap4\n      dup5\n      sub\n      0x0100\n      exp\n      not(0x00)\n      add\n      dup1\n      not\n      swap1\n      swap3\n      and\n      swap2\n      and\n      or\n      swap1\n      mstore\n      mload(0x40)\n      swap2\n      swap1\n      swap4\n      add\n      swap5\n      pop\n      swap2\n      swap3\n      pop\n      pop\n      dup1\n      dup4\n      sub\n      dup2\n      dup6\n      gas\n      staticcall\n      iszero\n      dup1\n      iszero\n      tag_73\n      jumpi\n      returndatasize\n      0x00\n      dup1\n      returndatacopy\n      revert(0x00, returndatasize)\n    tag_73:\n      pop\n      pop\n      pop\n      mload(0x40)\n      returndatasize\n      0x20\n      dup2\n      lt\n      iszero\n      tag_74\n      jumpi\n      0x00\n      dup1\n      revert\n    tag_74:\n      pop\n      mload\n        /* \"tenderly/project/Documents/DepositContract.sol\":7448:7594  abi.encodePacked(... */\n      0x40\n      dup1\n      mload\n        /* \"tenderly/project/Documents/DepositContract.sol\":7532:7584  sha256(abi.encodePacked(signature[64:], bytes32(0))) */\n      0x20\n        /* \"tenderly/project/Documents/DepositContract.sol\":7448:7594  abi.encodePacked(... */\n      dup2\n      dup2\n      add\n      swap5\n      swap1\n      swap5\n      mstore\n      dup1\n      dup3\n      add\n      swap3\n      swap1\n      swap3\n      mstore\n      dup1\n      mload\n      dup1\n      dup4\n      sub\n      dup3\n      add\n      dup2\n      mstore\n      0x60\n      swap1\n      swap3\n      add\n      swap1\n      dup2\n      swap1\n      mstore\n        /* \"tenderly/project/Documents/DepositContract.sol\":7441:7595  sha256(abi.encodePacked(... */\n      dup2\n      mload\n        /* \"tenderly/project/Documents/DepositContract.sol\":7448:7594  abi.encodePacked(... */\n      swap2\n      swap3\n      swap1\n      swap2\n      dup3\n      swap2\n        /* \"tenderly/project/Documents/DepositContract.sol\":7441:7595  sha256(abi.encodePacked(... */\n      dup5\n      add\n      swap1\n      dup1\n        /* \"tenderly/project/Documents/DepositContract.sol\":7448:7594  abi.encodePacked(... */\n      dup4\n        /* \"tenderly/project/Documents/DepositContract.sol\":7441:7595  sha256(abi.encodePacked(... */\n      dup4\n    tag_75:\n      0x20\n      dup4\n      lt\n      tag_77\n      jumpi\n      dup1\n      mload\n      dup3\n      mstore\n      not(0x1f)\n      swap1\n      swap3\n      add\n      swap2\n      0x20\n      swap2\n      dup3\n      add\n      swap2\n      add\n      jump(tag_75)\n    tag_77:\n      mload\n      dup2\n      mload\n      0x20\n      swap4\n      dup5\n      sub\n      0x0100\n      exp\n      not(0x00)\n      add\n      dup1\n      not\n      swap1\n      swap3\n      and\n      swap2\n      and\n      or\n      swap1\n      mstore\n      mload(0x40)\n      swap2\n      swap1\n      swap4\n      add\n      swap5\n      pop\n      swap2\n      swap3\n      pop\n      pop\n      dup1\n      dup4\n      sub\n      dup2\n      dup6\n      gas\n      staticcall\n      iszero\n      dup1\n      iszero\n      tag_79\n      jumpi\n      returndatasize\n      0x00\n      dup1\n      returndatacopy\n      revert(0x00, returndatasize)\n    tag_79:\n      pop\n      pop\n      pop\n      mload(0x40)\n      returndatasize\n      0x20\n      dup2\n      lt\n      iszero\n      tag_80\n      jumpi\n      0x00\n      dup1\n      revert\n    tag_80:\n      pop\n      mload\n        /* \"tenderly/project/Documents/DepositContract.sol\":7664:7717  abi.encodePacked(pubkey_root, withdrawal_credentials) */\n      0x40\n      dup1\n      mload\n        /* \"tenderly/project/Documents/DepositContract.sol\":7441:7595  sha256(abi.encodePacked(... */\n      0x20\n        /* \"tenderly/project/Documents/DepositContract.sol\":7664:7717  abi.encodePacked(pubkey_root, withdrawal_credentials) */\n      dup2\n      add\n      dup6\n      dup2\n      mstore\n        /* \"tenderly/project/Documents/DepositContract.sol\":7441:7595  sha256(abi.encodePacked(... */\n      swap3\n      swap4\n      pop\n        /* \"tenderly/project/Documents/DepositContract.sol\":7605:7617  bytes32 node */\n      0x00\n      swap3\n        /* \"tenderly/project/Documents/DepositContract.sol\":7620:7803  sha256(abi.encodePacked(... */\n      0x02\n      swap3\n      dup4\n      swap3\n        /* \"tenderly/project/Documents/DepositContract.sol\":7681:7692  pubkey_root */\n      dup8\n      swap3\n        /* \"tenderly/project/Documents/DepositContract.sol\":7694:7716  withdrawal_credentials */\n      dup16\n      swap3\n      dup16\n      swap3\n        /* \"tenderly/project/Documents/DepositContract.sol\":7664:7717  abi.encodePacked(pubkey_root, withdrawal_credentials) */\n      add\n        /* \"tenderly/project/Documents/DepositContract.sol\":7694:7716  withdrawal_credentials */\n      dup4\n      dup4\n      dup1\n      dup3\n        /* \"tenderly/project/Documents/DepositContract.sol\":7664:7717  abi.encodePacked(pubkey_root, withdrawal_credentials) */\n      dup5\n      calldatacopy\n      dup1\n      dup4\n      add\n      swap3\n      pop\n      pop\n      pop\n      swap4\n      pop\n      pop\n      pop\n      pop\n      mload(0x40)\n      0x20\n      dup2\n      dup4\n      sub\n      sub\n      dup2\n      mstore\n      swap1\n      0x40\n      mstore\n        /* \"tenderly/project/Documents/DepositContract.sol\":7657:7718  sha256(abi.encodePacked(pubkey_root, withdrawal_credentials)) */\n      mload(0x40)\n      dup1\n      dup3\n      dup1\n      mload\n      swap1\n      0x20\n      add\n      swap1\n      dup1\n      dup4\n      dup4\n    tag_81:\n      0x20\n      dup4\n      lt\n      tag_83\n      jumpi\n      dup1\n      mload\n      dup3\n      mstore\n      not(0x1f)\n      swap1\n      swap3\n      add\n      swap2\n      0x20\n      swap2\n      dup3\n      add\n      swap2\n      add\n      jump(tag_81)\n    tag_83:\n      mload\n      dup2\n      mload\n      0x20\n      swap4\n      dup5\n      sub\n      0x0100\n      exp\n      not(0x00)\n      add\n      dup1\n      not\n      swap1\n      swap3\n      and\n      swap2\n      and\n      or\n      swap1\n      mstore\n      mload(0x40)\n      swap2\n      swap1\n      swap4\n      add\n      swap5\n      pop\n      swap2\n      swap3\n      pop\n      pop\n      dup1\n      dup4\n      sub\n      dup2\n      dup6\n      gas\n      staticcall\n      iszero\n      dup1\n      iszero\n      tag_85\n      jumpi\n      returndatasize\n      0x00\n      dup1\n      returndatacopy\n      revert(0x00, returndatasize)\n    tag_85:\n      pop\n      pop\n      pop\n      mload(0x40)\n      returndatasize\n      0x20\n      dup2\n      lt\n      iszero\n      tag_86\n      jumpi\n      0x00\n      dup1\n      revert\n    tag_86:\n      pop\n      mload\n        /* \"tenderly/project/Documents/DepositContract.sol\":7764:7774  bytes24(0) */\n      0x40\n        /* \"tenderly/project/Documents/DepositContract.sol\":7739:7791  abi.encodePacked(amount, bytes24(0), signature_root) */\n      mload\n      dup7\n      mload\n        /* \"tenderly/project/Documents/DepositContract.sol\":7732:7792  sha256(abi.encodePacked(amount, bytes24(0), signature_root)) */\n      0x02\n      swap2\n        /* \"tenderly/project/Documents/DepositContract.sol\":7756:7762  amount */\n      dup9\n      swap2\n        /* \"tenderly/project/Documents/DepositContract.sol\":7772:7773  0 */\n      0x00\n      swap2\n        /* \"tenderly/project/Documents/DepositContract.sol\":7776:7790  signature_root */\n      dup9\n      swap2\n        /* \"tenderly/project/Documents/DepositContract.sol\":7657:7718  sha256(abi.encodePacked(pubkey_root, withdrawal_credentials)) */\n      0x20\n        /* \"tenderly/project/Documents/DepositContract.sol\":7739:7791  abi.encodePacked(amount, bytes24(0), signature_root) */\n      swap2\n      dup3\n      add\n      swap2\n      dup3\n      swap2\n      swap1\n      dup7\n      add\n      swap1\n      dup1\n      dup4\n      dup4\n    tag_87:\n      0x20\n      dup4\n      lt\n      tag_89\n      jumpi\n      dup1\n      mload\n      dup3\n      mstore\n      not(0x1f)\n      swap1\n      swap3\n      add\n      swap2\n      0x20\n      swap2\n      dup3\n      add\n      swap2\n      add\n      jump(tag_87)\n    tag_89:\n      0x01\n      dup4\n      0x20\n      sub\n      0x0100\n      exp\n      sub\n      dup1\n      not\n      dup3\n      mload\n      and\n      dup2\n      dup5\n      mload\n      and\n      dup1\n      dup3\n      or\n      dup6\n      mstore\n      pop\n      pop\n      pop\n      pop\n      pop\n      pop\n      swap1\n      pop\n      add\n      dup4\n      not(0xffffffffffffffff)\n      and\n      not(0xffffffffffffffff)\n      and\n      dup2\n      mstore\n      0x18\n      add\n      dup3\n      dup2\n      mstore\n      0x20\n      add\n      swap4\n      pop\n      pop\n      pop\n      pop\n      mload(0x40)\n      0x20\n      dup2\n      dup4\n      sub\n      sub\n      dup2\n      mstore\n      swap1\n      0x40\n      mstore\n        /* \"tenderly/project/Documents/DepositContract.sol\":7732:7792  sha256(abi.encodePacked(amount, bytes24(0), signature_root)) */\n      mload(0x40)\n      dup1\n      dup3\n      dup1\n      mload\n      swap1\n      0x20\n      add\n      swap1\n      dup1\n      dup4\n      dup4\n    tag_90:\n      0x20\n      dup4\n      lt\n      tag_92\n      jumpi\n      dup1\n      mload\n      dup3\n      mstore\n      not(0x1f)\n      swap1\n      swap3\n      add\n      swap2\n      0x20\n      swap2\n      dup3\n      add\n      swap2\n      add\n      jump(tag_90)\n    tag_92:\n      mload\n      dup2\n      mload\n      0x20\n      swap4\n      dup5\n      sub\n      0x0100\n      exp\n      not(0x00)\n      add\n      dup1\n      not\n      swap1\n      swap3\n      and\n      swap2\n      and\n      or\n      swap1\n      mstore\n      mload(0x40)\n      swap2\n      swap1\n      swap4\n      add\n      swap5\n      pop\n      swap2\n      swap3\n      pop\n      pop\n      dup1\n      dup4\n      sub\n      dup2\n      dup6\n      gas\n      staticcall\n      iszero\n      dup1\n      iszero\n      tag_94\n      jumpi\n      returndatasize\n      0x00\n      dup1\n      returndatacopy\n      revert(0x00, returndatasize)\n    tag_94:\n      pop\n      pop\n      pop\n      mload(0x40)\n      returndatasize\n      0x20\n      dup2\n      lt\n      iszero\n      tag_95\n      jumpi\n      0x00\n      dup1\n      revert\n    tag_95:\n      pop\n      mload\n        /* \"tenderly/project/Documents/DepositContract.sol\":7627:7802  abi.encodePacked(... */\n      0x40\n      dup1\n      mload\n        /* \"tenderly/project/Documents/DepositContract.sol\":7732:7792  sha256(abi.encodePacked(amount, bytes24(0), signature_root)) */\n      0x20\n        /* \"tenderly/project/Documents/DepositContract.sol\":7627:7802  abi.encodePacked(... */\n      dup2\n      dup2\n      add\n      swap5\n      swap1\n      swap5\n      mstore\n      dup1\n      dup3\n      add\n      swap3\n      swap1\n      swap3\n      mstore\n      dup1\n      mload\n      dup1\n      dup4\n      sub\n      dup3\n      add\n      dup2\n      mstore\n      0x60\n      swap1\n      swap3\n      add\n      swap1\n      dup2\n      swap1\n      mstore\n        /* \"tenderly/project/Documents/DepositContract.sol\":7620:7803  sha256(abi.encodePacked(... */\n      dup2\n      mload\n        /* \"tenderly/project/Documents/DepositContract.sol\":7627:7802  abi.encodePacked(... */\n      swap2\n      swap3\n      swap1\n      swap2\n      dup3\n      swap2\n        /* \"tenderly/project/Documents/DepositContract.sol\":7620:7803  sha256(abi.encodePacked(... */\n      dup5\n      add\n      swap1\n      dup1\n        /* \"tenderly/project/Documents/DepositContract.sol\":7627:7802  abi.encodePacked(... */\n      dup4\n        /* \"tenderly/project/Documents/DepositContract.sol\":7620:7803  sha256(abi.encodePacked(... */\n      dup4\n    tag_96:\n      0x20\n      dup4\n      lt\n      tag_98\n      jumpi\n      dup1\n      mload\n      dup3\n      mstore\n      not(0x1f)\n      swap1\n      swap3\n      add\n      swap2\n      0x20\n      swap2\n      dup3\n      add\n      swap2\n      add\n      jump(tag_96)\n    tag_98:\n      mload\n      dup2\n      mload\n      0x20\n      swap4\n      dup5\n      sub\n      0x0100\n      exp\n      not(0x00)\n      add\n      dup1\n      not\n      swap1\n      swap3\n      and\n      swap2\n      and\n      or\n      swap1\n      mstore\n      mload(0x40)\n      swap2\n      swap1\n      swap4\n      add\n      swap5\n      pop\n      swap2\n      swap3\n      pop\n      pop\n      dup1\n      dup4\n      sub\n      dup2\n      dup6\n      gas\n      staticcall\n      iszero\n      dup1\n      iszero\n      tag_100\n      jumpi\n      returndatasize\n      0x00\n      dup1\n      returndatacopy\n      revert(0x00, returndatasize)\n    tag_100:\n      pop\n      pop\n      pop\n      mload(0x40)\n      returndatasize\n      0x20\n      dup2\n      lt\n      iszero\n      tag_101\n      jumpi\n      0x00\n      dup1\n      revert\n    tag_101:\n      pop\n      mload\n      swap1\n      pop\n        /* \"tenderly/project/Documents/DepositContract.sol\":7887:7912  node == deposit_data_root */\n      dup6\n      dup2\n      eq\n        /* \"tenderly/project/Documents/DepositContract.sol\":7879:8001  require(node == deposit_data_root, \"DepositContract: reconstructed DepositData does not match supplied deposit_data_root\") */\n      tag_102\n      jumpi\n      mload(0x40)\n      shl(0xe5, 0x461bcd)\n      dup2\n      mstore\n      0x04\n      add\n      dup1\n      dup1\n      0x20\n      add\n      dup3\n      dup2\n      sub\n      dup3\n      mstore\n      0x54\n      dup2\n      mstore\n      0x20\n      add\n      dup1\n      data_18a67971568b2dbad4353dfdc385098cc004c2a5070a439e010bb919d851babb\n      0x54\n      swap2\n      codecopy\n      0x60\n      add\n      swap2\n      pop\n      pop\n      mload(0x40)\n      dup1\n      swap2\n      sub\n      swap1\n      revert\n    tag_102:\n        /* \"tenderly/project/Documents/DepositContract.sol\":4754:4756  32 */\n      0x20\n        /* \"tenderly/project/Documents/DepositContract.sol\":8111:8124  deposit_count */\n      sload\n        /* \"tenderly/project/Documents/DepositContract.sol\":4865:4899  2**DEPOSIT_CONTRACT_TREE_DEPTH - 1 */\n      0xffffffff\n      gt\n        /* \"tenderly/project/Documents/DepositContract.sol\":8103:8182  require(deposit_count < MAX_DEPOSIT_COUNT, \"DepositContract: merkle tree full\") */\n      tag_103\n      jumpi\n      mload(0x40)\n      shl(0xe5, 0x461bcd)\n      dup2\n      mstore\n      0x04\n      add\n      dup1\n      dup1\n      0x20\n      add\n      dup3\n      dup2\n      sub\n      dup3\n      mstore\n      0x21\n      dup2\n      mstore\n      0x20\n      add\n      dup1\n      data_122aa4bcac592fd535cb6d2558ebbf28083cd32a46ad577d847ea313cd3a6be7\n      0x21\n      swap2\n      codecopy\n      0x40\n      add\n      swap2\n      pop\n      pop\n      mload(0x40)\n      dup1\n      swap2\n      sub\n      swap1\n      revert\n    tag_103:\n        /* \"tenderly/project/Documents/DepositContract.sol\":8273:8286  deposit_count */\n      0x20\n        /* \"tenderly/project/Documents/DepositContract.sol\":8273:8291  deposit_count += 1 */\n      dup1\n      sload\n        /* \"tenderly/project/Documents/DepositContract.sol\":8290:8291  1 */\n      0x01\n        /* \"tenderly/project/Documents/DepositContract.sol\":8273:8291  deposit_count += 1 */\n      add\n      swap1\n      dup2\n      swap1\n      sstore\n        /* \"tenderly/project/Documents/DepositContract.sol\":8273:8286  deposit_count */\n      0x00\n        /* \"tenderly/project/Documents/DepositContract.sol\":8336:8619  for (uint height = 0; height < DEPOSIT_CONTRACT_TREE_DEPTH; height++) {... */\n    tag_104:\n        /* \"tenderly/project/Documents/DepositContract.sol\":4754:4756  32 */\n      0x20\n        /* \"tenderly/project/Documents/DepositContract.sol\":8358:8364  height */\n      dup2\n        /* \"tenderly/project/Documents/DepositContract.sol\":8358:8394  height < DEPOSIT_CONTRACT_TREE_DEPTH */\n      lt\n        /* \"tenderly/project/Documents/DepositContract.sol\":8336:8619  for (uint height = 0; height < DEPOSIT_CONTRACT_TREE_DEPTH; height++) {... */\n      iszero\n      tag_105\n      jumpi\n        /* \"tenderly/project/Documents/DepositContract.sol\":8425:8429  size */\n      dup2\n        /* \"tenderly/project/Documents/DepositContract.sol\":8432:8433  1 */\n      0x01\n        /* \"tenderly/project/Documents/DepositContract.sol\":8425:8433  size & 1 */\n      and\n        /* \"tenderly/project/Documents/DepositContract.sol\":8438:8439  1 */\n      0x01\n        /* \"tenderly/project/Documents/DepositContract.sol\":8424:8439  (size & 1) == 1 */\n      eq\n        /* \"tenderly/project/Documents/DepositContract.sol\":8420:8519  if ((size & 1) == 1) {... */\n      iszero\n      tag_107\n      jumpi\n        /* \"tenderly/project/Documents/DepositContract.sol\":8476:8480  node */\n      dup3\n        /* \"tenderly/project/Documents/DepositContract.sol\":8459:8465  branch */\n      0x00\n        /* \"tenderly/project/Documents/DepositContract.sol\":8466:8472  height */\n      dup3\n        /* \"tenderly/project/Documents/DepositContract.sol\":8459:8473  branch[height] */\n      0x20\n      dup2\n      lt\n      tag_108\n      jumpi\n      invalid\n    tag_108:\n      add\n        /* \"tenderly/project/Documents/DepositContract.sol\":8459:8480  branch[height] = node */\n      sstore\n      pop\n        /* \"tenderly/project/Documents/DepositContract.sol\":8498:8505  return; */\n      tag_34\n      swap6\n      pop\n      pop\n      pop\n      pop\n      pop\n      pop\n      jump\n        /* \"tenderly/project/Documents/DepositContract.sol\":8420:8519  if ((size & 1) == 1) {... */\n    tag_107:\n        /* \"tenderly/project/Documents/DepositContract.sol\":8539:8585  sha256(abi.encodePacked(branch[height], node)) */\n      0x02\n        /* \"tenderly/project/Documents/DepositContract.sol\":8563:8569  branch */\n      0x00\n        /* \"tenderly/project/Documents/DepositContract.sol\":8570:8576  height */\n      dup3\n        /* \"tenderly/project/Documents/DepositContract.sol\":8563:8577  branch[height] */\n      0x20\n      dup2\n      lt\n      tag_110\n      jumpi\n      invalid\n    tag_110:\n      add\n      sload\n        /* \"tenderly/project/Documents/DepositContract.sol\":8579:8583  node */\n      dup5\n        /* \"tenderly/project/Documents/DepositContract.sol\":8546:8584  abi.encodePacked(branch[height], node) */\n      add(0x20, mload(0x40))\n      dup1\n      dup4\n      dup2\n      mstore\n      0x20\n      add\n      dup3\n      dup2\n      mstore\n      0x20\n      add\n      swap3\n      pop\n      pop\n      pop\n      mload(0x40)\n      0x20\n      dup2\n      dup4\n      sub\n      sub\n      dup2\n      mstore\n      swap1\n      0x40\n      mstore\n        /* \"tenderly/project/Documents/DepositContract.sol\":8539:8585  sha256(abi.encodePacked(branch[height], node)) */\n      mload(0x40)\n      dup1\n      dup3\n      dup1\n      mload\n      swap1\n      0x20\n      add\n      swap1\n      dup1\n      dup4\n      dup4\n    tag_112:\n      0x20\n      dup4\n      lt\n      tag_114\n      jumpi\n      dup1\n      mload\n      dup3\n      mstore\n      not(0x1f)\n      swap1\n      swap3\n      add\n      swap2\n      0x20\n      swap2\n      dup3\n      add\n      swap2\n      add\n      jump(tag_112)\n    tag_114:\n      mload\n      dup2\n      mload\n      0x20\n      swap4\n      dup5\n      sub\n      0x0100\n      exp\n      not(0x00)\n      add\n      dup1\n      not\n      swap1\n      swap3\n      and\n      swap2\n      and\n      or\n      swap1\n      mstore\n      mload(0x40)\n      swap2\n      swap1\n      swap4\n      add\n      swap5\n      pop\n      swap2\n      swap3\n      pop\n      pop\n      dup1\n      dup4\n      sub\n      dup2\n      dup6\n      gas\n      staticcall\n      iszero\n      dup1\n      iszero\n      tag_116\n      jumpi\n      returndatasize\n      0x00\n      dup1\n      returndatacopy\n      revert(0x00, returndatasize)\n    tag_116:\n      pop\n      pop\n      pop\n      mload(0x40)\n      returndatasize\n      0x20\n      dup2\n      lt\n      iszero\n      tag_117\n      jumpi\n      0x00\n      dup1\n      revert\n    tag_117:\n      pop\n      mload\n      swap3\n      pop\n        /* \"tenderly/project/Documents/DepositContract.sol\":8607:8608  2 */\n      0x02\n        /* \"tenderly/project/Documents/DepositContract.sol\":8599:8608  size /= 2 */\n      dup3\n      div\n      swap2\n      pop\n        /* \"tenderly/project/Documents/DepositContract.sol\":8396:8404  height++ */\n      0x01\n      add\n        /* \"tenderly/project/Documents/DepositContract.sol\":8336:8619  for (uint height = 0; height < DEPOSIT_CONTRACT_TREE_DEPTH; height++) {... */\n      jump(tag_104)\n    tag_105:\n      pop\n        /* \"tenderly/project/Documents/DepositContract.sol\":8789:8802  assert(false) */\n      invalid\n        /* \"tenderly/project/Documents/DepositContract.sol\":6059:8809  function deposit(... */\n    tag_34:\n      pop\n      pop\n      pop\n      pop\n      pop\n      pop\n      pop\n      jump\t// out\n        /* \"tenderly/project/Documents/DepositContract.sol\":5912:6053  function get_deposit_count() override external view returns (bytes memory) {... */\n    tag_24:\n        /* \"tenderly/project/Documents/DepositContract.sol\":5973:5985  bytes memory */\n      0x60\n        /* \"tenderly/project/Documents/DepositContract.sol\":6004:6046  to_little_endian_64(uint64(deposit_count)) */\n      tag_121\n        /* \"tenderly/project/Documents/DepositContract.sol\":6031:6044  deposit_count */\n      sload(0x20)\n        /* \"tenderly/project/Documents/DepositContract.sol\":6004:6023  to_little_endian_64 */\n      tag_44\n        /* \"tenderly/project/Documents/DepositContract.sol\":6004:6046  to_little_endian_64(uint64(deposit_count)) */\n      jump\t// in\n    tag_121:\n        /* \"tenderly/project/Documents/DepositContract.sol\":5997:6046  return to_little_endian_64(uint64(deposit_count)) */\n      swap1\n      pop\n        /* \"tenderly/project/Documents/DepositContract.sol\":5912:6053  function get_deposit_count() override external view returns (bytes memory) {... */\n      swap1\n      jump\t// out\n        /* \"tenderly/project/Documents/DepositContract.sol\":5314:5906  function get_deposit_root() override external view returns (bytes32) {... */\n    tag_31:\n        /* \"tenderly/project/Documents/DepositContract.sol\":5427:5440  deposit_count */\n      sload(0x20)\n        /* \"tenderly/project/Documents/DepositContract.sol\":5374:5381  bytes32 */\n      0x00\n      swap1\n      dup2\n      swap1\n      dup2\n        /* \"tenderly/project/Documents/DepositContract.sol\":5450:5751  for (uint height = 0; height < DEPOSIT_CONTRACT_TREE_DEPTH; height++) {... */\n    tag_123:\n        /* \"tenderly/project/Documents/DepositContract.sol\":4754:4756  32 */\n      0x20\n        /* \"tenderly/project/Documents/DepositContract.sol\":5472:5478  height */\n      dup2\n        /* \"tenderly/project/Documents/DepositContract.sol\":5472:5508  height < DEPOSIT_CONTRACT_TREE_DEPTH */\n      lt\n        /* \"tenderly/project/Documents/DepositContract.sol\":5450:5751  for (uint height = 0; height < DEPOSIT_CONTRACT_TREE_DEPTH; height++) {... */\n      iszero\n      tag_124\n      jumpi\n        /* \"tenderly/project/Documents/DepositContract.sol\":5539:5543  size */\n      dup2\n        /* \"tenderly/project/Documents/DepositContract.sol\":5546:5547  1 */\n      0x01\n        /* \"tenderly/project/Documents/DepositContract.sol\":5539:5547  size & 1 */\n      and\n        /* \"tenderly/project/Documents/DepositContract.sol\":5552:5553  1 */\n      0x01\n        /* \"tenderly/project/Documents/DepositContract.sol\":5538:5553  (size & 1) == 1 */\n      eq\n        /* \"tenderly/project/Documents/DepositContract.sol\":5534:5717  if ((size & 1) == 1)... */\n      iszero\n      tag_126\n      jumpi\n        /* \"tenderly/project/Documents/DepositContract.sol\":5578:5624  sha256(abi.encodePacked(branch[height], node)) */\n      0x02\n        /* \"tenderly/project/Documents/DepositContract.sol\":5602:5608  branch */\n      0x00\n        /* \"tenderly/project/Documents/DepositContract.sol\":5609:5615  height */\n      dup3\n        /* \"tenderly/project/Documents/DepositContract.sol\":5602:5616  branch[height] */\n      0x20\n      dup2\n      lt\n      tag_127\n      jumpi\n      invalid\n    tag_127:\n      add\n      sload\n        /* \"tenderly/project/Documents/DepositContract.sol\":5618:5622  node */\n      dup5\n        /* \"tenderly/project/Documents/DepositContract.sol\":5585:5623  abi.encodePacked(branch[height], node) */\n      add(0x20, mload(0x40))\n      dup1\n      dup4\n      dup2\n      mstore\n      0x20\n      add\n      dup3\n      dup2\n      mstore\n      0x20\n      add\n      swap3\n      pop\n      pop\n      pop\n      mload(0x40)\n      0x20\n      dup2\n      dup4\n      sub\n      sub\n      dup2\n      mstore\n      swap1\n      0x40\n      mstore\n        /* \"tenderly/project/Documents/DepositContract.sol\":5578:5624  sha256(abi.encodePacked(branch[height], node)) */\n      mload(0x40)\n      dup1\n      dup3\n      dup1\n      mload\n      swap1\n      0x20\n      add\n      swap1\n      dup1\n      dup4\n      dup4\n    tag_129:\n      0x20\n      dup4\n      lt\n      tag_131\n      jumpi\n      dup1\n      mload\n      dup3\n      mstore\n      not(0x1f)\n      swap1\n      swap3\n      add\n      swap2\n      0x20\n      swap2\n      dup3\n      add\n      swap2\n      add\n      jump(tag_129)\n    tag_131:\n      mload\n      dup2\n      mload\n      0x20\n      swap4\n      dup5\n      sub\n      0x0100\n      exp\n      not(0x00)\n      add\n      dup1\n      not\n      swap1\n      swap3\n      and\n      swap2\n      and\n      or\n      swap1\n      mstore\n      mload(0x40)\n      swap2\n      swap1\n      swap4\n      add\n      swap5\n      pop\n      swap2\n      swap3\n      pop\n      pop\n      dup1\n      dup4\n      sub\n      dup2\n      dup6\n      gas\n      staticcall\n      iszero\n      dup1\n      iszero\n      tag_133\n      jumpi\n      returndatasize\n      0x00\n      dup1\n      returndatacopy\n      revert(0x00, returndatasize)\n    tag_133:\n      pop\n      pop\n      pop\n      mload(0x40)\n      returndatasize\n      0x20\n      dup2\n      lt\n      iszero\n      tag_134\n      jumpi\n      0x00\n      dup1\n      revert\n    tag_134:\n      pop\n      mload\n      swap3\n      pop\n        /* \"tenderly/project/Documents/DepositContract.sol\":5534:5717  if ((size & 1) == 1)... */\n      jump(tag_135)\n    tag_126:\n        /* \"tenderly/project/Documents/DepositContract.sol\":5666:5717  sha256(abi.encodePacked(node, zero_hashes[height])) */\n      0x02\n        /* \"tenderly/project/Documents/DepositContract.sol\":5690:5694  node */\n      dup4\n        /* \"tenderly/project/Documents/DepositContract.sol\":5696:5707  zero_hashes */\n      0x21\n        /* \"tenderly/project/Documents/DepositContract.sol\":5708:5714  height */\n      dup4\n        /* \"tenderly/project/Documents/DepositContract.sol\":5696:5715  zero_hashes[height] */\n      0x20\n      dup2\n      lt\n      tag_136\n      jumpi\n      invalid\n    tag_136:\n      add\n      sload\n        /* \"tenderly/project/Documents/DepositContract.sol\":5673:5716  abi.encodePacked(node, zero_hashes[height]) */\n      add(0x20, mload(0x40))\n      dup1\n      dup4\n      dup2\n      mstore\n      0x20\n      add\n      dup3\n      dup2\n      mstore\n      0x20\n      add\n      swap3\n      pop\n      pop\n      pop\n      mload(0x40)\n      0x20\n      dup2\n      dup4\n      sub\n      sub\n      dup2\n      mstore\n      swap1\n      0x40\n      mstore\n        /* \"tenderly/project/Documents/DepositContract.sol\":5666:5717  sha256(abi.encodePacked(node, zero_hashes[height])) */\n      mload(0x40)\n      dup1\n      dup3\n      dup1\n      mload\n      swap1\n      0x20\n      add\n      swap1\n      dup1\n      dup4\n      dup4\n    tag_138:\n      0x20\n      dup4\n      lt\n      tag_140\n      jumpi\n      dup1\n      mload\n      dup3\n      mstore\n      not(0x1f)\n      swap1\n      swap3\n      add\n      swap2\n      0x20\n      swap2\n      dup3\n      add\n      swap2\n      add\n      jump(tag_138)\n    tag_140:\n      mload\n      dup2\n      mload\n      0x20\n      swap4\n      dup5\n      sub\n      0x0100\n      exp\n      not(0x00)\n      add\n      dup1\n      not\n      swap1\n      swap3\n      and\n      swap2\n      and\n      or\n      swap1\n      mstore\n      mload(0x40)\n      swap2\n      swap1\n      swap4\n      add\n      swap5\n      pop\n      swap2\n      swap3\n      pop\n      pop\n      dup1\n      dup4\n      sub\n      dup2\n      dup6\n      gas\n      staticcall\n      iszero\n      dup1\n      iszero\n      tag_142\n      jumpi\n      returndatasize\n      0x00\n      dup1\n      returndatacopy\n      revert(0x00, returndatasize)\n    tag_142:\n      pop\n      pop\n      pop\n      mload(0x40)\n      returndatasize\n      0x20\n      dup2\n      lt\n      iszero\n      tag_143\n      jumpi\n      0x00\n      dup1\n      revert\n    tag_143:\n      pop\n      mload\n      swap3\n      pop\n        /* \"tenderly/project/Documents/DepositContract.sol\":5534:5717  if ((size & 1) == 1)... */\n    tag_135:\n        /* \"tenderly/project/Documents/DepositContract.sol\":5739:5740  2 */\n      0x02\n        /* \"tenderly/project/Documents/DepositContract.sol\":5731:5740  size /= 2 */\n      dup3\n      div\n      swap2\n      pop\n        /* \"tenderly/project/Documents/DepositContract.sol\":5510:5518  height++ */\n      0x01\n      add\n        /* \"tenderly/project/Documents/DepositContract.sol\":5450:5751  for (uint height = 0; height < DEPOSIT_CONTRACT_TREE_DEPTH; height++) {... */\n      jump(tag_123)\n    tag_124:\n      pop\n        /* \"tenderly/project/Documents/DepositContract.sol\":5767:5899  sha256(abi.encodePacked(... */\n      0x02\n        /* \"tenderly/project/Documents/DepositContract.sol\":5804:5808  node */\n      dup3\n        /* \"tenderly/project/Documents/DepositContract.sol\":5822:5864  to_little_endian_64(uint64(deposit_count)) */\n      tag_145\n        /* \"tenderly/project/Documents/DepositContract.sol\":5849:5862  deposit_count */\n      sload(0x20)\n        /* \"tenderly/project/Documents/DepositContract.sol\":5822:5841  to_little_endian_64 */\n      tag_44\n        /* \"tenderly/project/Documents/DepositContract.sol\":5822:5864  to_little_endian_64(uint64(deposit_count)) */\n      jump\t// in\n    tag_145:\n        /* \"tenderly/project/Documents/DepositContract.sol\":5886:5887  0 */\n      0x00\n        /* \"tenderly/project/Documents/DepositContract.sol\":5878:5888  bytes24(0) */\n      0x40\n      shl\n        /* \"tenderly/project/Documents/DepositContract.sol\":5774:5898  abi.encodePacked(... */\n      add(0x20, mload(0x40))\n      dup1\n      dup5\n      dup2\n      mstore\n      0x20\n      add\n      dup4\n      dup1\n      mload\n      swap1\n      0x20\n      add\n      swap1\n      dup1\n      dup4\n      dup4\n    tag_146:\n      0x20\n      dup4\n      lt\n      tag_148\n      jumpi\n      dup1\n      mload\n      dup3\n      mstore\n      not(0x1f)\n      swap1\n      swap3\n      add\n      swap2\n      0x20\n      swap2\n      dup3\n      add\n      swap2\n      add\n      jump(tag_146)\n    tag_148:\n      mload\n      dup2\n      mload\n      0x20\n      swap4\n      dup5\n      sub\n      0x0100\n      exp\n      not(0x00)\n      add\n      dup1\n      not\n      swap1\n      swap3\n      and\n      swap2\n      and\n      or\n      swap1\n      mstore\n      0xffffffffffffffffffffffffffffffffffffffffffffffff0000000000000000\n      swap6\n      swap1\n      swap6\n      and\n      swap3\n      add\n      swap2\n      dup3\n      mstore\n      pop\n      0x40\n      dup1\n      mload\n      dup1\n      dup4\n      sub\n      not(0x07)\n      add\n      dup2\n      mstore\n      0x18\n      swap1\n      swap3\n      add\n      swap1\n      dup2\n      swap1\n      mstore\n        /* \"tenderly/project/Documents/DepositContract.sol\":5767:5899  sha256(abi.encodePacked(... */\n      dup2\n      mload\n        /* \"tenderly/project/Documents/DepositContract.sol\":5774:5898  abi.encodePacked(... */\n      swap2\n      swap6\n      pop\n      swap4\n      pop\n      dup4\n      swap3\n        /* \"tenderly/project/Documents/DepositContract.sol\":5767:5899  sha256(abi.encodePacked(... */\n      dup6\n      add\n      swap2\n      pop\n      dup1\n        /* \"tenderly/project/Documents/DepositContract.sol\":5774:5898  abi.encodePacked(... */\n      dup4\n        /* \"tenderly/project/Documents/DepositContract.sol\":5767:5899  sha256(abi.encodePacked(... */\n      dup4\n    tag_149:\n      0x20\n      dup4\n      lt\n      tag_151\n      jumpi\n      dup1\n      mload\n      dup3\n      mstore\n      not(0x1f)\n      swap1\n      swap3\n      add\n      swap2\n      0x20\n      swap2\n      dup3\n      add\n      swap2\n      add\n      jump(tag_149)\n    tag_151:\n      mload\n      dup2\n      mload\n      0x20\n      swap4\n      dup5\n      sub\n      0x0100\n      exp\n      not(0x00)\n      add\n      dup1\n      not\n      swap1\n      swap3\n      and\n      swap2\n      and\n      or\n      swap1\n      mstore\n      mload(0x40)\n      swap2\n      swap1\n      swap4\n      add\n      swap5\n      pop\n      swap2\n      swap3\n      pop\n      pop\n      dup1\n      dup4\n      sub\n      dup2\n      dup6\n      gas\n      staticcall\n      iszero\n      dup1\n      iszero\n      tag_153\n      jumpi\n      returndatasize\n      0x00\n      dup1\n      returndatacopy\n      revert(0x00, returndatasize)\n    tag_153:\n      pop\n      pop\n      pop\n      mload(0x40)\n      returndatasize\n      0x20\n      dup2\n      lt\n      iszero\n      tag_154\n      jumpi\n      0x00\n      dup1\n      revert\n    tag_154:\n      pop\n      mload\n      swap3\n      pop\n      pop\n      pop\n        /* \"tenderly/project/Documents/DepositContract.sol\":5314:5906  function get_deposit_root() override external view returns (bytes32) {... */\n      swap1\n      jump\t// out\n        /* \"tenderly/project/Documents/DepositContract.sol\":9022:9489  function to_little_endian_64(uint64 value) internal pure returns (bytes memory ret) {... */\n    tag_44:\n        /* \"tenderly/project/Documents/DepositContract.sol\":9122:9134  new bytes(8) */\n      0x40\n      dup1\n      mload\n        /* \"tenderly/project/Documents/DepositContract.sol\":9132:9133  8 */\n      0x08\n        /* \"tenderly/project/Documents/DepositContract.sol\":9122:9134  new bytes(8) */\n      dup1\n      dup3\n      mstore\n      dup2\n      dup4\n      add\n      swap1\n      swap3\n      mstore\n        /* \"tenderly/project/Documents/DepositContract.sol\":9088:9104  bytes memory ret */\n      0x60\n      swap2\n        /* \"tenderly/project/Documents/DepositContract.sol\":9122:9134  new bytes(8) */\n      0x20\n      dup3\n      add\n      dup2\n      dup1\n      calldatasize\n      dup4\n      calldatacopy\n      add\n      swap1\n      pop\n      pop\n        /* \"tenderly/project/Documents/DepositContract.sol\":9116:9134  ret = new bytes(8) */\n      swap1\n      pop\n        /* \"tenderly/project/Documents/DepositContract.sol\":9164:9177  bytes8(value) */\n      0xc0\n      dup3\n      swap1\n      shl\n      dup1\n        /* \"tenderly/project/Documents/DepositContract.sol\":9256:9257  7 */\n      0x07\n        /* \"tenderly/project/Documents/DepositContract.sol\":9245:9258  bytesValue[7] */\n      byte\n      0xf8\n      shl\n        /* \"tenderly/project/Documents/DepositContract.sol\":9236:9239  ret */\n      dup3\n        /* \"tenderly/project/Documents/DepositContract.sol\":9240:9241  0 */\n      0x00\n        /* \"tenderly/project/Documents/DepositContract.sol\":9236:9242  ret[0] */\n      dup2\n      mload\n      dup2\n      lt\n      tag_159\n      jumpi\n      invalid\n    tag_159:\n      0x20\n      add\n      add\n        /* \"tenderly/project/Documents/DepositContract.sol\":9236:9258  ret[0] = bytesValue[7] */\n      swap1\n      not(sub(shl(0xf8, 0x01), 0x01))\n      and\n      swap1\n      dup2\n      0x00\n      byte\n      swap1\n      mstore8\n      pop\n        /* \"tenderly/project/Documents/DepositContract.sol\":9277:9287  bytesValue */\n      dup1\n        /* \"tenderly/project/Documents/DepositContract.sol\":9288:9289  6 */\n      0x06\n        /* \"tenderly/project/Documents/DepositContract.sol\":9277:9290  bytesValue[6] */\n      byte\n      0xf8\n      shl\n        /* \"tenderly/project/Documents/DepositContract.sol\":9268:9271  ret */\n      dup3\n        /* \"tenderly/project/Documents/DepositContract.sol\":9272:9273  1 */\n      0x01\n        /* \"tenderly/project/Documents/DepositContract.sol\":9268:9274  ret[1] */\n      dup2\n      mload\n      dup2\n      lt\n      tag_161\n      jumpi\n      invalid\n    tag_161:\n      0x20\n      add\n      add\n        /* \"tenderly/project/Documents/DepositContract.sol\":9268:9290  ret[1] = bytesValue[6] */\n      swap1\n      not(sub(shl(0xf8, 0x01), 0x01))\n      and\n      swap1\n      dup2\n      0x00\n      byte\n      swap1\n      mstore8\n      pop\n        /* \"tenderly/project/Documents/DepositContract.sol\":9309:9319  bytesValue */\n      dup1\n        /* \"tenderly/project/Documents/DepositContract.sol\":9320:9321  5 */\n      0x05\n        /* \"tenderly/project/Documents/DepositContract.sol\":9309:9322  bytesValue[5] */\n      byte\n      0xf8\n      shl\n        /* \"tenderly/project/Documents/DepositContract.sol\":9300:9303  ret */\n      dup3\n        /* \"tenderly/project/Documents/DepositContract.sol\":9304:9305  2 */\n      0x02\n        /* \"tenderly/project/Documents/DepositContract.sol\":9300:9306  ret[2] */\n      dup2\n      mload\n      dup2\n      lt\n      tag_163\n      jumpi\n      invalid\n    tag_163:\n      0x20\n      add\n      add\n        /* \"tenderly/project/Documents/DepositContract.sol\":9300:9322  ret[2] = bytesValue[5] */\n      swap1\n      not(sub(shl(0xf8, 0x01), 0x01))\n      and\n      swap1\n      dup2\n      0x00\n      byte\n      swap1\n      mstore8\n      pop\n        /* \"tenderly/project/Documents/DepositContract.sol\":9341:9351  bytesValue */\n      dup1\n        /* \"tenderly/project/Documents/DepositContract.sol\":9352:9353  4 */\n      0x04\n        /* \"tenderly/project/Documents/DepositContract.sol\":9341:9354  bytesValue[4] */\n      byte\n      0xf8\n      shl\n        /* \"tenderly/project/Documents/DepositContract.sol\":9332:9335  ret */\n      dup3\n        /* \"tenderly/project/Documents/DepositContract.sol\":9336:9337  3 */\n      0x03\n        /* \"tenderly/project/Documents/DepositContract.sol\":9332:9338  ret[3] */\n      dup2\n      mload\n      dup2\n      lt\n      tag_165\n      jumpi\n      invalid\n    tag_165:\n      0x20\n      add\n      add\n        /* \"tenderly/project/Documents/DepositContract.sol\":9332:9354  ret[3] = bytesValue[4] */\n      swap1\n      not(sub(shl(0xf8, 0x01), 0x01))\n      and\n      swap1\n      dup2\n      0x00\n      byte\n      swap1\n      mstore8\n      pop\n        /* \"tenderly/project/Documents/DepositContract.sol\":9373:9383  bytesValue */\n      dup1\n        /* \"tenderly/project/Documents/DepositContract.sol\":9384:9385  3 */\n      0x03\n        /* \"tenderly/project/Documents/DepositContract.sol\":9373:9386  bytesValue[3] */\n      byte\n      0xf8\n      shl\n        /* \"tenderly/project/Documents/DepositContract.sol\":9364:9367  ret */\n      dup3\n        /* \"tenderly/project/Documents/DepositContract.sol\":9368:9369  4 */\n      0x04\n        /* \"tenderly/project/Documents/DepositContract.sol\":9364:9370  ret[4] */\n      dup2\n      mload\n      dup2\n      lt\n      tag_167\n      jumpi\n      invalid\n    tag_167:\n      0x20\n      add\n      add\n        /* \"tenderly/project/Documents/DepositContract.sol\":9364:9386  ret[4] = bytesValue[3] */\n      swap1\n      not(sub(shl(0xf8, 0x01), 0x01))\n      and\n      swap1\n      dup2\n      0x00\n      byte\n      swap1\n      mstore8\n      pop\n        /* \"tenderly/project/Documents/DepositContract.sol\":9405:9415  bytesValue */\n      dup1\n        /* \"tenderly/project/Documents/DepositContract.sol\":9416:9417  2 */\n      0x02\n        /* \"tenderly/project/Documents/DepositContract.sol\":9405:9418  bytesValue[2] */\n      byte\n      0xf8\n      shl\n        /* \"tenderly/project/Documents/DepositContract.sol\":9396:9399  ret */\n      dup3\n        /* \"tenderly/project/Documents/DepositContract.sol\":9400:9401  5 */\n      0x05\n        /* \"tenderly/project/Documents/DepositContract.sol\":9396:9402  ret[5] */\n      dup2\n      mload\n      dup2\n      lt\n      tag_169\n      jumpi\n      invalid\n    tag_169:\n      0x20\n      add\n      add\n        /* \"tenderly/project/Documents/DepositContract.sol\":9396:9418  ret[5] = bytesValue[2] */\n      swap1\n      not(sub(shl(0xf8, 0x01), 0x01))\n      and\n      swap1\n      dup2\n      0x00\n      byte\n      swap1\n      mstore8\n      pop\n        /* \"tenderly/project/Documents/DepositContract.sol\":9437:9447  bytesValue */\n      dup1\n        /* \"tenderly/project/Documents/DepositContract.sol\":9448:9449  1 */\n      0x01\n        /* \"tenderly/project/Documents/DepositContract.sol\":9437:9450  bytesValue[1] */\n      byte\n      0xf8\n      shl\n        /* \"tenderly/project/Documents/DepositContract.sol\":9428:9431  ret */\n      dup3\n        /* \"tenderly/project/Documents/DepositContract.sol\":9432:9433  6 */\n      0x06\n        /* \"tenderly/project/Documents/DepositContract.sol\":9428:9434  ret[6] */\n      dup2\n      mload\n      dup2\n      lt\n      tag_171\n      jumpi\n      invalid\n    tag_171:\n      0x20\n      add\n      add\n        /* \"tenderly/project/Documents/DepositContract.sol\":9428:9450  ret[6] = bytesValue[1] */\n      swap1\n      not(sub(shl(0xf8, 0x01), 0x01))\n      and\n      swap1\n      dup2\n      0x00\n      byte\n      swap1\n      mstore8\n      pop\n        /* \"tenderly/project/Documents/DepositContract.sol\":9469:9479  bytesValue */\n      dup1\n        /* \"tenderly/project/Documents/DepositContract.sol\":9480:9481  0 */\n      0x00\n        /* \"tenderly/project/Documents/DepositContract.sol\":9469:9482  bytesValue[0] */\n      byte\n      0xf8\n      shl\n        /* \"tenderly/project/Documents/DepositContract.sol\":9460:9463  ret */\n      dup3\n        /* \"tenderly/project/Documents/DepositContract.sol\":9464:9465  7 */\n      0x07\n        /* \"tenderly/project/Documents/DepositContract.sol\":9460:9466  ret[7] */\n      dup2\n      mload\n      dup2\n      lt\n      tag_173\n      jumpi\n      invalid\n    tag_173:\n      0x20\n      add\n      add\n        /* \"tenderly/project/Documents/DepositContract.sol\":9460:9482  ret[7] = bytesValue[0] */\n      swap1\n      not(sub(shl(0xf8, 0x01), 0x01))\n      and\n      swap1\n      dup2\n      0x00\n      byte\n      swap1\n      mstore8\n      pop\n        /* \"tenderly/project/Documents/DepositContract.sol\":9022:9489  function to_little_endian_64(uint64 value) internal pure returns (bytes memory ret) {... */\n      pop\n      swap2\n      swap1\n      pop\n      jump\t// out\n        /* \"--CODEGEN--\":5:323   */\n    tag_61:\n      0x00\n      dup1\n        /* \"--CODEGEN--\":155:163   */\n      dup6\n        /* \"--CODEGEN--\":143:153   */\n      dup6\n        /* \"--CODEGEN--\":140:164   */\n      gt\n        /* \"--CODEGEN--\":137:139   */\n      iszero\n      tag_176\n      jumpi\n      dup2\n      dup3\n        /* \"--CODEGEN--\":167:179   */\n      revert\n        /* \"--CODEGEN--\":137:139   */\n    tag_176:\n        /* \"--CODEGEN--\":202:208   */\n      dup4\n        /* \"--CODEGEN--\":192:200   */\n      dup7\n        /* \"--CODEGEN--\":189:209   */\n      gt\n        /* \"--CODEGEN--\":186:188   */\n      iszero\n      tag_177\n      jumpi\n      dup2\n      dup3\n        /* \"--CODEGEN--\":212:224   */\n      revert\n        /* \"--CODEGEN--\":186:188   */\n    tag_177:\n      pop\n      pop\n        /* \"--CODEGEN--\":244:275   */\n      dup3\n      add\n      swap4\n        /* \"--CODEGEN--\":293:318   */\n      swap2\n      swap1\n      swap3\n      sub\n      swap2\n      pop\n        /* \"--CODEGEN--\":131:323   */\n      jump\t// out\n    stop\n    data_122aa4bcac592fd535cb6d2558ebbf28083cd32a46ad577d847ea313cd3a6be7 4465706f736974436f6e74726163743a206d65726b6c6520747265652066756c6c\n    data_18a67971568b2dbad4353dfdc385098cc004c2a5070a439e010bb919d851babb 4465706f736974436f6e74726163743a207265636f6e7374727563746564204465706f7369744461746120646f6573206e6f74206d6174636820737570706c696564206465706f7369745f646174615f726f6f74\n    data_747182c86d19950fc1e3554e7b3e3a1972fcfdcf01419aa5598a57f4869840e0 4465706f736974436f6e74726163743a20696e76616c6964207769746864726177616c5f63726564656e7469616c73206c656e677468\n    data_7db03c60fbfd1382397614fc537e65f67f687dbb18307bed297bda7f864590e0 4465706f736974436f6e74726163743a206465706f7369742076616c7565206e6f74206d756c7469706c65206f662067776569\n    data_c3b50b094eada99b5a9dfa8cfadfa82355edd40e0591c544071d0112172c4c5e 4465706f736974436f6e74726163743a20696e76616c6964207075626b6579206c656e677468\n    data_c445cee017c8884423c583c4e1697a8e774197f1748cc887aa73775ef891882f 4465706f736974436f6e74726163743a206465706f7369742076616c756520746f6f2068696768\n    data_d4d9a14975cc31a7dc18afc82ee6e59efa15377b990098eeaab4cc403f9d1217 4465706f736974436f6e74726163743a206465706f7369742076616c756520746f6f206c6f77\n    data_e15de1a983e2181dc403952307f19cbe1ac366f85accb46ba7ec34e71736287b 4465706f736974436f6e74726163743a20696e76616c6964207369676e6174757265206c656e677468\n\n    auxdata: 0xa26469706673582212207a48f2309607153c7f0dd97e8d80d488d8f674c90d00c6305bf5a022e3aa469f64736f6c634300060b0033\n}\n",
				"bytecode": {
					"linkReferences": {},
					"object": "608060405234801561001057600080fd5b5060005b601f8110156101025760026021826020811061002c57fe5b01546021836020811061003b57fe5b015460405160200180838152602001828152602001925050506040516020818303038152906040526040518082805190602001908083835b602083106100925780518252601f199092019160209182019101610073565b51815160209384036101000a60001901801990921691161790526040519190930194509192505080830381855afa1580156100d1573d6000803e3d6000fd5b5050506040513d60208110156100e657600080fd5b5051602160018301602081106100f857fe5b0155600101610014565b506113c2806101126000396000f3fe60806040526004361061003f5760003560e01c806301ffc9a71461004457806322895118146100a4578063621fd130146101ba578063c5f2892f14610244575b600080fd5b34801561005057600080fd5b506100906004803603602081101561006757600080fd5b50357fffffffff000000000000000000000000000000000000000000000000000000001661026b565b604080519115158252519081900360200190f35b6101b8600480360360808110156100ba57600080fd5b8101906020810181356401000000008111156100d557600080fd5b8201836020820111156100e757600080fd5b8035906020019184600183028401116401000000008311171561010957600080fd5b91939092909160208101903564010000000081111561012757600080fd5b82018360208201111561013957600080fd5b8035906020019184600183028401116401000000008311171561015b57600080fd5b91939092909160208101903564010000000081111561017957600080fd5b82018360208201111561018b57600080fd5b803590602001918460018302840111640100000000831117156101ad57600080fd5b919350915035610304565b005b3480156101c657600080fd5b506101cf610d6f565b6040805160208082528351818301528351919283929083019185019080838360005b838110156102095781810151838201526020016101f1565b50505050905090810190601f1680156102365780820380516001836020036101000a031916815260200191505b509250505060405180910390f35b34801561025057600080fd5b50610259610d81565b60408051918252519081900360200190f35b60007fffffffff0000000000000000000000000000000000000000000000000000000082167f01ffc9a70000000000000000000000000000000000000000000000000000000014806102fe57507fffffffff0000000000000000000000000000000000000000000000000000000082167f8564090700000000000000000000000000000000000000000000000000000000145b92915050565b603086146103435760405162461bcd60e51b81526004018080602001828103825260268152602001806112f16026913960400191505060405180910390fd5b602084146103825760405162461bcd60e51b81526004018080602001828103825260368152602001806112886036913960400191505060405180910390fd5b606082146103c15760405162461bcd60e51b81526004018080602001828103825260298152602001806113646029913960400191505060405180910390fd5b670de0b6b3a76400003410156104085760405162461bcd60e51b815260040180806020018281038252602681526020018061133e6026913960400191505060405180910390fd5b633b9aca0034061561044b5760405162461bcd60e51b81526004018080602001828103825260338152602001806112be6033913960400191505060405180910390fd5b633b9aca00340467ffffffffffffffff8111156104995760405162461bcd60e51b81526004018080602001828103825260278152602001806113176027913960400191505060405180910390fd5b60606104a482611066565b90507f649bbc62d0e31342afea4e5cd82d4049e7e1ee912fc0889aa790803be39038c589898989858a8a6104d9602054611066565b6040805160a0808252810189905290819060208201908201606083016080840160c085018e8e80828437600083820152601f01601f191690910187810386528c815260200190508c8c808284376000838201819052601f909101601f191690920188810386528c5181528c51602091820193918e019250908190849084905b83811015610570578181015183820152602001610558565b50505050905090810190601f16801561059d5780820380516001836020036101000a031916815260200191505b5086810383528881526020018989808284376000838201819052601f909101601f19169092018881038452895181528951602091820193918b019250908190849084905b838110156105f95781810151838201526020016105e1565b50505050905090810190601f1680156106265780820380516001836020036101000a031916815260200191505b509d505050505050505050505050505060405180910390a1600060028a8a600060801b604051602001808484808284377fffffffffffffffffffffffffffffffff000000000000000000000000000000009094169190930190815260408051600f19818403018152601090920190819052815191955093508392506020850191508083835b602083106106ca5780518252601f1990920191602091820191016106ab565b51815160209384036101000a60001901801990921691161790526040519190930194509192505080830381855afa158015610709573d6000803e3d6000fd5b5050506040513d602081101561071e57600080fd5b5051905060006002806107346040848a8c6111ea565b6040516020018083838082843780830192505050925050506040516020818303038152906040526040518082805190602001908083835b6020831061078a5780518252601f19909201916020918201910161076b565b51815160209384036101000a60001901801990921691161790526040519190930194509192505080830381855afa1580156107c9573d6000803e3d6000fd5b5050506040513d60208110156107de57600080fd5b505160026107ef896040818d6111ea565b60405160009060200180848480828437919091019283525050604080518083038152602092830191829052805190945090925082918401908083835b6020831061084a5780518252601f19909201916020918201910161082b565b51815160209384036101000a60001901801990921691161790526040519190930194509192505080830381855afa158015610889573d6000803e3d6000fd5b5050506040513d602081101561089e57600080fd5b5051604080516020818101949094528082019290925280518083038201815260609092019081905281519192909182918401908083835b602083106108f45780518252601f1990920191602091820191016108d5565b51815160209384036101000a60001901801990921691161790526040519190930194509192505080830381855afa158015610933573d6000803e3d6000fd5b5050506040513d602081101561094857600080fd5b50516040805160208101858152929350600092600292839287928f928f92018383808284378083019250505093505050506040516020818303038152906040526040518082805190602001908083835b602083106109b75780518252601f199092019160209182019101610998565b51815160209384036101000a60001901801990921691161790526040519190930194509192505080830381855afa1580156109f6573d6000803e3d6000fd5b5050506040513d6020811015610a0b57600080fd5b50516040518651600291889160009188916020918201918291908601908083835b60208310610a4b5780518252601f199092019160209182019101610a2c565b6001836020036101000a0380198251168184511680821785525050505050509050018367ffffffffffffffff191667ffffffffffffffff1916815260180182815260200193505050506040516020818303038152906040526040518082805190602001908083835b60208310610ad25780518252601f199092019160209182019101610ab3565b51815160209384036101000a60001901801990921691161790526040519190930194509192505080830381855afa158015610b11573d6000803e3d6000fd5b5050506040513d6020811015610b2657600080fd5b5051604080516020818101949094528082019290925280518083038201815260609092019081905281519192909182918401908083835b60208310610b7c5780518252601f199092019160209182019101610b5d565b51815160209384036101000a60001901801990921691161790526040519190930194509192505080830381855afa158015610bbb573d6000803e3d6000fd5b5050506040513d6020811015610bd057600080fd5b50519050858114610c125760405162461bcd60e51b81526004018080602001828103825260548152602001806112346054913960600191505060405180910390fd5b60205463ffffffff11610c565760405162461bcd60e51b81526004018080602001828103825260218152602001806112136021913960400191505060405180910390fd5b602080546001019081905560005b6020811015610d63578160011660011415610c96578260008260208110610c8757fe5b015550610d6695505050505050565b600260008260208110610ca557fe5b01548460405160200180838152602001828152602001925050506040516020818303038152906040526040518082805190602001908083835b60208310610cfd5780518252601f199092019160209182019101610cde565b51815160209384036101000a60001901801990921691161790526040519190930194509192505080830381855afa158015610d3c573d6000803e3d6000fd5b5050506040513d6020811015610d5157600080fd5b50519250600282049150600101610c64565b50fe5b50505050505050565b6060610d7c602054611066565b905090565b6020546000908190815b6020811015610f32578160011660011415610e6457600260008260208110610daf57fe5b01548460405160200180838152602001828152602001925050506040516020818303038152906040526040518082805190602001908083835b60208310610e075780518252601f199092019160209182019101610de8565b51815160209384036101000a60001901801990921691161790526040519190930194509192505080830381855afa158015610e46573d6000803e3d6000fd5b5050506040513d6020811015610e5b57600080fd5b50519250610f24565b60028360218360208110610e7457fe5b015460405160200180838152602001828152602001925050506040516020818303038152906040526040518082805190602001908083835b60208310610ecb5780518252601f199092019160209182019101610eac565b51815160209384036101000a60001901801990921691161790526040519190930194509192505080830381855afa158015610f0a573d6000803e3d6000fd5b5050506040513d6020811015610f1f57600080fd5b505192505b600282049150600101610d8b565b50600282610f41602054611066565b600060401b6040516020018084815260200183805190602001908083835b60208310610f7e5780518252601f199092019160209182019101610f5f565b51815160209384036101000a60001901801990921691161790527fffffffffffffffffffffffffffffffffffffffffffffffff00000000000000009590951692019182525060408051808303600719018152601890920190819052815191955093508392850191508083835b602083106110095780518252601f199092019160209182019101610fea565b51815160209384036101000a60001901801990921691161790526040519190930194509192505080830381855afa158015611048573d6000803e3d6000fd5b5050506040513d602081101561105d57600080fd5b50519250505090565b60408051600880825281830190925260609160208201818036833701905050905060c082901b8060071a60f81b826000815181106110a057fe5b60200101906001600160f81b031916908160001a9053508060061a60f81b826001815181106110cb57fe5b60200101906001600160f81b031916908160001a9053508060051a60f81b826002815181106110f657fe5b60200101906001600160f81b031916908160001a9053508060041a60f81b8260038151811061112157fe5b60200101906001600160f81b031916908160001a9053508060031a60f81b8260048151811061114c57fe5b60200101906001600160f81b031916908160001a9053508060021a60f81b8260058151811061117757fe5b60200101906001600160f81b031916908160001a9053508060011a60f81b826006815181106111a257fe5b60200101906001600160f81b031916908160001a9053508060001a60f81b826007815181106111cd57fe5b60200101906001600160f81b031916908160001a90535050919050565b600080858511156111f9578182fd5b83861115611205578182fd5b505082019391909203915056fe4465706f736974436f6e74726163743a206d65726b6c6520747265652066756c6c4465706f736974436f6e74726163743a207265636f6e7374727563746564204465706f7369744461746120646f6573206e6f74206d6174636820737570706c696564206465706f7369745f646174615f726f6f744465706f736974436f6e74726163743a20696e76616c6964207769746864726177616c5f63726564656e7469616c73206c656e6774684465706f736974436f6e74726163743a206465706f7369742076616c7565206e6f74206d756c7469706c65206f6620677765694465706f736974436f6e74726163743a20696e76616c6964207075626b6579206c656e6774684465706f736974436f6e74726163743a206465706f7369742076616c756520746f6f20686967684465706f736974436f6e74726163743a206465706f7369742076616c756520746f6f206c6f774465706f736974436f6e74726163743a20696e76616c6964207369676e6174757265206c656e677468a26469706673582212207a48f2309607153c7f0dd97e8d80d488d8f674c90d00c6305bf5a022e3aa469f64736f6c634300060b0033",
					"opcodes": "PUSH1 0x80 PUSH1 0x40 MSTORE CALLVALUE DUP1 ISZERO PUSH2 0x10 JUMPI PUSH1 0x0 DUP1 REVERT JUMPDEST POP PUSH1 0x0 JUMPDEST PUSH1 0x1F DUP2 LT ISZERO PUSH2 0x102 JUMPI PUSH1 0x2 PUSH1 0x21 DUP3 PUSH1 0x20 DUP2 LT PUSH2 0x2C JUMPI INVALID JUMPDEST ADD SLOAD PUSH1 0x21 DUP4 PUSH1 0x20 DUP2 LT PUSH2 0x3B JUMPI INVALID JUMPDEST ADD SLOAD PUSH1 0x40 MLOAD PUSH1 0x20 ADD DUP1 DUP4 DUP2 MSTORE PUSH1 0x20 ADD DUP3 DUP2 MSTORE PUSH1 0x20 ADD SWAP3 POP POP POP PUSH1 0x40 MLOAD PUSH1 0x20 DUP2 DUP4 SUB SUB DUP2 MSTORE SWAP1 PUSH1 0x40 MSTORE PUSH1 0x40 MLOAD DUP1 DUP3 DUP1 MLOAD SWAP1 PUSH1 0x20 ADD SWAP1 DUP1 DUP4 DUP4 JUMPDEST PUSH1 0x20 DUP4 LT PUSH2 0x92 JUMPI DUP1 MLOAD DUP3 MSTORE PUSH1 0x1F NOT SWAP1 SWAP3 ADD SWAP2 PUSH1 0x20 SWAP2 DUP3 ADD SWAP2 ADD PUSH2 0x73 JUMP JUMPDEST MLOAD DUP2 MLOAD PUSH1 0x20 SWAP4 DUP5 SUB PUSH2 0x100 EXP PUSH1 0x0 NOT ADD DUP1 NOT SWAP1 SWAP3 AND SWAP2 AND OR SWAP1 MSTORE PUSH1 0x40 MLOAD SWAP2 SWAP1 SWAP4 ADD SWAP5 POP SWAP2 SWAP3 POP POP DUP1 DUP4 SUB DUP2 DUP6 GAS STATICCALL ISZERO DUP1 ISZERO PUSH2 0xD1 JUMPI RETURNDATASIZE PUSH1 0x0 DUP1 RETURNDATACOPY RETURNDATASIZE PUSH1 0x0 REVERT JUMPDEST POP POP POP PUSH1 0x40 MLOAD RETURNDATASIZE PUSH1 0x20 DUP2 LT ISZERO PUSH2 0xE6 JUMPI PUSH1 0x0 DUP1 REVERT JUMPDEST POP MLOAD PUSH1 0x21 PUSH1 0x1 DUP4 ADD PUSH1 0x20 DUP2 LT PUSH2 0xF8 JUMPI INVALID JUMPDEST ADD SSTORE PUSH1 0x1 ADD PUSH2 0x14 JUMP JUMPDEST POP PUSH2 0x13C2 DUP1 PUSH2 0x112 PUSH1 0x0 CODECOPY PUSH1 0x0 RETURN INVALID PUSH1 0x80 PUSH1 0x40 MSTORE PUSH1 0x4 CALLDATASIZE LT PUSH2 0x3F JUMPI PUSH1 0x0 CALLDATALOAD PUSH1 0xE0 SHR DUP1 PUSH4 0x1FFC9A7 EQ PUSH2 0x44 JUMPI DUP1 PUSH4 0x22895118 EQ PUSH2 0xA4 JUMPI DUP1 PUSH4 0x621FD130 EQ PUSH2 0x1BA JUMPI DUP1 PUSH4 0xC5F2892F EQ PUSH2 0x244 JUMPI JUMPDEST PUSH1 0x0 DUP1 REVERT JUMPDEST CALLVALUE DUP1 ISZERO PUSH2 0x50 JUMPI PUSH1 0x0 DUP1 REVERT JUMPDEST POP PUSH2 0x90 PUSH1 0x4 DUP1 CALLDATASIZE SUB PUSH1 0x20 DUP2 LT ISZERO PUSH2 0x67 JUMPI PUSH1 0x0 DUP1 REVERT JUMPDEST POP CALLDATALOAD PUSH32 0xFFFFFFFF00000000000000000000000000000000000000000000000000000000 AND PUSH2 0x26B JUMP JUMPDEST PUSH1 0x40 DUP1 MLOAD SWAP2 ISZERO ISZERO DUP3 MSTORE MLOAD SWAP1 DUP2 SWAP1 SUB PUSH1 0x20 ADD SWAP1 RETURN JUMPDEST PUSH2 0x1B8 PUSH1 0x4 DUP1 CALLDATASIZE SUB PUSH1 0x80 DUP2 LT ISZERO PUSH2 0xBA JUMPI PUSH1 0x0 DUP1 REVERT JUMPDEST DUP2 ADD SWAP1 PUSH1 0x20 DUP2 ADD DUP2 CALLDATALOAD PUSH5 0x100000000 DUP2 GT ISZERO PUSH2 0xD5 JUMPI PUSH1 0x0 DUP1 REVERT JUMPDEST DUP3 ADD DUP4 PUSH1 0x20 DUP3 ADD GT ISZERO PUSH2 0xE7 JUMPI PUSH1 0x0 DUP1 REVERT JUMPDEST DUP1 CALLDATALOAD SWAP1 PUSH1 0x20 ADD SWAP2 DUP5 PUSH1 0x1 DUP4 MUL DUP5 ADD GT PUSH5 0x100000000 DUP4 GT OR ISZERO PUSH2 0x109 JUMPI PUSH1 0x0 DUP1 REVERT JUMPDEST SWAP2 SWAP4 SWAP1 SWAP3 SWAP1 SWAP2 PUSH1 0x20 DUP2 ADD SWAP1 CALLDATALOAD PUSH5 0x100000000 DUP2 GT ISZERO PUSH2 0x127 JUMPI PUSH1 0x0 DUP1 REVERT JUMPDEST DUP3 ADD DUP4 PUSH1 0x20 DUP3 ADD GT ISZERO PUSH2 0x139 JUMPI PUSH1 0x0 DUP1 REVERT JUMPDEST DUP1 CALLDATALOAD SWAP1 PUSH1 0x20 ADD SWAP2 DUP5 PUSH1 0x1 DUP4 MUL DUP5 ADD GT PUSH5 0x100000000 DUP4 GT OR ISZERO PUSH2 0x15B JUMPI PUSH1 0x0 DUP1 REVERT JUMPDEST SWAP2 SWAP4 SWAP1 SWAP3 SWAP1 SWAP2 PUSH1 0x20 DUP2 ADD SWAP1 CALLDATALOAD PUSH5 0x100000000 DUP2 GT ISZERO PUSH2 0x179 JUMPI PUSH1 0x0 DUP1 REVERT JUMPDEST DUP3 ADD DUP4 PUSH1 0x20 DUP3 ADD GT ISZERO PUSH2 0x18B JUMPI PUSH1 0x0 DUP1 REVERT JUMPDEST DUP1 CALLDATALOAD SWAP1 PUSH1 0x20 ADD SWAP2 DUP5 PUSH1 0x1 DUP4 MUL DUP5 ADD GT PUSH5 0x100000000 DUP4 GT OR ISZERO PUSH2 0x1AD JUMPI PUSH1 0x0 DUP1 REVERT JUMPDEST SWAP2 SWAP4 POP SWAP2 POP CALLDATALOAD PUSH2 0x304 JUMP JUMPDEST STOP JUMPDEST CALLVALUE DUP1 ISZERO PUSH2 0x1C6 JUMPI PUSH1 0x0 DUP1 REVERT JUMPDEST POP PUSH2 0x1CF PUSH2 0xD6F JUMP JUMPDEST PUSH1 0x40 DUP1 MLOAD PUSH1 0x20 DUP1 DUP3 MSTORE DUP4 MLOAD DUP2 DUP4 ADD MSTORE DUP4 MLOAD SWAP2 SWAP3 DUP4 SWAP3 SWAP1 DUP4 ADD SWAP2 DUP6 ADD SWAP1 DUP1 DUP4 DUP4 PUSH1 0x0 JUMPDEST DUP4 DUP2 LT ISZERO PUSH2 0x209 JUMPI DUP2 DUP2 ADD MLOAD DUP4 DUP3 ADD MSTORE PUSH1 0x20 ADD PUSH2 0x1F1 JUMP JUMPDEST POP POP POP POP SWAP1 POP SWAP1 DUP2 ADD SWAP1 PUSH1 0x1F AND DUP1 ISZERO PUSH2 0x236 JUMPI DUP1 DUP3 SUB DUP1 MLOAD PUSH1 0x1 DUP4 PUSH1 0x20 SUB PUSH2 0x100 EXP SUB NOT AND DUP2 MSTORE PUSH1 0x20 ADD SWAP2 POP JUMPDEST POP SWAP3 POP POP POP PUSH1 0x40 MLOAD DUP1 SWAP2 SUB SWAP1 RETURN JUMPDEST CALLVALUE DUP1 ISZERO PUSH2 0x250 JUMPI PUSH1 0x0 DUP1 REVERT JUMPDEST POP PUSH2 0x259 PUSH2 0xD81 JUMP JUMPDEST PUSH1 0x40 DUP1 MLOAD SWAP2 DUP3 MSTORE MLOAD SWAP1 DUP2 SWAP1 SUB PUSH1 0x20 ADD SWAP1 RETURN JUMPDEST PUSH1 0x0 PUSH32 0xFFFFFFFF00000000000000000000000000000000000000000000000000000000 DUP3 AND PUSH32 0x1FFC9A700000000000000000000000000000000000000000000000000000000 EQ DUP1 PUSH2 0x2FE JUMPI POP PUSH32 0xFFFFFFFF00000000000000000000000000000000000000000000000000000000 DUP3 AND PUSH32 0x8564090700000000000000000000000000000000000000000000000000000000 EQ JUMPDEST SWAP3 SWAP2 POP POP JUMP JUMPDEST PUSH1 0x30 DUP7 EQ PUSH2 0x343 JUMPI PUSH1 0x40 MLOAD PUSH3 0x461BCD PUSH1 0xE5 SHL DUP2 MSTORE PUSH1 0x4 ADD DUP1 DUP1 PUSH1 0x20 ADD DUP3 DUP2 SUB DUP3 MSTORE PUSH1 0x26 DUP2 MSTORE PUSH1 0x20 ADD DUP1 PUSH2 0x12F1 PUSH1 0x26 SWAP2 CODECOPY PUSH1 0x40 ADD SWAP2 POP POP PUSH1 0x40 MLOAD DUP1 SWAP2 SUB SWAP1 REVERT JUMPDEST PUSH1 0x20 DUP5 EQ PUSH2 0x382 JUMPI PUSH1 0x40 MLOAD PUSH3 0x461BCD PUSH1 0xE5 SHL DUP2 MSTORE PUSH1 0x4 ADD DUP1 DUP1 PUSH1 0x20 ADD DUP3 DUP2 SUB DUP3 MSTORE PUSH1 0x36 DUP2 MSTORE PUSH1 0x20 ADD DUP1 PUSH2 0x1288 PUSH1 0x36 SWAP2 CODECOPY PUSH1 0x40 ADD SWAP2 POP POP PUSH1 0x40 MLOAD DUP1 SWAP2 SUB SWAP1 REVERT JUMPDEST PUSH1 0x60 DUP3 EQ PUSH2 0x3C1 JUMPI PUSH1 0x40 MLOAD PUSH3 0x461BCD PUSH1 0xE5 SHL DUP2 MSTORE PUSH1 0x4 ADD DUP1 DUP1 PUSH1 0x20 ADD DUP3 DUP2 SUB DUP3 MSTORE PUSH1 0x29 DUP2 MSTORE PUSH1 0x20 ADD DUP1 PUSH2 0x1364 PUSH1 0x29 SWAP2 CODECOPY PUSH1 0x40 ADD SWAP2 POP POP PUSH1 0x40 MLOAD DUP1 SWAP2 SUB SWAP1 REVERT JUMPDEST PUSH8 0xDE0B6B3A7640000 CALLVALUE LT ISZERO PUSH2 0x408 JUMPI PUSH1 0x40 MLOAD PUSH3 0x461BCD PUSH1 0xE5 SHL DUP2 MSTORE PUSH1 0x4 ADD DUP1 DUP1 PUSH1 0x20 ADD DUP3 DUP2 SUB DUP3 MSTORE PUSH1 0x26 DUP2 MSTORE PUSH1 0x20 ADD DUP1 PUSH2 0x133E PUSH1 0x26 SWAP2 CODECOPY PUSH1 0x40 ADD SWAP2 POP POP PUSH1 0x40 MLOAD DUP1 SWAP2 SUB SWAP1 REVERT JUMPDEST PUSH4 0x3B9ACA00 CALLVALUE MOD ISZERO PUSH2 0x44B JUMPI PUSH1 0x40 MLOAD PUSH3 0x461BCD PUSH1 0xE5 SHL DUP2 MSTORE PUSH1 0x4 ADD DUP1 DUP1 PUSH1 0x20 ADD DUP3 DUP2 SUB DUP3 MSTORE PUSH1 0x33 DUP2 MSTORE PUSH1 0x20 ADD DUP1 PUSH2 0x12BE PUSH1 0x33 SWAP2 CODECOPY PUSH1 0x40 ADD SWAP2 POP POP PUSH1 0x40 MLOAD DUP1 SWAP2 SUB SWAP1 REVERT JUMPDEST PUSH4 0x3B9ACA00 CALLVALUE DIV PUSH8 0xFFFFFFFFFFFFFFFF DUP2 GT ISZERO PUSH2 0x499 JUMPI PUSH1 0x40 MLOAD PUSH3 0x461BCD PUSH1 0xE5 SHL DUP2 MSTORE PUSH1 0x4 ADD DUP1 DUP1 PUSH1 0x20 ADD DUP3 DUP2 SUB DUP3 MSTORE PUSH1 0x27 DUP2 MSTORE PUSH1 0x20 ADD DUP1 PUSH2 0x1317 PUSH1 0x27 SWAP2 CODECOPY PUSH1 0x40 ADD SWAP2 POP POP PUSH1 0x40 MLOAD DUP1 SWAP2 SUB SWAP1 REVERT JUMPDEST PUSH1 0x60 PUSH2 0x4A4 DUP3 PUSH2 0x1066 JUMP JUMPDEST SWAP1 POP PUSH32 0x649BBC62D0E31342AFEA4E5CD82D4049E7E1EE912FC0889AA790803BE39038C5 DUP10 DUP10 DUP10 DUP10 DUP6 DUP11 DUP11 PUSH2 0x4D9 PUSH1 0x20 SLOAD PUSH2 0x1066 JUMP JUMPDEST PUSH1 0x40 DUP1 MLOAD PUSH1 0xA0 DUP1 DUP3 MSTORE DUP2 ADD DUP10 SWAP1 MSTORE SWAP1 DUP2 SWAP1 PUSH1 0x20 DUP3 ADD SWAP1 DUP3 ADD PUSH1 0x60 DUP4 ADD PUSH1 0x80 DUP5 ADD PUSH1 0xC0 DUP6 ADD DUP15 DUP15 DUP1 DUP3 DUP5 CALLDATACOPY PUSH1 0x0 DUP4 DUP3 ADD MSTORE PUSH1 0x1F ADD PUSH1 0x1F NOT AND SWAP1 SWAP2 ADD DUP8 DUP2 SUB DUP7 MSTORE DUP13 DUP2 MSTORE PUSH1 0x20 ADD SWAP1 POP DUP13 DUP13 DUP1 DUP3 DUP5 CALLDATACOPY PUSH1 0x0 DUP4 DUP3 ADD DUP2 SWAP1 MSTORE PUSH1 0x1F SWAP1 SWAP2 ADD PUSH1 0x1F NOT AND SWAP1 SWAP3 ADD DUP9 DUP2 SUB DUP7 MSTORE DUP13 MLOAD DUP2 MSTORE DUP13 MLOAD PUSH1 0x20 SWAP2 DUP3 ADD SWAP4 SWAP2 DUP15 ADD SWAP3 POP SWAP1 DUP2 SWAP1 DUP5 SWAP1 DUP5 SWAP1 JUMPDEST DUP4 DUP2 LT ISZERO PUSH2 0x570 JUMPI DUP2 DUP2 ADD MLOAD DUP4 DUP3 ADD MSTORE PUSH1 0x20 ADD PUSH2 0x558 JUMP JUMPDEST POP POP POP POP SWAP1 POP SWAP1 DUP2 ADD SWAP1 PUSH1 0x1F AND DUP1 ISZERO PUSH2 0x59D JUMPI DUP1 DUP3 SUB DUP1 MLOAD PUSH1 0x1 DUP4 PUSH1 0x20 SUB PUSH2 0x100 EXP SUB NOT AND DUP2 MSTORE PUSH1 0x20 ADD SWAP2 POP JUMPDEST POP DUP7 DUP2 SUB DUP4 MSTORE DUP9 DUP2 MSTORE PUSH1 0x20 ADD DUP10 DUP10 DUP1 DUP3 DUP5 CALLDATACOPY PUSH1 0x0 DUP4 DUP3 ADD DUP2 SWAP1 MSTORE PUSH1 0x1F SWAP1 SWAP2 ADD PUSH1 0x1F NOT AND SWAP1 SWAP3 ADD DUP9 DUP2 SUB DUP5 MSTORE DUP10 MLOAD DUP2 MSTORE DUP10 MLOAD PUSH1 0x20 SWAP2 DUP3 ADD SWAP4 SWAP2 DUP12 ADD SWAP3 POP SWAP1 DUP2 SWAP1 DUP5 SWAP1 DUP5 SWAP1 JUMPDEST DUP4 DUP2 LT ISZERO PUSH2 0x5F9 JUMPI DUP2 DUP2 ADD MLOAD DUP4 DUP3 ADD MSTORE PUSH1 0x20 ADD PUSH2 0x5E1 JUMP JUMPDEST POP POP POP POP SWAP1 POP SWAP1 DUP2 ADD SWAP1 PUSH1 0x1F AND DUP1 ISZERO PUSH2 0x626 JUMPI DUP1 DUP3 SUB DUP1 MLOAD PUSH1 0x1 DUP4 PUSH1 0x20 SUB PUSH2 0x100 EXP SUB NOT AND DUP2 MSTORE PUSH1 0x20 ADD SWAP2 POP JUMPDEST POP SWAP14 POP POP POP POP POP POP POP POP POP POP POP POP POP POP PUSH1 0x40 MLOAD DUP1 SWAP2 SUB SWAP1 LOG1 PUSH1 0x0 PUSH1 0x2 DUP11 DUP11 PUSH1 0x0 PUSH1 0x80 SHL PUSH1 0x40 MLOAD PUSH1 0x20 ADD DUP1 DUP5 DUP5 DUP1 DUP3 DUP5 CALLDATACOPY PUSH32 0xFFFFFFFFFFFFFFFFFFFFFFFFFFFFFFFF00000000000000000000000000000000 SWAP1 SWAP5 AND SWAP2 SWAP1 SWAP4 ADD SWAP1 DUP2 MSTORE PUSH1 0x40 DUP1 MLOAD PUSH1 0xF NOT DUP2 DUP5 SUB ADD DUP2 MSTORE PUSH1 0x10 SWAP1 SWAP3 ADD SWAP1 DUP2 SWAP1 MSTORE DUP2 MLOAD SWAP2 SWAP6 POP SWAP4 POP DUP4 SWAP3 POP PUSH1 0x20 DUP6 ADD SWAP2 POP DUP1 DUP4 DUP4 JUMPDEST PUSH1 0x20 DUP4 LT PUSH2 0x6CA JUMPI DUP1 MLOAD DUP3 MSTORE PUSH1 0x1F NOT SWAP1 SWAP3 ADD SWAP2 PUSH1 0x20 SWAP2 DUP3 ADD SWAP2 ADD PUSH2 0x6AB JUMP JUMPDEST MLOAD DUP2 MLOAD PUSH1 0x20 SWAP4 DUP5 SUB PUSH2 0x100 EXP PUSH1 0x0 NOT ADD DUP1 NOT SWAP1 SWAP3 AND SWAP2 AND OR SWAP1 MSTORE PUSH1 0x40 MLOAD SWAP2 SWAP1 SWAP4 ADD SWAP5 POP SWAP2 SWAP3 POP POP DUP1 DUP4 SUB DUP2 DUP6 GAS STATICCALL ISZERO DUP1 ISZERO PUSH2 0x709 JUMPI RETURNDATASIZE PUSH1 0x0 DUP1 RETURNDATACOPY RETURNDATASIZE PUSH1 0x0 REVERT JUMPDEST POP POP POP PUSH1 0x40 MLOAD RETURNDATASIZE PUSH1 0x20 DUP2 LT ISZERO PUSH2 0x71E JUMPI PUSH1 0x0 DUP1 REVERT JUMPDEST POP MLOAD SWAP1 POP PUSH1 0x0 PUSH1 0x2 DUP1 PUSH2 0x734 PUSH1 0x40 DUP5 DUP11 DUP13 PUSH2 0x11EA JUMP JUMPDEST PUSH1 0x40 MLOAD PUSH1 0x20 ADD DUP1 DUP4 DUP4 DUP1 DUP3 DUP5 CALLDATACOPY DUP1 DUP4 ADD SWAP3 POP POP POP SWAP3 POP POP POP PUSH1 0x40 MLOAD PUSH1 0x20 DUP2 DUP4 SUB SUB DUP2 MSTORE SWAP1 PUSH1 0x40 MSTORE PUSH1 0x40 MLOAD DUP1 DUP3 DUP1 MLOAD SWAP1 PUSH1 0x20 ADD SWAP1 DUP1 DUP4 DUP4 JUMPDEST PUSH1 0x20 DUP4 LT PUSH2 0x78A JUMPI DUP1 MLOAD DUP3 MSTORE PUSH1 0x1F NOT SWAP1 SWAP3 ADD SWAP2 PUSH1 0x20 SWAP2 DUP3 ADD SWAP2 ADD PUSH2 0x76B JUMP JUMPDEST MLOAD DUP2 MLOAD PUSH1 0x20 SWAP4 DUP5 SUB PUSH2 0x100 EXP PUSH1 0x0 NOT ADD DUP1 NOT SWAP1 SWAP3 AND SWAP2 AND OR SWAP1 MSTORE PUSH1 0x40 MLOAD SWAP2 SWAP1 SWAP4 ADD SWAP5 POP SWAP2 SWAP3 POP POP DUP1 DUP4 SUB DUP2 DUP6 GAS STATICCALL ISZERO DUP1 ISZERO PUSH2 0x7C9 JUMPI RETURNDATASIZE PUSH1 0x0 DUP1 RETURNDATACOPY RETURNDATASIZE PUSH1 0x0 REVERT JUMPDEST POP POP POP PUSH1 0x40 MLOAD RETURNDATASIZE PUSH1 0x20 DUP2 LT ISZERO PUSH2 0x7DE JUMPI PUSH1 0x0 DUP1 REVERT JUMPDEST POP MLOAD PUSH1 0x2 PUSH2 0x7EF DUP10 PUSH1 0x40 DUP2 DUP14 PUSH2 0x11EA JUMP JUMPDEST PUSH1 0x40 MLOAD PUSH1 0x0 SWAP1 PUSH1 0x20 ADD DUP1 DUP5 DUP5 DUP1 DUP3 DUP5 CALLDATACOPY SWAP2 SWAP1 SWAP2 ADD SWAP3 DUP4 MSTORE POP POP PUSH1 0x40 DUP1 MLOAD DUP1 DUP4 SUB DUP2 MSTORE PUSH1 0x20 SWAP3 DUP4 ADD SWAP2 DUP3 SWAP1 MSTORE DUP1 MLOAD SWAP1 SWAP5 POP SWAP1 SWAP3 POP DUP3 SWAP2 DUP5 ADD SWAP1 DUP1 DUP4 DUP4 JUMPDEST PUSH1 0x20 DUP4 LT PUSH2 0x84A JUMPI DUP1 MLOAD DUP3 MSTORE PUSH1 0x1F NOT SWAP1 SWAP3 ADD SWAP2 PUSH1 0x20 SWAP2 DUP3 ADD SWAP2 ADD PUSH2 0x82B JUMP JUMPDEST MLOAD DUP2 MLOAD PUSH1 0x20 SWAP4 DUP5 SUB PUSH2 0x100 EXP PUSH1 0x0 NOT ADD DUP1 NOT SWAP1 SWAP3 AND SWAP2 AND OR SWAP1 MSTORE PUSH1 0x40 MLOAD SWAP2 SWAP1 SWAP4 ADD SWAP5 POP SWAP2 SWAP3 POP POP DUP1 DUP4 SUB DUP2 DUP6 GAS STATICCALL ISZERO DUP1 ISZERO PUSH2 0x889 JUMPI RETURNDATASIZE PUSH1 0x0 DUP1 RETURNDATACOPY RETURNDATASIZE PUSH1 0x0 REVERT JUMPDEST POP POP POP PUSH1 0x40 MLOAD RETURNDATASIZE PUSH1 0x20 DUP2 LT ISZERO PUSH2 0x89E JUMPI PUSH1 0x0 DUP1 REVERT JUMPDEST POP MLOAD PUSH1 0x40 DUP1 MLOAD PUSH1 0x20 DUP2 DUP2 ADD SWAP5 SWAP1 SWAP5 MSTORE DUP1 DUP3 ADD SWAP3 SWAP1 SWAP3 MSTORE DUP1 MLOAD DUP1 DUP4 SUB DUP3 ADD DUP2 MSTORE PUSH1 0x60 SWAP1 SWAP3 ADD SWAP1 DUP2 SWAP1 MSTORE DUP2 MLOAD SWAP2 SWAP3 SWAP1 SWAP2 DUP3 SWAP2 DUP5 ADD SWAP1 DUP1 DUP4 DUP4 JUMPDEST PUSH1 0x20 DUP4 LT PUSH2 0x8F4 JUMPI DUP1 MLOAD DUP3 MSTORE PUSH1 0x1F NOT SWAP1 SWAP3 ADD SWAP2 PUSH1 0x20 SWAP2 DUP3 ADD SWAP2 ADD PUSH2 0x8D5 JUMP JUMPDEST MLOAD DUP2 MLOAD PUSH1 0x20 SWAP4 DUP5 SUB PUSH2 0x100 EXP PUSH1 0x0 NOT ADD DUP1 NOT SWAP1 SWAP3 AND SWAP2 AND OR SWAP1 MSTORE PUSH1 0x40 MLOAD SWAP2 SWAP1 SWAP4 ADD SWAP5 POP SWAP2 SWAP3 POP POP DUP1 DUP4 SUB DUP2 DUP6 GAS STATICCALL ISZERO DUP1 ISZERO PUSH2 0x933 JUMPI RETURNDATASIZE PUSH1 0x0 DUP1 RETURNDATACOPY RETURNDATASIZE PUSH1 0x0 REVERT JUMPDEST POP POP POP PUSH1 0x40 MLOAD RETURNDATASIZE PUSH1 0x20 DUP2 LT ISZERO PUSH2 0x948 JUMPI PUSH1 0x0 DUP1 REVERT JUMPDEST POP MLOAD PUSH1 0x40 DUP1 MLOAD PUSH1 0x20 DUP2 ADD DUP6 DUP2 MSTORE SWAP3 SWAP4 POP PUSH1 0x0 SWAP3 PUSH1 0x2 SWAP3 DUP4 SWAP3 DUP8 SWAP3 DUP16 SWAP3 DUP16 SWAP3 ADD DUP4 DUP4 DUP1 DUP3 DUP5 CALLDATACOPY DUP1 DUP4 ADD SWAP3 POP POP POP SWAP4 POP POP POP POP PUSH1 0x40 MLOAD PUSH1 0x20 DUP2 DUP4 SUB SUB DUP2 MSTORE SWAP1 PUSH1 0x40 MSTORE PUSH1 0x40 MLOAD DUP1 DUP3 DUP1 MLOAD SWAP1 PUSH1 0x20 ADD SWAP1 DUP1 DUP4 DUP4 JUMPDEST PUSH1 0x20 DUP4 LT PUSH2 0x9B7 JUMPI DUP1 MLOAD DUP3 MSTORE PUSH1 0x1F NOT SWAP1 SWAP3 ADD SWAP2 PUSH1 0x20 SWAP2 DUP3 ADD SWAP2 ADD PUSH2 0x998 JUMP JUMPDEST MLOAD DUP2 MLOAD PUSH1 0x20 SWAP4 DUP5 SUB PUSH2 0x100 EXP PUSH1 0x0 NOT ADD DUP1 NOT SWAP1 SWAP3 AND SWAP2 AND OR SWAP1 MSTORE PUSH1 0x40 MLOAD SWAP2 SWAP1 SWAP4 ADD SWAP5 POP SWAP2 SWAP3 POP POP DUP1 DUP4 SUB DUP2 DUP6 GAS STATICCALL ISZERO DUP1 ISZERO PUSH2 0x9F6 JUMPI RETURNDATASIZE PUSH1 0x0 DUP1 RETURNDATACOPY RETURNDATASIZE PUSH1 0x0 REVERT JUMPDEST POP POP POP PUSH1 0x40 MLOAD RETURNDATASIZE PUSH1 0x20 DUP2 LT ISZERO PUSH2 0xA0B JUMPI PUSH1 0x0 DUP1 REVERT JUMPDEST POP MLOAD PUSH1 0x40 MLOAD DUP7 MLOAD PUSH1 0x2 SWAP2 DUP9 SWAP2 PUSH1 0x0 SWAP2 DUP9 SWAP2 PUSH1 0x20 SWAP2 DUP3 ADD SWAP2 DUP3 SWAP2 SWAP1 DUP7 ADD SWAP1 DUP1 DUP4 DUP4 JUMPDEST PUSH1 0x20 DUP4 LT PUSH2 0xA4B JUMPI DUP1 MLOAD DUP3 MSTORE PUSH1 0x1F NOT SWAP1 SWAP3 ADD SWAP2 PUSH1 0x20 SWAP2 DUP3 ADD SWAP2 ADD PUSH2 0xA2C JUMP JUMPDEST PUSH1 0x1 DUP4 PUSH1 0x20 SUB PUSH2 0x100 EXP SUB DUP1 NOT DUP3 MLOAD AND DUP2 DUP5 MLOAD AND DUP1 DUP3 OR DUP6 MSTORE POP POP POP POP POP POP SWAP1 POP ADD DUP4 PUSH8 0xFFFFFFFFFFFFFFFF NOT AND PUSH8 0xFFFFFFFFFFFFFFFF NOT AND DUP2 MSTORE PUSH1 0x18 ADD DUP3 DUP2 MSTORE PUSH1 0x20 ADD SWAP4 POP POP POP POP PUSH1 0x40 MLOAD PUSH1 0x20 DUP2 DUP4 SUB SUB DUP2 MSTORE SWAP1 PUSH1 0x40 MSTORE PUSH1 0x40 MLOAD DUP1 DUP3 DUP1 MLOAD SWAP1 PUSH1 0x20 ADD SWAP1 DUP1 DUP4 DUP4 JUMPDEST PUSH1 0x20 DUP4 LT PUSH2 0xAD2 JUMPI DUP1 MLOAD DUP3 MSTORE PUSH1 0x1F NOT SWAP1 SWAP3 ADD SWAP2 PUSH1 0x20 SWAP2 DUP3 ADD SWAP2 ADD PUSH2 0xAB3 JUMP JUMPDEST MLOAD DUP2 MLOAD PUSH1 0x20 SWAP4 DUP5 SUB PUSH2 0x100 EXP PUSH1 0x0 NOT ADD DUP1 NOT SWAP1 SWAP3 AND SWAP2 AND OR SWAP1 MSTORE PUSH1 0x40 MLOAD SWAP2 SWAP1 SWAP4 ADD SWAP5 POP SWAP2 SWAP3 POP POP DUP1 DUP4 SUB DUP2 DUP6 GAS STATICCALL ISZERO DUP1 ISZERO PUSH2 0xB11 JUMPI RETURNDATASIZE PUSH1 0x0 DUP1 RETURNDATACOPY RETURNDATASIZE PUSH1 0x0 REVERT JUMPDEST POP POP POP PUSH1 0x40 MLOAD RETURNDATASIZE PUSH1 0x20 DUP2 LT ISZERO PUSH2 0xB26 JUMPI PUSH1 0x0 DUP1 REVERT JUMPDEST POP MLOAD PUSH1 0x40 DUP1 MLOAD PUSH1 0x20 DUP2 DUP2 ADD SWAP5 SWAP1 SWAP5 MSTORE DUP1 DUP3 ADD SWAP3 SWAP1 SWAP3 MSTORE DUP1 MLOAD DUP1 DUP4 SUB DUP3 ADD DUP2 MSTORE PUSH1 0x60 SWAP1 SWAP3 ADD SWAP1 DUP2 SWAP1 MSTORE DUP2 MLOAD SWAP2 SWAP3 SWAP1 SWAP2 DUP3 SWAP2 DUP5 ADD SWAP1 DUP1 DUP4 DUP4 JUMPDEST PUSH1 0x20 DUP4 LT PUSH2 0xB7C JUMPI DUP1 MLOAD DUP3 MSTORE PUSH1 0x1F NOT SWAP1 SWAP3 ADD SWAP2 PUSH1 0x20 SWAP2 DUP3 ADD SWAP2 ADD PUSH2 0xB5D JUMP JUMPDEST MLOAD DUP2 MLOAD PUSH1 0x20 SWAP4 DUP5 SUB PUSH2 0x100 EXP PUSH1 0x0 NOT ADD DUP1 NOT SWAP1 SWAP3 AND SWAP2 AND OR SWAP1 MSTORE PUSH1 0x40 MLOAD SWAP2 SWAP1 SWAP4 ADD SWAP5 POP SWAP2 SWAP3 POP POP DUP1 DUP4 SUB DUP2 DUP6 GAS STATICCALL ISZERO DUP1 ISZERO PUSH2 0xBBB JUMPI RETURNDATASIZE PUSH1 0x0 DUP1 RETURNDATACOPY RETURNDATASIZE PUSH1 0x0 REVERT JUMPDEST POP POP POP PUSH1 0x40 MLOAD RETURNDATASIZE PUSH1 0x20 DUP2 LT ISZERO PUSH2 0xBD0 JUMPI PUSH1 0x0 DUP1 REVERT JUMPDEST POP MLOAD SWAP1 POP DUP6 DUP2 EQ PUSH2 0xC12 JUMPI PUSH1 0x40 MLOAD PUSH3 0x461BCD PUSH1 0xE5 SHL DUP2 MSTORE PUSH1 0x4 ADD DUP1 DUP1 PUSH1 0x20 ADD DUP3 DUP2 SUB DUP3 MSTORE PUSH1 0x54 DUP2 MSTORE PUSH1 0x20 ADD DUP1 PUSH2 0x1234 PUSH1 0x54 SWAP2 CODECOPY PUSH1 0x60 ADD SWAP2 POP POP PUSH1 0x40 MLOAD DUP1 SWAP2 SUB SWAP1 REVERT JUMPDEST PUSH1 0x20 SLOAD PUSH4 0xFFFFFFFF GT PUSH2 0xC56 JUMPI PUSH1 0x40 MLOAD PUSH3 0x461BCD PUSH1 0xE5 SHL DUP2 MSTORE PUSH1 0x4 ADD DUP1 DUP1 PUSH1 0x20 ADD DUP3 DUP2 SUB DUP3 MSTORE PUSH1 0x21 DUP2 MSTORE PUSH1 0x20 ADD DUP1 PUSH2 0x1213 PUSH1 0x21 SWAP2 CODECOPY PUSH1 0x40 ADD SWAP2 POP POP PUSH1 0x40 MLOAD DUP1 SWAP2 SUB SWAP1 REVERT JUMPDEST PUSH1 0x20 DUP1 SLOAD PUSH1 0x1 ADD SWAP1 DUP2 SWAP1 SSTORE PUSH1 0x0 JUMPDEST PUSH1 0x20 DUP2 LT ISZERO PUSH2 0xD63 JUMPI DUP2 PUSH1 0x1 AND PUSH1 0x1 EQ ISZERO PUSH2 0xC96 JUMPI DUP3 PUSH1 0x0 DUP3 PUSH1 0x20 DUP2 LT PUSH2 0xC87 JUMPI INVALID JUMPDEST ADD SSTORE POP PUSH2 0xD66 SWAP6 POP POP POP POP POP POP JUMP JUMPDEST PUSH1 0x2 PUSH1 0x0 DUP3 PUSH1 0x20 DUP2 LT PUSH2 0xCA5 JUMPI INVALID JUMPDEST ADD SLOAD DUP5 PUSH1 0x40 MLOAD PUSH1 0x20 ADD DUP1 DUP4 DUP2 MSTORE PUSH1 0x20 ADD DUP3 DUP2 MSTORE PUSH1 0x20 ADD SWAP3 POP POP POP PUSH1 0x40 MLOAD PUSH1 0x20 DUP2 DUP4 SUB SUB DUP2 MSTORE SWAP1 PUSH1 0x40 MSTORE PUSH1 0x40 MLOAD DUP1 DUP3 DUP1 MLOAD SWAP1 PUSH1 0x20 ADD SWAP1 DUP1 DUP4 DUP4 JUMPDEST PUSH1 0x20 DUP4 LT PUSH2 0xCFD JUMPI DUP1 MLOAD DUP3 MSTORE PUSH1 0x1F NOT SWAP1 SWAP3 ADD SWAP2 PUSH1 0x20 SWAP2 DUP3 ADD SWAP2 ADD PUSH2 0xCDE JUMP JUMPDEST MLOAD DUP2 MLOAD PUSH1 0x20 SWAP4 DUP5 SUB PUSH2 0x100 EXP PUSH1 0x0 NOT ADD DUP1 NOT SWAP1 SWAP3 AND SWAP2 AND OR SWAP1 MSTORE PUSH1 0x40 MLOAD SWAP2 SWAP1 SWAP4 ADD SWAP5 POP SWAP2 SWAP3 POP POP DUP1 DUP4 SUB DUP2 DUP6 GAS STATICCALL ISZERO DUP1 ISZERO PUSH2 0xD3C JUMPI RETURNDATASIZE PUSH1 0x0 DUP1 RETURNDATACOPY RETURNDATASIZE PUSH1 0x0 REVERT JUMPDEST POP POP POP PUSH1 0x40 MLOAD RETURNDATASIZE PUSH1 0x20 DUP2 LT ISZERO PUSH2 0xD51 JUMPI PUSH1 0x0 DUP1 REVERT JUMPDEST POP MLOAD SWAP3 POP PUSH1 0x2 DUP3 DIV SWAP2 POP PUSH1 0x1 ADD PUSH2 0xC64 JUMP JUMPDEST POP INVALID JUMPDEST POP POP POP POP POP POP POP JUMP JUMPDEST PUSH1 0x60 PUSH2 0xD7C PUSH1 0x20 SLOAD PUSH2 0x1066 JUMP JUMPDEST SWAP1 POP SWAP1 JUMP JUMPDEST PUSH1 0x20 SLOAD PUSH1 0x0 SWAP1 DUP2 SWAP1 DUP2 JUMPDEST PUSH1 0x20 DUP2 LT ISZERO PUSH2 0xF32 JUMPI DUP2 PUSH1 0x1 AND PUSH1 0x1 EQ ISZERO PUSH2 0xE64 JUMPI PUSH1 0x2 PUSH1 0x0 DUP3 PUSH1 0x20 DUP2 LT PUSH2 0xDAF JUMPI INVALID JUMPDEST ADD SLOAD DUP5 PUSH1 0x40 MLOAD PUSH1 0x20 ADD DUP1 DUP4 DUP2 MSTORE PUSH1 0x20 ADD DUP3 DUP2 MSTORE PUSH1 0x20 ADD SWAP3 POP POP POP PUSH1 0x40 MLOAD PUSH1 0x20 DUP2 DUP4 SUB SUB DUP2 MSTORE SWAP1 PUSH1 0x40 MSTORE PUSH1 0x40 MLOAD DUP1 DUP3 DUP1 MLOAD SWAP1 PUSH1 0x20 ADD SWAP1 DUP1 DUP4 DUP4 JUMPDEST PUSH1 0x20 DUP4 LT PUSH2 0xE07 JUMPI DUP1 MLOAD DUP3 MSTORE PUSH1 0x1F NOT SWAP1 SWAP3 ADD SWAP2 PUSH1 0x20 SWAP2 DUP3 ADD SWAP2 ADD PUSH2 0xDE8 JUMP JUMPDEST MLOAD DUP2 MLOAD PUSH1 0x20 SWAP4 DUP5 SUB PUSH2 0x100 EXP PUSH1 0x0 NOT ADD DUP1 NOT SWAP1 SWAP3 AND SWAP2 AND OR SWAP1 MSTORE PUSH1 0x40 MLOAD SWAP2 SWAP1 SWAP4 ADD SWAP5 POP SWAP2 SWAP3 POP POP DUP1 DUP4 SUB DUP2 DUP6 GAS STATICCALL ISZERO DUP1 ISZERO PUSH2 0xE46 JUMPI RETURNDATASIZE PUSH1 0x0 DUP1 RETURNDATACOPY RETURNDATASIZE PUSH1 0x0 REVERT JUMPDEST POP POP POP PUSH1 0x40 MLOAD RETURNDATASIZE PUSH1 0x20 DUP2 LT ISZERO PUSH2 0xE5B JUMPI PUSH1 0x0 DUP1 REVERT JUMPDEST POP MLOAD SWAP3 POP PUSH2 0xF24 JUMP JUMPDEST PUSH1 0x2 DUP4 PUSH1 0x21 DUP4 PUSH1 0x20 DUP2 LT PUSH2 0xE74 JUMPI INVALID JUMPDEST ADD SLOAD PUSH1 0x40 MLOAD PUSH1 0x20 ADD DUP1 DUP4 DUP2 MSTORE PUSH1 0x20 ADD DUP3 DUP2 MSTORE PUSH1 0x20 ADD SWAP3 POP POP POP PUSH1 0x40 MLOAD PUSH1 0x20 DUP2 DUP4 SUB SUB DUP2 MSTORE SWAP1 PUSH1 0x40 MSTORE PUSH1 0x40 MLOAD DUP1 DUP3 DUP1 MLOAD SWAP1 PUSH1 0x20 ADD SWAP1 DUP1 DUP4 DUP4 JUMPDEST PUSH1 0x20 DUP4 LT PUSH2 0xECB JUMPI DUP1 MLOAD DUP3 MSTORE PUSH1 0x1F NOT SWAP1 SWAP3 ADD SWAP2 PUSH1 0x20 SWAP2 DUP3 ADD SWAP2 ADD PUSH2 0xEAC JUMP JUMPDEST MLOAD DUP2 MLOAD PUSH1 0x20 SWAP4 DUP5 SUB PUSH2 0x100 EXP PUSH1 0x0 NOT ADD DUP1 NOT SWAP1 SWAP3 AND SWAP2 AND OR SWAP1 MSTORE PUSH1 0x40 MLOAD SWAP2 SWAP1 SWAP4 ADD SWAP5 POP SWAP2 SWAP3 POP POP DUP1 DUP4 SUB DUP2 DUP6 GAS STATICCALL ISZERO DUP1 ISZERO PUSH2 0xF0A JUMPI RETURNDATASIZE PUSH1 0x0 DUP1 RETURNDATACOPY RETURNDATASIZE PUSH1 0x0 REVERT JUMPDEST POP POP POP PUSH1 0x40 MLOAD RETURNDATASIZE PUSH1 0x20 DUP2 LT ISZERO PUSH2 0xF1F JUMPI PUSH1 0x0 DUP1 REVERT JUMPDEST POP MLOAD SWAP3 POP JUMPDEST PUSH1 0x2 DUP3 DIV SWAP2 POP PUSH1 0x1 ADD PUSH2 0xD8B JUMP JUMPDEST POP PUSH1 0x2 DUP3 PUSH2 0xF41 PUSH1 0x20 SLOAD PUSH2 0x1066 JUMP JUMPDEST PUSH1 0x0 PUSH1 0x40 SHL PUSH1 0x40 MLOAD PUSH1 0x20 ADD DUP1 DUP5 DUP2 MSTORE PUSH1 0x20 ADD DUP4 DUP1 MLOAD SWAP1 PUSH1 0x20 ADD SWAP1 DUP1 DUP4 DUP4 JUMPDEST PUSH1 0x20 DUP4 LT PUSH2 0xF7E JUMPI DUP1 MLOAD DUP3 MSTORE PUSH1 0x1F NOT SWAP1 SWAP3 ADD SWAP2 PUSH1 0x20 SWAP2 DUP3 ADD SWAP2 ADD PUSH2 0xF5F JUMP JUMPDEST MLOAD DUP2 MLOAD PUSH1 0x20 SWAP4 DUP5 SUB PUSH2 0x100 EXP PUSH1 0x0 NOT ADD DUP1 NOT SWAP1 SWAP3 AND SWAP2 AND OR SWAP1 MSTORE PUSH32 0xFFFFFFFFFFFFFFFFFFFFFFFFFFFFFFFFFFFFFFFFFFFFFFFF0000000000000000 SWAP6 SWAP1 SWAP6 AND SWAP3 ADD SWAP2 DUP3 MSTORE POP PUSH1 0x40 DUP1 MLOAD DUP1 DUP4 SUB PUSH1 0x7 NOT ADD DUP2 MSTORE PUSH1 0x18 SWAP1 SWAP3 ADD SWAP1 DUP2 SWAP1 MSTORE DUP2 MLOAD SWAP2 SWAP6 POP SWAP4 POP DUP4 SWAP3 DUP6 ADD SWAP2 POP DUP1 DUP4 DUP4 JUMPDEST PUSH1 0x20 DUP4 LT PUSH2 0x1009 JUMPI DUP1 MLOAD DUP3 MSTORE PUSH1 0x1F NOT SWAP1 SWAP3 ADD SWAP2 PUSH1 0x20 SWAP2 DUP3 ADD SWAP2 ADD PUSH2 0xFEA JUMP JUMPDEST MLOAD DUP2 MLOAD PUSH1 0x20 SWAP4 DUP5 SUB PUSH2 0x100 EXP PUSH1 0x0 NOT ADD DUP1 NOT SWAP1 SWAP3 AND SWAP2 AND OR SWAP1 MSTORE PUSH1 0x40 MLOAD SWAP2 SWAP1 SWAP4 ADD SWAP5 POP SWAP2 SWAP3 POP POP DUP1 DUP4 SUB DUP2 DUP6 GAS STATICCALL ISZERO DUP1 ISZERO PUSH2 0x1048 JUMPI RETURNDATASIZE PUSH1 0x0 DUP1 RETURNDATACOPY RETURNDATASIZE PUSH1 0x0 REVERT JUMPDEST POP POP POP PUSH1 0x40 MLOAD RETURNDATASIZE PUSH1 0x20 DUP2 LT ISZERO PUSH2 0x105D JUMPI PUSH1 0x0 DUP1 REVERT JUMPDEST POP MLOAD SWAP3 POP POP POP SWAP1 JUMP JUMPDEST PUSH1 0x40 DUP1 MLOAD PUSH1 0x8 DUP1 DUP3 MSTORE DUP2 DUP4 ADD SWAP1 SWAP3 MSTORE PUSH1 0x60 SWAP2 PUSH1 0x20 DUP3 ADD DUP2 DUP1 CALLDATASIZE DUP4 CALLDATACOPY ADD SWAP1 POP POP SWAP1 POP PUSH1 0xC0 DUP3 SWAP1 SHL DUP1 PUSH1 0x7 BYTE PUSH1 0xF8 SHL DUP3 PUSH1 0x0 DUP2 MLOAD DUP2 LT PUSH2 0x10A0 JUMPI INVALID JUMPDEST PUSH1 0x20 ADD ADD SWAP1 PUSH1 0x1 PUSH1 0x1 PUSH1 0xF8 SHL SUB NOT AND SWAP1 DUP2 PUSH1 0x0 BYTE SWAP1 MSTORE8 POP DUP1 PUSH1 0x6 BYTE PUSH1 0xF8 SHL DUP3 PUSH1 0x1 DUP2 MLOAD DUP2 LT PUSH2 0x10CB JUMPI INVALID JUMPDEST PUSH1 0x20 ADD ADD SWAP1 PUSH1 0x1 PUSH1 0x1 PUSH1 0xF8 SHL SUB NOT AND SWAP1 DUP2 PUSH1 0x0 BYTE SWAP1 MSTORE8 POP DUP1 PUSH1 0x5 BYTE PUSH1 0xF8 SHL DUP3 PUSH1 0x2 DUP2 MLOAD DUP2 LT PUSH2 0x10F6 JUMPI INVALID JUMPDEST PUSH1 0x20 ADD ADD SWAP1 PUSH1 0x1 PUSH1 0x1 PUSH1 0xF8 SHL SUB NOT AND SWAP1 DUP2 PUSH1 0x0 BYTE SWAP1 MSTORE8 POP DUP1 PUSH1 0x4 BYTE PUSH1 0xF8 SHL DUP3 PUSH1 0x3 DUP2 MLOAD DUP2 LT PUSH2 0x1121 JUMPI INVALID JUMPDEST PUSH1 0x20 ADD ADD SWAP1 PUSH1 0x1 PUSH1 0x1 PUSH1 0xF8 SHL SUB NOT AND SWAP1 DUP2 PUSH1 0x0 BYTE SWAP1 MSTORE8 POP DUP1 PUSH1 0x3 BYTE PUSH1 0xF8 SHL DUP3 PUSH1 0x4 DUP2 MLOAD DUP2 LT PUSH2 0x114C JUMPI INVALID JUMPDEST PUSH1 0x20 ADD ADD SWAP1 PUSH1 0x1 PUSH1 0x1 PUSH1 0xF8 SHL SUB NOT AND SWAP1 DUP2 PUSH1 0x0 BYTE SWAP1 MSTORE8 POP DUP1 PUSH1 0x2 BYTE PUSH1 0xF8 SHL DUP3 PUSH1 0x5 DUP2 MLOAD DUP2 LT PUSH2 0x1177 JUMPI INVALID JUMPDEST PUSH1 0x20 ADD ADD SWAP1 PUSH1 0x1 PUSH1 0x1 PUSH1 0xF8 SHL SUB NOT AND SWAP1 DUP2 PUSH1 0x0 BYTE SWAP1 MSTORE8 POP DUP1 PUSH1 0x1 BYTE PUSH1 0xF8 SHL DUP3 PUSH1 0x6 DUP2 MLOAD DUP2 LT PUSH2 0x11A2 JUMPI INVALID JUMPDEST PUSH1 0x20 ADD ADD SWAP1 PUSH1 0x1 PUSH1 0x1 PUSH1 0xF8 SHL SUB NOT AND SWAP1 DUP2 PUSH1 0x0 BYTE SWAP1 MSTORE8 POP DUP1 PUSH1 0x0 BYTE PUSH1 0xF8 SHL DUP3 PUSH1 0x7 DUP2 MLOAD DUP2 LT PUSH2 0x11CD JUMPI INVALID JUMPDEST PUSH1 0x20 ADD ADD SWAP1 PUSH1 0x1 PUSH1 0x1 PUSH1 0xF8 SHL SUB NOT AND SWAP1 DUP2 PUSH1 0x0 BYTE SWAP1 MSTORE8 POP POP SWAP2 SWAP1 POP JUMP JUMPDEST PUSH1 0x0 DUP1 DUP6 DUP6 GT ISZERO PUSH2 0x11F9 JUMPI DUP2 DUP3 REVERT JUMPDEST DUP4 DUP7 GT ISZERO PUSH2 0x1205 JUMPI DUP2 DUP3 REVERT JUMPDEST POP POP DUP3 ADD SWAP4 SWAP2 SWAP1 SWAP3 SUB SWAP2 POP JUMP INVALID DIFFICULTY PUSH6 0x706F73697443 PUSH16 0x6E74726163743A206D65726B6C652074 PUSH19 0x65652066756C6C4465706F736974436F6E7472 PUSH2 0x6374 GASPRICE KECCAK256 PUSH19 0x65636F6E7374727563746564204465706F7369 PUSH21 0x4461746120646F6573206E6F74206D617463682073 PUSH22 0x70706C696564206465706F7369745F646174615F726F PUSH16 0x744465706F736974436F6E7472616374 GASPRICE KECCAK256 PUSH10 0x6E76616C696420776974 PUSH9 0x64726177616C5F6372 PUSH6 0x64656E746961 PUSH13 0x73206C656E6774684465706F73 PUSH10 0x74436F6E74726163743A KECCAK256 PUSH5 0x65706F7369 PUSH21 0x2076616C7565206E6F74206D756C7469706C65206F PUSH7 0x20677765694465 PUSH17 0x6F736974436F6E74726163743A20696E76 PUSH2 0x6C69 PUSH5 0x207075626B PUSH6 0x79206C656E67 PUSH21 0x684465706F736974436F6E74726163743A20646570 PUSH16 0x7369742076616C756520746F6F206869 PUSH8 0x684465706F736974 NUMBER PUSH16 0x6E74726163743A206465706F73697420 PUSH23 0x616C756520746F6F206C6F774465706F736974436F6E74 PUSH19 0x6163743A20696E76616C6964207369676E6174 PUSH22 0x7265206C656E677468A26469706673582212207A48F2 ADDRESS SWAP7 SMOD ISZERO EXTCODECOPY PUSH32 0xDD97E8D80D488D8F674C90D00C6305BF5A022E3AA469F64736F6C634300060B STOP CALLER "
				},
				"gasEstimates": {
					"creation": {
						"codeDepositCost": "1011600",
						"executionCost": "infinite",
						"totalCost": "infinite"
					},
					"external": {
						"deposit(bytes,bytes,bytes,bytes32)": "infinite",
						"get_deposit_count()": "infinite",
						"get_deposit_root()": "infinite",
						"supportsInterface(bytes4)": "286"
					},
					"internal": {
						"to_little_endian_64(uint64)": "infinite"
					}
				},
				"methodIdentifiers": {
					"deposit(bytes,bytes,bytes,bytes32)": "22895118",
					"get_deposit_count()": "621fd130",
					"get_deposit_root()": "c5f2892f",
					"supportsInterface(bytes4)": "01ffc9a7"
				}
			},
			"storageLayout": {
				"storage": [
					{
						"astId": 68,
						"contract": "tenderly/project/Documents/DepositContract.sol:DepositContract",
						"label": "branch",
						"offset": 0,
						"slot": "0",
						"type": "t_array(t_bytes32)32_storage"
					},
					{
						"astId": 70,
						"contract": "tenderly/project/Documents/DepositContract.sol:DepositContract",
						"label": "deposit_count",
						"offset": 0,
						"slot": "32",
						"type": "t_uint256"
					},
					{
						"astId": 74,
						"contract": "tenderly/project/Documents/DepositContract.sol:DepositContract",
						"label": "zero_hashes",
						"offset": 0,
						"slot": "33",
						"type": "t_array(t_bytes32)32_storage"
					}
				],
				"types": {
					"t_array(t_bytes32)32_storage": {
						"base": "t_bytes32",
						"encoding": "inplace",
						"label": "bytes32[32]",
						"numberOfBytes": "1024"
					},
					"t_bytes32": {
						"encoding": "inplace",
						"label": "bytes32",
						"numberOfBytes": "32"
					},
					"t_uint256": {
						"encoding": "inplace",
						"label": "uint256",
						"numberOfBytes": "32"
					}
				}
			},
			"userdoc": {
				"events": {
					"DepositEvent(bytes,bytes,bytes,bytes,bytes)": {
						"notice": "A processed deposit event."
					}
				},
				"kind": "user",
				"methods": {
					"deposit(bytes,bytes,bytes,bytes32)": {
						"notice": "Submit a Phase 0 DepositData object."
					},
					"get_deposit_count()": {
						"notice": "Query the current deposit count."
					},
					"get_deposit_root()": {
						"notice": "Query the current deposit root hash."
					},
					"supportsInterface(bytes4)": {
						"notice": "Query if a contract implements an interface"
					}
				},
				"notice": "This is the Ethereum 2.0 deposit contract interface. For more information see the Phase 0 specification under https://github.com/ethereum/eth2.0-specs",
				"version": 1
			}
		}
	}
}